:020000040800F2
:1000000088070020E9150008890400088B0400080F
:100010008F04000893040008970400080000000003
:100020000000000000000000000000009B04000829
:100030009D040008000000009F040008A1040008BF
:10004000031600080316000803160008031600082C
:10005000031600080316000803160008031600081C
:10006000E507000803160008031600080316000839
:1000700003160008031600080316000803160008FC
:1000800003160008031600080316000803160008EC
:1000900003160008031600080316000803160008DC
:1000A00003160008031600080316000803160008CC
:1000B00003160008031600080316000803160008BC
:1000C00003160008031600080316000803160008AC
:1000D000031600085D150008031600080316000843
:1000E000031600080316000803160008031600088C
:1000F000031600080316000803160008031600087C
:10010000031600080316000803160008031600086B
:10011000031600080316000803160008031600085B
:10012000031600080316000803160008031600084B
:10013000031600080316000803160008031600083B
:10014000031600080316000803160008031600082B
:10015000031600080316000803160008031600081B
:10016000031600080316000803160008031600080B
:1001700003160008031600080316000803160008FB
:10018000031600080316000800F002F800F03CF81F
:100190000AA090E8000C82448344AAF10107DA45E2
:1001A00001D100F031F8AFF2090EBAE80F0013F0F8
:1001B000010F18BFFB1A43F001031847C8390000AC
:1001C000E8390000103A24BF78C878C1FAD852073D
:1001D00024BF30C830C144BF04680C6070470000C1
:1001E0000023002400250026103A28BF78C1FBD840
:1001F000520728BF30C148BF0B6070471FB503F0DE
:10020000BCFC1FBD10B510BD03F054F91146FFF73B
:10021000F5FF00F0D8F803F072F903B4FFF7F2FF2E
:1002200003BC01F037F9000002B9704700BFFCE7DA
:100230002DE9F04F0746884616469A4640F2C320FD
:1002400070434FF47A71B0FBF1F000F1010906FB45
:1002500006F000EB560B344671040A0CB91B88B249
:1002600053464146FFF7E0FF012535E005FB05F069
:1002700004FB040058451AD94C4517D96B1E5B0482
:100280001A0C08EB040399B27B1B5B1C98B2534613
:10029000FFF7CAFF6B1E5B041A0CA8EB040399B2AC
:1002A0007B1B5B1C98B25346FFF7BEFF641E6304C2
:1002B0001A0C08EB050399B23B1B98B25346FFF7A3
:1002C000B3FF63041A0CA8EB050399B23B1B98B269
:1002D0005346FFF7A9FF6D1C4D45C7D9BDE8F08F08
:1002E00002468A4202DD501A80B27047881A80B2F4
:1002F000FBE72DE9FF4F85B080468946129F00201D
:1003000003900290B84507DB0798B84204DBB94573
:1003100002DB0898B84202DA09B0BDE8F08F07980E
:10032000A0EB08040898A0EB0905CDF80480CDF8EF
:100330000090002C02DD4FF0010A06E014B94FF0E6
:10034000000A02E04FF0FF3A6442002D02DD4FF058
:10035000010B06E015B94FF0000B02E04FF0FF3B38
:100360006D42AC4201DD264600E02E46002004909E
:1003700023E0009A91B2019A90B23A46139BFFF79C
:1003800057FF039820440390029828440290039852
:10039000B04205DD0398801B039001985044019002
:1003A0000298B04205DD0298801B029000985844E4
:1003B00000900498401C80B20490711C04988842FC
:1003C000D7DD00BFA8E74FF4A06001F02DF9A82009
:1003D00000F0DEFF4FF4E13001F06AF800F06AF956
:1003E00000F054FA00F023FA00F083FB40F2FF32F1
:1003F0009FED220A2249002000F003FC00F022FBBE
:1004000040F2FF329FED1D0A42F21071012000F010
:10041000F8FB00F017FB40F2FF329FED1A0A4FF491
:100420007A71022000F0EDFB00F00CFB40F2FF328D
:100430009FED120A4FF47A71032000F0E2FB00F006
:1004400001FB042000F0B8FB00F0FCFA4FF400516F
:10045000022000F028FB022000F0AEFB42F21070F8
:1004600000F063FB032000F0A7FB42F2107000F0E5
:100470005CFB00F0E7FA00BFFEE7000000000000B0
:10048000A08601000000B442704700BFFEE700BF35
:10049000FEE700BFFEE700BFFEE77047704770470A
:1004A000704700000CB5002001900090764800686D
:1004B00040F480307449086000BF7348006800F45D
:1004C000003000900198401C0190009818B90198E4
:1004D000B0F5A04FF1D16C48006800F4003010B1C5
:1004E0000120009001E0002000900098012846D1F2
:1004F00065484030006840F08050634940310860F2
:100500006248006840F44040604908605E48083036
:1005100000685D49083108600846006840F4004002
:1005200008600846006840F4A05008605848091F59
:100530000860081F006840F08070091F086000BF55
:100540005148006800F000700028F9D040F20570B2
:10055000504908604C480830006820F003004A49C0
:10056000083108600846006840F00200086000BFDB
:1005700045480830006800F00C000828F8D10CBD90
:1005800010B54548006840F47000434908603E4893
:10059000006840F001003C49086000203A490831F9
:1005A0000860394800683D490840374908603C48C0
:1005B000091D0860081F006820F48020091F0860DA
:1005C000002031490C310860FFF76CFF4FF00060EC
:1005D00031498039086010BD70B500200022022327
:1005E00000240221284D08352D6805F00C0020B1AB
:1005F000042806D0082834D107E02A4D2A4E356059
:1006000033E02A4D284E35602FE01F4D2D1D2D68FB
:10061000C5F380541C4D2D1D2D6805F03F0154B1CC
:10062000224DB5FBF1F5184E361D3668C6F3881617
:1006300005FB06F209E01B4DB5FBF1F5124E361D28
:100640003668C6F3881605FB06F20F4D2D1D2D6882
:10065000C5F301456D1C6B00B2FBF3F5124E35601E
:1006600003E0104D104E356000BF00BF064D083549
:100670002D68C5F303150E4E705D0B4D2D68C540FA
:10068000094E356070BD0000003802400070004027
:1006900008544007003C024088ED00E0FFFFF6FEF2
:1006A000103000240024F4000000002000127A0022
:1006B000040000201CB50121202001F049FB01218C
:1006C000402001F045FB4FF48060009001208DF840
:1006D000040000208DF8060003208DF8050001209D
:1006E0008DF8070069463A4801F094F84FF480709D
:1006F000009001208DF8040000208DF806000320F2
:100700008DF8050000208DF807006946314801F09A
:1007100081F88020009001208DF8040000208DF8E1
:10072000060003208DF8050000208DF807006946BB
:10073000284801F06FF80420009000208DF8040094
:1007400003208DF8050002208DF807006946224835
:1007500001F060F84FF40070009001208DF8040063
:1007600000208DF8060003208DF8050000208DF88C
:1007700007006946194801F04DF84FF48060009079
:1007800001208DF8040000208DF8060003208DF86C
:10079000050000208DF807006946104801F03AF87E
:1007A0004FF480610A4801F0B1F84FF480710948B4
:1007B00001F0ACF88021074801F0A8F88021084832
:1007C00001F0A4F84021064801F0A0F81CBD00008B
:1007D00000140240001802400010024000000240D5
:1007E0000004024010B52548007838B90121880777
:1007F00002F03CF901202149087017E04FF08040D9
:10080000406A1F49086000214FF0804002F02EF935
:1008100000204FF080414862194800681949B1FB37
:10082000F0F01949086000201449087010BD0EB599
:100830000121880301F0E6FA0221042001F0EDFB1A
:100840000420009000208DF8040008208DF8050099
:1008500001208DF80600684601F050FE08208DF852
:10086000080002208DF809008DF80A0001208DF89B
:100870000B0002A800F0DDFE0EBD000014000020F9
:100880001800002000BD01051C00002000B587B045
:100890000121084601F05CFA0121480701F0A1FAA4
:1008A0001020059003208DF8180002208DF81B0001
:1008B00005A9254800F0AEFF0020019002900390AA
:1008C0000220049001A9002001F09DFE01210020DA
:1008D00001F0B6FE0021084601F000FF07B000BDA0
:1008E00070B52DED048B0446204602F0C4FF41ECA8
:1008F000180B9FED160B53EC102B51EC180B02F05C
:1009000005FE41EC180B9FED130B53EC102B51EC33
:10091000180B02F0C3FF41EC190B9FED100B53ECC9
:10092000102B02F0F3FD41EC180B51EC180B02F008
:1009300075FF85B22946002001F0D0FEBDEC048B86
:1009400070BD7047704700000000024000000000CA
:1009500000408F40000000000000B0406666666600
:1009600066660A401CB50121722001F0F1F9E02011
:10097000009001208DF8040000208DF8060003206F
:100980008DF8050002208DF807006946FE4800F04A
:1009900041FF4FF44040009001208DF804000020FA
:1009A0008DF8060003208DF8050002208DF8070061
:1009B0006946F64800F02EFFC020009001208DF817
:1009C000040000208DF8060003208DF805000220A9
:1009D0008DF807006946EE4800F01CFF7C2000906F
:1009E00001208DF8040000208DF8060003208DF80A
:1009F000050002208DF807006946E64800F00AFF6E
:100A00001CBD10B50120E4490860142000F0DAFC98
:100A10000020E249C1F89402142000F0D3FC10BD7C
:100A200010B50020DE490860142000F0CBFC012046
:100A3000DC49C1F8B802142000F0C4FC0020D849F9
:100A4000086010BD0020D449091F08600120D34967
:100A5000C1F890020020D049091F08600120CF4949
:100A6000C1F89002704770B50446002518E004F004
:100A7000800018B10120CC49086002E00020CA497A
:100A800008606006040E0120C349091D08600320A8
:100A900000F098FC0020C149C1F89802681CC5B25A
:100AA000082DE4DB70BD2DE9F04105460E46BF4838
:100AB000475D0020BC49091F0860B849C1F894028D
:100AC0002846FFF7D0FF002409E0791E091BC90062
:100AD00026FA01F1C8B2FFF7C6FF601CC4B2BC42DF
:100AE000F3DB0120AC490860B149C1F89402BDE8CC
:100AF000F08110B5FFF736FFFFF783FFFFF790FF98
:100B000000210846FFF7CFFF4FF450010120FFF707
:100B1000CAFF00210220FFF7C6FF4FF440710320F7
:100B2000FFF7C1FFFFF78EFF10BD70B52DED048BF1
:100B30000446204602F09FFE41EC190B9FED9D0BF1
:100B400053EC102B02F0AAFE41EC180B02F066FEEB
:100B5000054629460420FFF7A6FFFFF773FFBDEC0B
:100B6000048B70BD10B52DED068BB0EE408A18EEEB
:100B7000100A02F091FF41EC1A0B9FED900B53EC21
:100B8000102B02F08BFE41EC190B02F017FE04460D
:100B900021460520FFF787FFFFF754FFBDEC068BCA
:100BA00010BD70B5044604F5805529460620FFF7B0
:100BB0007AFFFFF747FF70BD10B50446052C1DD224
:100BC000DFE804F003080D12170010210020FFF7E2
:100BD0006AFF14E020210020FFF765FF0FE04021AD
:100BE0000020FFF760FF0AE080210020FFF75BFF95
:100BF00005E0F0210020FFF756FF00E000BF00BF36
:100C000010BD70B52DED028B06460C46B0EE408A45
:100C100015463046FFF7D0FF2046FFF786FFB0EEBF
:100C2000480AFFF79FFF2846FFF7BBFFBDEC028B8A
:100C300070BD2DE9F04F2DED068B85B080460C463A
:100C40001546B0EE408AF0EE608A1E46DDE914A932
:100C5000204602F010FE41EC1A0B9FED560B53ECB0
:100C6000102B02F01BFE41EC190B02F0D7FD83465E
:100C7000284602F000FE41EC1A0B9FED4E0B53ECA0
:100C8000102B02F00BFE41EC190B02F0C7FD049093
:100C9000504602F0F0FD41EC1A0B9FED460B53EC71
:100CA000102B02F0FBFD41EC190B02F0B7FD039095
:100CB000304602F0E0FD41EC1A0B9FED3E0B53EC89
:100CC000102B02F0EBFD41EC190B02F0A7FD029096
:100CD00018EE900A02F0E0FE41EC1A0B9FED390B82
:100CE00053EC102B02F0DAFD41EC190B02F096FDEB
:100CF00080B2019018EE100A02F0CEFE41EC1A0B01
:100D00009FED300B53EC102B02F0C8FD41EC190B9A
:100D100002F084FD87B24046FFF74EFF40F2FF31FC
:100D20000620FFF7C0FEB9F1000F04D027490320C9
:100D3000FFF7B9FE03E026490320FFF7B4FE4FF4A6
:100D400050010120FFF7AFFE59460420FFF7ABFE2C
:100D50000A200499FFF7A7FE08200399FFF7A3FED6
:100D600009200299FFF79FFEFFF76CFE019800EB48
:100D700007210720FFF797FEFFF764FE05B0BDECE3
:100D8000068BBDE8F08F000000040240001802400E
:100D9000001402400010024094024242000042420D
:100DA000B80243420000434298824042240000209F
:100DB000008040429E96F789552E21404009BF167B
:100DC0006CC146409A9999999999D93F14C380006A
:100DD000144380002DE9F04F2DED068B85B0814640
:100DE0000C461546B0EE408AF0EE608A1E46DDE9FC
:100DF00014A80394A8050290D346049618EE900A0E
:100E000002F04AFE41EC1A0B1FED120B53EC102BB3
:100E100002F044FD41EC190B02F000FD80B201909C
:100E200018EE100A02F038FE41EC1A0B1FED1B0BF6
:100E300053EC102B02F032FD41EC190B02F0EEFCEA
:100E400087B24846FFF7B8FE40F2FF310620FFF7B1
:100E50002AFEB8F1000F04D0FE490320FFF723FE5D
:100E600003E0FD490320FFF71EFE4FF4500101206F
:100E7000FFF719FE06200399FFF715FE0A200299D5
:100E8000FFF711FE59460820FFF70DFE09200499CF
:100E9000FFF709FE019800EB07210720FFF703FE8B
:100EA00005B0BDEC068BBDE8F08F2DE9F04F2DEDC0
:100EB000068B85B080460C461546B0EE408AF0EEB3
:100EC000608A1E46DDE914A90394A80402905046E6
:100ED00002F0D1FC41EC1A0B1FED480B53EC102B28
:100EE00002F0DCFC41EC190B02F098FC8346304622
:100EF00002F0C1FC41EC1A0B1FED500B53EC102B10
:100F000002F0CCFC41EC190B02F088FC049018EEC6
:100F1000900A02F0C1FD41EC1A0B1FED560B53EC89
:100F2000102B02F0BBFC41EC190B02F077FC80B2F5
:100F3000019018EE100A02F0AFFD41EC1A0B1FED04
:100F40005F0B53EC102B02F0A9FC41EC190B02F0E3
:100F500065FC87B24046FFF72FFE40F2FF310620C6
:100F6000FFF7A1FDB9F1000F04D0BC490320FFF742
:100F70009AFD03E0BA490320FFF795FD4FF45001B5
:100F80000120FFF790FD05200399FFF78CFD0A2053
:100F90000299FFF788FD59460820FFF784FD0920D4
:100FA0000499FFF780FD019800EB07210720FFF768
:100FB0007AFD05B0BDEC068BBDE8F08F10B5044698
:100FC00034B1012C1FD0022C38D0032C6CD150E04E
:100FD0000020A4490860052000F0F4F90120A2498E
:100FE000C1F89802052000F0EDF900209D49086045
:100FF000052000F0E7F901209B49C1F8980205207F
:1010000000F0E0F951E0002096490860052000F06A
:10101000D9F901209449C1F89802052000F0D2F9CD
:10102000002090490860052000F0CCF901208E498D
:10103000C1F89802052000F0C5F936E00020894982
:101040000860052000F0BEF901208749C1F8980228
:10105000052000F0B7F9002082490860052000F063
:10106000B1F901208049C1F89802052000F0AAF9E1
:101070001BE000207B490860052000F0A3F9012057
:101080007949C1F89802052000F09CF900207549C3
:101090000860052000F096F901207349C1F8980214
:1010A000052000F08FF900E000BF00BF10BD10B5B3
:1010B000044624B1012C13D0022C2CD126E06B491C
:1010C0000320FFF7F0FC0120664908600020664914
:1010D000C1F89C02664908606649C1F88C021AE0B2
:1010E0000220FFF769FD61490320FFF7DCFCFFF7F1
:1010F000A9FC01205B49086000205B49C1F89C0203
:101100005B4908605B49C1F88C0204E05A4903203E
:10111000FFF7C9FC00BF00BF10BD10B5044634B1D5
:10112000012C09D0022C26D0032C51D14BE053497D
:101130000120FFF7B8FC4CE051490120FFF7B3FC58
:101140000020FFF739FD4FF445710320FFF7ABFC9A
:101150000220FFF731FD4FF445710320FFF7A3FC98
:101160000320FFF729FD4FF445710320FFF79BFC97
:10117000FFF768FC2DE00220FFF71EFD3B4903202E
:10118000FFF791FCFFF75EFC0020FFF715FD4FF421
:1011900045710320FFF787FCFFF754FC0120FFF7A0
:1011A0000BFD4FF445710320FFF77DFCFFF74AFC70
:1011B0000320FFF701FD4FF445710320FFF773FC97
:1011C000FFF740FC05E02F490120FFF76CFC00E031
:1011D00000BF00BF10BD05460C462A492031012042
:1011E000FFF761FC2846FFF7E7FC2846FFF795FF6D
:1011F0000220FFF7E1FC2046FFF759FFFFF722FC32
:1012000021490A20FFF74FFCFFF71CFC0220FFF7E3
:10121000D3FC1E490B20FFF746FCFFF713FC02200E
:10122000FFF7CAFC1A490C20FFF73DFCFFF70AFC48
:1012300018490D20FFF737FCFFF704FC16490E2074
:10124000FFF731FCFFF7FEFB14490F20FFF72BFCE3
:1012500026E0000014C340001443400014C3C00043
:101260001443C0009882424200804242140340006E
:1012700088024242000042421403C0000003D00032
:101280000013D0000063D00039B4D0B453371A0033
:10129000FC522700A66E3400508A4100F9A54E008A
:1012A000FFF7D0FB2D491020FFF7FDFBFFF7CAFB2E
:1012B0002B491120FFF7F7FBFFF7C4FB2949122048
:1012C000FFF7F1FBFFF7BEFB27491320FFF7EBFB0E
:1012D000FFF7B8FB25491420FFF7E5FBFFF7B2FB4A
:1012E00023491520FFF7DFFBFFF7ACFB2149162050
:1012F000FFF7D9FBFFF7A6FB1F491720FFF7D3FB2A
:10130000FFF7A0FB1D491820FFF7CDFBFFF79AFB65
:10131000FFF798FB21E001201949086000201949D6
:10132000C1F89C02184908601849C1F88C02FFF7FF
:1013300089FB642000F046F8002011490860012074
:10134000091D08600020104908601049C1F88C028E
:10135000FFF778FB642000F035F8DCE7A3C15B0001
:101360000000C0FFF09EC400F6F87500A0148300D2
:1013700049309000F34B9D009D67AA004683B7005B
:101380009882424200804242880242420000424229
:1013900010B504466FF0040000F098F9E11704EB73
:1013A0005171C1F3C701394A11701046007800EB42
:1013B0004001C1EBC0104FF6FF7101EAC000344993
:1013C000088010BD0146314A12784A434FF0E023AD
:1013D0005A6100229A611A46126942F001021A61AA
:1013E00000BF4FF0E022106900F001021AB100F4D2
:1013F0008032002AF5D04FF0E022126922F001027B
:101400004FF0E0231A6100229A6170470146204A9A
:1014100012884A434FF0E0235A6100229A611A462B
:10142000126942F001021A6100BF4FF0E022106918
:1014300000F001021AB100F48032002AF5D04FF01A
:10144000E022126922F001024FF0E0231A6100222B
:101450009A61704770B504464FF4077094FBF0F042
:10146000C6B24FF4077094FBF0F100FB114085B257
:1014700005E04FF40770FFF7C9FF701EC6B2002EDB
:10148000F7D115B12846FFF7C1FF70BD3E0000201F
:1014900040000020014600BF704700BF4E4A12883E
:1014A00002F04002002AF9D0C2B24B4B9A8070473A
:1014B00010B588B004460121084600F049FC01211E
:1014C000102000F09FFC07220921444800F02DFA6B
:1014D00007220A21414800F028FA4FF4C060069024
:1014E00002208DF81C008DF81D0000208DF81E00D4
:1014F00001208DF81F0006A9384800F08BF90294EE
:101500000020ADF80C00ADF80E00ADF81000ADF8FD
:1015100014000C20ADF8120002A92F4800F01DFEA7
:1015200001212D4800F0A1FE40212B4800F085FF4D
:10153000012240F22551284800F04DFF25208DF86A
:10154000040003208DF805008DF8060001208DF8B9
:10155000070001A800F06DF808B010BD10B540F20A
:1015600025511D4800F072FF10B31B4800F0ACFE7F
:10157000C4B21B48008800F40040C8B9184800886D
:1015800000F4804060B10A2C03D000201449088088
:1015900020E01348008840F400401149088019E019
:1015A0000D2C06D10E48008840F480400C4908807C
:1015B00010E00B480088C0F30D000A490C5408489D
:1015C0000088401C0649088008460088C72801DDBD
:1015D0000020088010BD0000001001400000024003
:1015E000480000205C000020094880470948004767
:1015F000FEE7FEE7FEE7FEE7FEE7FEE7FEE7FEE7C3
:10160000FEE7FEE704480549054A064B704700001F
:101610008105000889010008880100208807002052
:10162000880300208803002032490143324A1160B8
:10163000704770B5002100230F22C4781CB32E4CD4
:10164000246804F4E064C4F5E064C4F30721C1F144
:101650000404E3B20A4144789C40E1B28478144027
:1016600021430C07210E254C05786155047804F0C0
:101670001F050124AC4005786D11AD0005F1E02592
:10168000C5F8004109E0047804F01F050124AC40CE
:101690001B4D0678761145F8264070BD194A0A4060
:1016A0000243154B1B1F1A60704739B1124A121DB5
:1016B00012680243104B1B1D1A6006E00E4A121DF1
:1016C000126882430C4B1B1D1A607047042808D116
:1016D0004FF0E021096941F004014FF0E02211616F
:1016E00007E04FF0E021096921F004014FF0E0220A
:1016F000116170470000FA050CED00E000E400E025
:1017000080E100E080FFFF1F10B504469848844246
:1017100008D10121084600F086FB0021012000F0DD
:1017200082FB76E09348844208D10121022000F038
:101730007AFB0021022000F076FB6AE08E488442AA
:1017400008D10121042000F06EFB0021042000F0EC
:101750006AFB5EE08948844208D10121082000F03C
:1017600062FB0021082000F05EFB52E084488442C6
:1017700008D10121102000F056FB0021102000F0BC
:1017800052FB46E07F48844208D10121202000F02E
:101790004AFB0021202000F046FB3AE07A488442D0
:1017A00008D10121402000F03EFB0021402000F044
:1017B0003AFB2EE07548844208D10121802000F0D8
:1017C00032FB0021802000F02EFB22E07048844292
:1017D00008D10121801500F026FB0021A01500F0A2
:1017E00022FB16E06B48844208D10121401500F02D
:1017F0001AFB0021601500F016FB0AE066488442DF
:1018000007D10121001500F00EFB0021201500F08A
:101810000AFB10BDF0B50A4600210023002400BFDA
:101820003DE0012505FA01F3156805EA03049C4231
:1018300034D105684F000326BE40B54305601579D5
:101840004E00B5400668354305601579012D02D07C
:101850001579022D16D185684F000326BE40B54389
:10186000856055794E00B54086683543856045688A
:1018700001268E40B5434560456896798E40B6B2E4
:1018800035434560C5684F000326BE40B543C5607B
:10189000D5794E00B540C6683543C560491C10294E
:1018A000BFD3F0BD4FF6FF7101600021017141719E
:1018B0008171C171704708B54FF480320092009A6F
:1018C0000A430092009AC261C161009AC261C26972
:1018D0000092C269009208BD0246002013690B40C5
:1018E0000BB1012000E0002070470146086980B27A
:1018F00070470246002053690B400BB1012000E005
:10190000002070470146486980B2704701837047E4
:10191000418370470AB1018300E041837047416110
:10192000704742694A4042617047F0B50023002485
:101930004D07ED0E02FA05F3CE1000F1200555F823
:1019400026504E07F70E0F26BE40B543CF1000F1CC
:10195000200646F82750CE1000F1200555F82650F5
:1019600045EA0304CE1000F1200545F82640F0BDFD
:10197000000002400004024000080240000C024047
:10198000001002400014024000180240001C0240F7
:10199000002002400024024000280240F94800686C
:1019A00040F00100F74908600020F649083108605E
:1019B000F4480068F4490840F2490860F348091DFA
:1019C0000860F348EF4984310860F0481038091D79
:1019D0000860EC48006820F48020EA490860002094
:1019E000E8490C310860E7498C31086070470021F4
:1019F000E44A921C117011460870704710B50146F8
:101A00000022002300204A11012A02D1DD4C236864
:101A100008E0022A03D1DB4C7034236802E0D94C81
:101A20007434236801F01F02012494401C400CB15F
:101A3000012000E0002010BD38B5002000900024F7
:101A4000002500BF3120FFF7D9FF05460098401C54
:101A500000900098B0F5A04F01D0002DF2D03120B9
:101A6000FFF7CCFF08B1012400E00024204638BD78
:101A700001460020C34A106820F0F80040EAC10087
:101A800010607047C349086070470021BD4A70323A
:101A900011701170012802D004280AD104E001213C
:101AA000B84A7032117005E00521B64A70321170E3
:101AB00000E000BF00BF7047B7490860704770B5CD
:101AC000049C41EA82150126C6EB530645EA064509
:101AD000054345EA0465AB4E361D356070BDAD4922
:101AE00008667047820142EA0172A64B84331A608D
:101AF0007047A8498866704710B5830143EA0163BF
:101B000043EA02739F4C8834236010BDA1490867E3
:101B10007047A049C864704702460020994B0833BB
:101B2000186820F0EC6042EA01031843954B083333
:101B30001860704702460020924B0833186820F066
:101B4000784042EA010318438E4B0833186070470F
:101B5000014600208B4A0832106820F00300084339
:101B60001060704787480830006800F00C0070472C
:101B700001460020834A0832106820F0F000084334
:101B800010607047014600207E4A0832106820F439
:101B9000E05008431060704701460020794A08323F
:101BA000106820F4604040EAC10010607047F0B552
:101BB000002100220024022500260223714F08374D
:101BC0003F6807F00C0121B1042905D0082937D15D
:101BD00005E0724F076036E0714F076033E0694FF0
:101BE0003F1D3F68C7F38056664F3F1D3F6807F0B3
:101BF0003F036EB16A4FB7FBF3F7DFF888C10CF112
:101C0000040CDCF800C0CCF3881C07FB0CF40CE0DF
:101C1000624FB7FBF3F7DFF86CC10CF1040CDCF892
:101C200000C0CCF3881C07FB0CF4564F3F1D3F68E7
:101C3000C7F301477F1C7D00B4FBF5F7076002E0A6
:101C4000564F076000BF00BF4E4F08373F6807F090
:101C5000F0010909534F7A5C0768D7404760494F44
:101C600008373F6807F4E051890A4E4F7A5C4768AD
:101C7000D7408760434F08373F6807F46041490BFE
:101C8000484F7A5C4768D740C760F0BD002100F438
:101C90004072B2F5407F0AD13A4A0832116821F405
:101CA000F811414A02401143364A08321160354A60
:101CB00070321268C0F30B031A43324B70331A6050
:101CC00070473549443908607047334940390860E6
:101CD000704736490860704701460020294A8C3217
:101CE000106820F01F004A1E1043264A8C321060F4
:101CF000704701460020234A8C32106820F4F850C7
:101D00004A1E40EA02201F4A8C321060704701468A
:101D100000201C4A8C32106820F4401008431060E8
:101D2000704701460020174A8C32106820F44000AA
:101D300008431060704701460020124A8C32106838
:101D400020F440300843106070471949086070471C
:101D500039B10C4A3032126802430A4B30331A60F0
:101D600006E0084A303212688243064B30331A606C
:101D70007047F9B1034A343212680243014B3433DD
:101D80001A601CE000380240FFFFF6EA1030002421
:101D90000030002000004742800E47420024F4003B
:101DA00000127A004A000020FFFCFF0F5C0147424E
:101DB000E01147428F4A126882438E4B1A60704787
:101DC00039B18C4A121D126802438A4B1B1D1A60DE
:101DD00006E0884A121D12688243864B1B1D1A605A
:101DE000704739B1834A0C3212680243814B0C337D
:101DF0001A6006E07F4A0C32126882437D4B0C3336
:101E00001A60704739B17B4A103212680243794B2D
:101E100010331A6006E0774A103212688243754B1D
:101E200010331A60704739B1724A243A126802437B
:101E3000704B243B1A6006E06E4A243A12688243D3
:101E40006C4B243B1A60704739B16A4A203A1268D9
:101E50000243684B203B1A6006E0664A203A12684B
:101E60008243644B203B1A60704739B1614A1C3A87
:101E7000126802435F4B1C3B1A6006E05D4A1C3A45
:101E8000126882435B4B1C3B1A60704739B1594A58
:101E9000143A12680243574B143B1A6006E0554A45
:101EA000143A12688243534B143B1A60704739B19D
:101EB000504A103A126802434E4B103B1A6006E03B
:101EC0004C4A103A126882434A4B103B1A607047E2
:101ED00039B1484A1C3212680243464B1C331A601F
:101EE00006E0444A1C3212688243424B1C331A609B
:101EF000704739B13F4A2032126802433D4B2033CC
:101F00001A6006E03B4A203212688243394B203384
:101F10001A60704739B1374A243212680243354B90
:101F200024331A6006E0334A243212688243314B6C
:101F300024331A60704739B12E4A2C32126802439A
:101F40002C4B2C331A6006E02A4A2C32126882434A
:101F5000284B2C331A60704739B1264A3032126848
:101F60000243244B30331A6006E0224A30321268B2
:101F70008243204B30331A607047012808D11D4935
:101F80003C31096841F008011A4A3C32116007E00F
:101F900018493C31096821F00801164A3C321160A9
:101FA000704739B1134A273A12780243114B273B45
:101FB0001A7006E00F4A273A127882430D4B273BEE
:101FC0001A7070470B484030006840F08070094933
:101FD00040310860704701460020064A283A1268DE
:101FE0000A400AB1012000E000207047014926396B
:101FF000087070473438024010B501218803FFF79C
:1020000056FF00214FF48040FFF751FF10BD1C49DF
:10201000086070471B490862704730B500228B0783
:102020001C0F0F2303FA04F2154B08338C1053F8DE
:1020300024309343124C08348D1044F82530234645
:102040008C1053F824308C07240F00FA04F4234337
:102050000B4C08348D1044F8253030BD0949DC3173
:102060000860704708490860704700200449203123
:10207000096801F4807109B1012000E00020704777
:1020800000380140000027420004274210B50446F2
:10209000FA48844208D101211020FFF708FF0021EF
:1020A0001020FFF704FF57E0F548844209D10121D1
:1020B0004804FFF7EBFE00214FF40030FFF7E6FE87
:1020C0004AE0F048844209D101218804FFF7DEFE8E
:1020D00000214FF48020FFF7D9FE3DE0EA4884421A
:1020E00009D10121C804FFF7D1FE00214FF40020DF
:1020F000FFF7CCFE30E0E548844209D10121080514
:10210000FFF7C4FE00214FF48010FFF7BFFE23E06D
:10211000DF48844208D101212020FFF7C8FE0021BA
:102120002020FFF7C4FE17E0DA48844209D10121DC
:102130008807FFF7ABFE00214FF08040FFF7A6FEB7
:102140000AE0D548844207D101214005FFF79EFEF1
:1021500000216005FFF79AFE10BD2DE9FF470546F7
:102160000E460024A14600BFA046B08900B100BFC2
:102170002C8A24F44054F08804432C82AC8941F228
:102180000C608443B0883189084371890843044353
:10219000AC81AC8A24F44074B0890443AC826846B4
:1021A000FFF705FDB548854202D0B948854202D106
:1021B000DDF80C9001E0DDF80890A88900F40040FB
:1021C00040B109EBC90000EB091031684900B0FBD0
:1021D000F1F707E009EBC90000EB0910316889004D
:1021E000B0FBF1F76420B7FBF0F004012009642193
:1021F00001FB1078A88900F4004040B1322000EBC8
:10220000C800B0FBF1F000F00700044308E0322002
:1022100000EB08106421B0FBF1F000F00F00044364
:102220002C81BDE8FF874FF41651016000218180A9
:10223000C18001810C21418100218181704710B54D
:1022400002460020108A20F470600B884C882343DB
:102250008C882343CC8823431843108210BD00216F
:10226000018041808180C180704721B1828942F420
:102270000052828104E082894DF6FF731A40828108
:102280007047028B02F47F420283028B0A4302836F
:10229000704721B1828942F40042828103E0828941
:1022A000C2F30E028281704721B1828A42F4006239
:1022B000828204E0828A4FF2FF731A408282704762
:1022C000C1F308028280704701468888C0F3080085
:1022D0007047028A4FF6F0731A400282028A0A435C
:1022E0000282704721B1828942F00202828104E0B9
:1022F00082894FF6FD731A408281704782894FF2BE
:10230000FF731A40828182890A4382817047028A60
:102310004FF6DF731A400282028A0A430282704734
:1023200021B1028A42F48042028204E0028A4BF622
:10233000FF731A4002827047818941F00101818157
:10234000704721B1828A42F00802828204E0828AC8
:102350004FF6F7731A4082827047028BD2B2028323
:10236000028B42EA01220283704721B1828A42F045
:102370002002828204E0828A4FF6DF731A40828252
:10238000704721B1828A42F01002828204E0828A80
:102390004FF6EF731A4082827047828A4FF6FB73C2
:1023A0001A408282828A0A438282704721B1828ADD
:1023B00042F00202828204E0828A4FF6FD731A40E4
:1023C000828270471AB1838A0B43838202E0838A38
:1023D0008B4383827047F0B5034600240026002516
:1023E000002040F66A17B94200D100BF1846C1F379
:1023F000421401F01F06012707FA06F5012C01D14E
:102400000C3004E0022C01D1103000E014301AB17D
:1024100007682F43076002E00768AF430760F0BD1D
:1024200002460020B1F5007F00D100BF13880B40A9
:102430000BB1012000E00020704701F40072B2F5FA
:10244000007F00D100BFCA430280704770B50246CA
:10245000002400230025002040F66A16B14200D176
:1024600000BFC1F3421501F01F03012606FA03F372
:10247000012D13D19689334017E000000010014070
:102480000044004000480040004C00400050004024
:102490000014014000780040007C0040022D02D171
:1024A000168A334001E0968A33400C12012606FA60
:1024B00004F41688344013B10CB1012000E0002070
:1024C00070BD10B50022002340F66A14A14200D16D
:1024D00000BF0A1201249440A3B2DC43048010BD63
:1024E000002041490860091D0860091D0860091D98
:1024F00008603E483C4914310860704700213A4961
:102500008279002A3AD00A46126803689A430B4639
:102510001A600A1D126803689A430B1D1A6002793B
:1025200011440A6803681A430A602F4A0832126885
:1025300003689A432C4B08331A601A1D126803680B
:102540009A43294B0C331A604279102A0ED11A1F74
:10255000126803681A43244B08331A601A1D126864
:1025600003681A43204B0C331A600DE01E49427970
:1025700011440A6803681A430A6005E002791144AD
:102580000A6803689A430A6070470021016001717C
:102590000C21417100218171704713491031096884
:1025A0000143114A103211607047014600200E4A63
:1025B000143212680A400AB1012000E0002070477E
:1025C000094914310860704701460020064A143258
:1025D00012680A400AB1012000E000207047024959
:1025E0001431086070470000003C0140FFFF7F008D
:1025F00010B501214807FFF749FC00214FF00050BA
:10260000FFF744FC10BD30B5002200237B4C22684C
:1026100040F6FE748440A243D1E900452C438D6806
:102620002C43CD6844EA050303FA00F42243734CBB
:10263000226030BD0021016041608160C16070474F
:1026400039B16E4A1268012383401A436B4B1A60FA
:1026500006E06A4A1268012383409A43674B1A6076
:10266000704710B551B1654A121D12680409012363
:10267000A3401A43614B1B1D1A6009E05F4A121DFB
:10268000126804090123A3409A435C4B1B1D1A6086
:1026900010BD40B15949091D096841F00301574A6D
:1026A000121D116007E05549091D096821F0030159
:1026B000524A121D1160704710B53AB14F4B1B685A
:1026C00001FA00F423434D4C236006E04B4B1B689A
:1026D00001FA00F4A343494C236010BD08B5002261
:1026E0000092464A009200F10802009B1A440092B0
:1026F000009A116008BD08B5002200923F4A00927E
:1027000000F11402009B1A440092009A116008BD67
:1027100030B500240023082802D142EA012401E058
:1027200042EA0144354B00F120052B441C6030BDCA
:1027300008B5014600200090304800902C2000EBA6
:102740009100009A104400900098006880B208BD83
:1027500041B12A4A12684FF4805383401A43274BF1
:102760001A6007E0254A12684FF4805383409A4369
:10277000224B1A60704710B53AB1204B1B6801FA22
:1027800000F423431D4C236006E01C4B1B6801FA38
:1027900000F4A343194C236010BD10B5024600207D
:1027A000164B34331B6801FA02F423400BB10120AD
:1027B00000E0002010BD01FA00F2104B34331A6023
:1027C000704730B50246002000230C4C246801FA03
:1027D00002F504EA0503094C3434246801FA02F5D1
:1027E0002C4014B10BB1012000E0002030BD01FAF3
:1027F00000F2024B34331A6070470000007400404E
:1028000010B50446FE48844208D101210846FFF76E
:102810004EFB00210120FFF74AFB9DE0B4F1804F01
:1028200008D101210846FFF731FB00210120FFF705
:102830002DFB91E0F348844208D101210220FFF7EB
:1028400025FB00210220FFF721FB85E0EE488442B2
:1028500008D101210420FFF719FB00210420FFF714
:1028600015FB79E0E948844208D101210820FFF7EF
:102870000DFB00210820FFF709FB6DE0E4488442CE
:1028800008D101211020FFF701FB00211020FFF7E4
:10289000FDFA61E0DF48844208D101212020FFF7E2
:1028A000F5FA00212020FFF7F1FA55E0DA488442DA
:1028B00008D101210220FFF7FAFA00210220FFF7D8
:1028C000F6FA49E0D548844209D101210804FFF70E
:1028D000EEFA00214FF48030FFF7E9FA3CE0D048EF
:1028E000844209D101214804FFF7E1FA00214FF4A5
:1028F0000030FFF7DCFA2FE0CA48844209D10121F9
:102900008804FFF7D4FA00214FF48020FFF7CFFAB4
:1029100022E0C548844208D101214020FFF7B6FAE1
:1029200000214020FFF7B2FA16E0C048844208D1E7
:1029300001218020FFF7AAFA00218020FFF7A6FAE4
:102940000AE0BB48844207D101218015FFF79EFAB7
:102950000021A015FFF79AFA10BD00220288A84BAB
:1029600098420ED0AC4B98420BD0B0F1804F08D0BB
:10297000A44B984205D0A44B984202D0A34B984256
:1029800004D14FF68F731A404B881A43A04B9842DC
:1029900007D0A04B984204D04FF6FF431A400B8952
:1029A0001A4302804B68C3620B880385944B98429C
:1029B00002D0994B984201D18B7A038601238382FE
:1029C00070474FF0FF31416000210180018141805B
:1029D000817270470185828270470A460021018812
:1029E0004FF68F7319401143018070474162704761
:1029F000C16270470146486A70470146088D7047BA
:102A000021B1028842F00202028004E002884FF6FF
:102A1000FD731A400280704721B1028842F004021F
:102A2000028004E002884FF6FB731A400280704770
:102A300021B1028842F08002028004E002884FF651
:102A40007F731A400280704702884FF6F7731A406E
:102A5000028002880A430280704702884FF6FF43D3
:102A60001A40028002880A430280704721B102881E
:102A700042F00102028004E002884FF6FE731A4021
:102A80000280704770B5002400220023058C4FF6A9
:102A9000FE7635400584028C8388048B4FF68F7553
:102AA0002C40B51E2C400D882C43751E2A408D8964
:102AB0002A434D882A43524DA84202D0564DA8427F
:102AC00013D14FF6F7752A40CD892A434FF6FB758F
:102AD0002A408D882A434FF6FF652B404FF6FF555D
:102AE0002B400D8A2B434D8A2B43838004838D68B2
:102AF0004563028470BD70B5002400220023058C5C
:102B00004FF6EF7635400584028C8388048B48F6B7
:102B1000FF752C404FF6FF452C400D884FF6FF7691
:102B200006EA05252C434FF6DF752A408D8906EA13
:102B300005152A434D8806EA05152A43304DA8425B
:102B400002D0354DA8421DD14FF67F752A40CD8960
:102B50004FF6FF7606EA05152A434FF6BF752A4061
:102B60008D8806EA05152A434FF6FF352B404FF2B4
:102B7000FF752B400D8A06EA85052B434D8A06EA30
:102B800085052B43838004838D688563028470BD33
:102B900070B5002400220023058C4FF6FF663540F7
:102BA0000584028C8388848B4FF68F752C404FF6FA
:102BB000FC752C400D882C434FF6FF552A408D891B
:102BC0004FF6FF7606EA05252A434D8806EA0525D5
:102BD0002A430B4DA84202D00F4DA84238D14FF2E4
:102BE000FF752A40CD894FF6FF7606EA05252A4370
:102BF0004FF6FF352A408D8806EA05252A4319E05D
:102C0000000001400004004000080040000C0040AB
:102C1000001000400014004000040140004001404A
:102C2000004401400048014000180040001C0040E2
:102C3000002000404EF6FF752B404DF6FF752B40EF
:102C40000D8A06EA05152B434D8A06EA05152B4326
:102C5000838084838D68C563028470BD70B5002253
:102C600000230024058C4EF6FF7635400584038C46
:102C70008488828B48F6FF752A404FF6FF452A402C
:102C80000D884FF6FF7606EA05252A434DF6FF75B7
:102C90002B408D8906EA05352B434D8806EA05351C
:102CA0002B43FE4DA84202D0FD4DA84208D14BF661
:102CB000FF752C400D8A4FF6FF7606EA85152C43EA
:102CC000848082838D680564038470BD0021018047
:102CD0004180818081608181C18101824182704710
:102CE00070B50346002000241846183001258D4099
:102CF000ACB21D8CA5431D8409B108290AD100EB93
:102D0000610005684FF68F7635400560056815430C
:102D100005600FE00D1FC5F34E052844056848F611
:102D2000FF763540056005684FF6FF7606EA022615
:102D30003543056070BD4163704781637047C1636F
:102D40007047016470470A460021018B4FF68F736C
:102D500019401143018370470A460021018B48F650
:102D6000FF7319404FF6FF7303EA022319430183EF
:102D700070470A460021818B4FF68F73194011432B
:102D8000818370470A460021818B48F6FF73194002
:102D90004FF6FF7303EA02231943818370470A4603
:102DA0000021018B4FF6F7731940114301837047DF
:102DB0000A460021018B4FF2FF7319404FF6FF7353
:102DC00003EA02231943018370470A460021818BDD
:102DD0004FF6F77319401143818370470A4600216B
:102DE000818B4FF2FF7319404FF6FF7303EA022302
:102DF0001943818370470A460021018B4FF6FB730C
:102E000019401143018370470A460021018B4FF698
:102E1000FF3319404FF6FF7303EA0223194301837E
:102E200070470A460021818B4FF6FB73194011430E
:102E3000818370470A460021818B4FF6FF3319408A
:102E40004FF6FF7303EA02231943818370470A4652
:102E50000021018B4FF67F731940114301837047A6
:102E60000A460021018BC1F30E014FF6FF7303EAFE
:102E700002231943018370470A460021818B4FF6D4
:102E80007F7319401143818370470A460021818B6B
:102E9000C1F30E014FF6FF7303EA02231943818346
:102EA00070470A460021018C4FF6FD73194011430B
:102EB000018470470A460021018C4FF6F7731940D0
:102EC0001143018470470A460021018C4FF6DF73DD
:102ED00019404FF6FF7303EA021319430184704748
:102EE0000A460021018C4FF67F7319404FF6FF739D
:102EF00003EA02131943018470470A460021018C3A
:102F00004FF6FF5319404FF6FF7303EA02231943AC
:102F1000018470470A460021018C4FF2FF7319406B
:102F20004FF6FF7303EA02231943018470470A46F0
:102F30000021018C4DF6FF7319404FF6FF7303EA31
:102F4000023319430184704730B5002301248C40BB
:102F5000A3B2048C9C430484048C02FA01F5ADB244
:102F60002C43048430BD30B5002304248C40A3B22C
:102F7000048C9C430484048C02FA01F5ADB22C430A
:102F8000048430BD828B4FF2FF331A408283828BE0
:102F90004FF6FF7303EA01231A4382837047F0B5AB
:102FA0000C461546002100220026078C4EF6FF7CB9
:102FB00007EA0C070784818B028C4FF6FF7707EA3C
:102FC000043640F6FF4739404FF6FF7707EA0527FA
:102FD00039434FF6FF7707EA0337394345F6FF7762
:102FE0003A4046F480573A4381830284F0BD828B95
:102FF0004FF6F3731A408283828B0A4382837047B1
:10300000F0B50C461546002100220026078C4FF62D
:10301000FF6C07EA0C070784818B028C4FF6FF7761
:1030200007EA04264FF60C7739404FF6FF7707EA98
:1030300003172F4339434FF2FF573A4046F4807746
:103040003A4381830284F0BD028B4FF2FF331A4072
:103050000283028B4FF6FF7303EA01231A430283B4
:103060007047F0B50C461546002100220026078C5B
:103070004FF6EF7C07EA0C070784018B028C4FF6B2
:10308000FF7707EA041640F6FF4739404FF6FF770F
:1030900007EA033739434FF6FF7703E000000140AA
:1030A0000004014007EA052739434FF65F773A40AD
:1030B00046F010073A4301830284F0BD028B4FF6BD
:1030C000F3731A400283028B0A4302837047F0B500
:1030D0000C46154600210022068C4FF6FE773E4036
:1030E0000684018B028C4FF60C7631407E1C06EA7A
:1030F00003162E4331434FF6F576324044F0010675
:10310000324301830284F0BD70B505460C46208829
:1031100050B92389A28861882846FFF7D8FFE18843
:103120002846FFF7CBFF25E0208804280AD1238911
:10313000A28861882846FFF794FFE1882846FFF7B8
:1031400083FF17E0208808280AD12389A288618894
:103150002846FFF755FFE1882846FFF748FF09E0BA
:103160002389A28861882846FFF719FFE18828464D
:10317000FFF708FF70BD002101804180012181809F
:103180000021C180018170472DE9F04105460C46C0
:1031900000260127608808B9022600E00026A088E2
:1031A000012801D1022700E001272088A0B9238946
:1031B000A28861882846FFF78AFFE1882846FFF742
:1031C0007DFF23893A4631462846FFF74AFFE188CA
:1031D0002846FFF739FF13E02389A2886188284633
:1031E000FFF73FFFE1882846FFF72EFF23893A4685
:1031F00031462846FFF76BFFE1882846FFF75EFF60
:10320000BDE8F0810146486B70470146886B704706
:103210000146C86B70470146086C70470A884B88A6
:103220001A438B881A43CB881A430B891A434B895C
:103230001A438B891A43A0F844207047002101806B
:1032400041808180C180018141818181704731B19C
:10325000B0F8442042F40042A0F8442005E0B0F861
:103260004420C2F30E02A0F84420704721B18288A6
:1032700042F00402828004E082884FF6FB731A4019
:103280008280704721B1828842F00102828004E08E
:1032900082884FF6FE731A40828070471AB1838984
:1032A0000B43838102E083898B4383817047818252
:1032B000704702460020138A0B400BB1012000E04A
:1032C00000207047CA430282704730B50246002092
:1032D00000230024158A05EA0103958905EA010403
:1032E00013B10CB1012000E0002030BDCA430282BE
:1032F000704741EA0203A0F8483070471AB1838949
:103300000B43838102E083898B438381704721B122
:10331000828842F00802828004E082884FF6F773C8
:103320001A408280704701894FF6F872114001817E
:1033300070470A46002101894FF68F7319401143E7
:103340000181704730B504460D4629462046FFF7F7
:10335000F0FF208940F00700208130BD2DE9F041C9
:1033600004460D4616461F46602D06D13B460122F7
:1033700031462046FFF775FE05E03B460122314607
:103380002046FFF7A4FE29462046FFF7D2FF2089FA
:1033900040F007002081BDE8F08130B50C460021E7
:1033A0000189C9B24FF6FF7505EA03251543254388
:1033B0002943018130BD2DE9F04105460E461746EF
:1033C0009846002443463A4631462846FFF7E5FF33
:1033D0002C894FF6F870044044F007044FF68F70C4
:1033E000044044F070042C81BDE8F081F0B504463F
:1033F0000D4616461F463B46324629462046FFF7F5
:10340000CCFF208940F480402081F0BD82884FF6B7
:103410008F731A40828082880A43828070470289B3
:103420004FF6F8731A40028102890A4302817047FD
:1034300002894FF67F731A40028102890A43028192
:103440007047F0B50C4615461E46002100220023A9
:103450000189028B038C4FF6F877394021434FF6F0
:10346000FC473A4040F201173A434FF6DD773B40C4
:103470004FF6FF7707EA06172F433B43018102838C
:103480000384F0BD21B1828842F08002828004E092
:1034900082884FF67F731A4082807047A0F85010E0
:1034A00070477047704770477047704700487047D3
:1034B000240100207546FFF7F9FFAE460500694676
:1034C000534620F00700854618B020B5FEF79AF85D
:1034D000BDE820404FF000064FF000074FF0000815
:1034E0004FF0000B21F00701AC46ACE8C009ACE896
:1034F000C009ACE8C009ACE8C0098D467047044675
:10350000AFF300802046FCF788FE00002DE9C041A3
:1035100030B4DFF8A0C23CEA111418BF3CEA13141F
:1035200000F0EC8081EA03051CEA111444EAD5742A
:1035300018BF1CEA131500F0C780A4EB05044FF078
:10354000004545EAC12145EAC32341EA505143EA17
:10355000525304F17F74994204F500344FEAC020BD
:103560004FEAC22208BF904200F09C804FEA1365E8
:103570000FF24016765D4FEA134506FB05F7C7F1DB
:10358000807706FB07F74FEAD737A7FB0368764239
:10359000C8F58038A7FB06CE38BFA8F1010807FBA5
:1035A00008E64FF0000EA6FB028CE6FB03CEDCF132
:1035B000000CCEF1004E38BFAEF1010EA6FB0C5848
:1035C0004FF000074FF00005E6FB0E87A1FB08C691
:1035D000A0FB07CE16EB0E0645F10005E1FB0765E3
:1035E00015F1E04E7EBFA4F580345FEA46066D41DA
:1035F00016F1800745F100054FEA17274FEA0666E6
:1036000047EA0567A6F1DE46B6F1805F4FEA152569
:103610001FD9384624F0010C05EBC471BCF1FE6FD4
:1036200001EB0C1102D8F0BCBDE8008124425CBF64
:1036300001F5801E9EEAC47F02D4F0BCBDE8008183
:10364000244238D4F0BCA1F1C041BDE8004100F0F3
:103650001DBA4FEAD22242EA43524FEAD323A7FBD4
:1036600002864FEAD02040EA415007FB03661EEA7B
:103670000E0F4FEAD12105FB026658BFA6EB00569C
:10368000B6EB00564FEA520E4EEAC37E18EB0E0E12
:1036900056EB530EBDD518EB02085E417F1C55F169
:1036A0000005B6E74FF480154FF000074FF0000615
:1036B0004FF00008ADE7F0BC4FF0000001F1C04151
:1036C00001F00041BDE8008111EA0C1F0CEA13155E
:1036D00000D00CE013EA0C1F00F025804FF0000032
:1036E000F0BC81EA030101F00041BDE80081F0BCBB
:1036F00081EA0301BDE8004100F0C8B9F0BCBDE8B3
:10370000004170B500F074F9097EFC3E00F007B886
:1037100081EA03014FF0000001F00041704781EAA7
:10372000030100F0B3B9F0BC4FF000002249BDE83E
:1037300000417047FFFDFBF9F7F5F4F2F0EEEDEB19
:10374000E9E8E6E4E3E1E0DEDDDBDAD8D7D5D4D39F
:10375000D1D0CFCDCCCBCAC8C7C6C5C4C2C1C0BFEB
:10376000BEBDBCBBBAB9B8B7B6B5B4B3B2B1B0AFF1
:10377000AEADACABAAA9A8A8A7A6A5A4A3A3A2A1D5
:10378000A09F9F9E9D9C9C9B9A9999989797969590
:1037900095949393929191908F8F8E8E8D8C8C8B2C
:1037A0008B8A8989888887878685858484838382B4
:1037B000828181800000FF070000F87F4FEA41030B
:1037C0004FEA5353A3F58063D3F11E03C8BFD3F16F
:1037D000210C0CDD4FF0004242EAC12242EA505275
:1037E00032FA03FC8CEAE17CACEBE1707047102B01
:1037F000C4BF0020704703F5787CBCF1FF3F04D0C4
:103800006FF0004282EA2100704770B500F0F0F8D6
:103810004992248000207047F2E700004FEA1153DC
:10382000A3F58063D3F11E03A8BFD3F1200C08DBFE
:103830004FF0004242EAC12252EA505232FA03F0FB
:10384000704709420BD4102BC4BF0020704703F50A
:10385000787CBCF1FF3F05D04FF0FF3070474FF050
:103860000000704770B500F0C3F800BF4992248093
:1038700000207047F0E7B0FA80F310FA03F10AD0A5
:10388000C3F11D0303F580634FEA41504FEA035231
:1038900002EBD12170474FF000007047DFF848C1BC
:1038A00070B51CEA111E1EBF1CEA13159EEA0C0F10
:1038B00095EA0C0F00F06F8081EA030423EA4C13B1
:1038C0004EEAD47E21EA4C1141F4801143F4801376
:1038D000AE44A1FB024CA0FB0365AEF17F7E36191E
:1038E00055EB0C05A1FB034C4CF10003A0FB021CA3
:1038F00016EB0C06654153F10003094218BF46F070
:10390000010613F4007F0BD14FEA03314FEA053073
:10391000340341EA155140EA16506FF003020AE001
:103920004FEAC3214FEAC520F40241EA555140EA6B
:1039300056506FF0020202EB2E4201EB025585EA6F
:10394000CE710AD05FEA440C18BF24F0004450F155
:10395000000041F1000120EAD47040F2FE7C624593
:1039600000D270BDA84214BF4FF080444FF04044D5
:10397000002E08BF0024BEF1806FA8BFA1F1C04196
:10398000BDE8704080F282804FF0000001F1C0413C
:1039900001F0004170479EEA0C0F0CEA131518BFA6
:1039A00095EA0C0F06D04FF0000081EA030E0EF0EE
:1039B000004170BD00F01CF88900013E00F007B81E
:1039C00000F009B84FEA430C5FEA5C5C08D081EA7A
:1039D000030100F05BB84FEA410C5FEA5C5CF6D192
:1039E0004FF00000014970470000FF070000F87F1A
:1039F0000EF1020E2EF0030E5EF8046B364205D473
:103A0000012A43EB030515F5001F12D8012841EBED
:103A1000010C1CF5001F0CD80ED14FEAD17C15F516
:103A2000001F0CEB4C0C0CF1020C08BF4CEBD37CD0
:103A300004E04FF0080C01E04FEAD37C0CEB4C059E
:103A400026FA05F606F00706B6F1040C06D20EEBD0
:103A5000860CBDE870404CF0010C6047DFE80CF0CC
:103A6000090B02024FF000414FF00000A1F50021C8
:103A700070BD19461046012851EB010418BFD4F55A
:103A8000001484BF002001F0004170BD0808A0F5BB
:103A900000114FEA3101704743004FEAD30C4FEA5F
:103AA0003C0C43401FBF40070CF1605113F0FE4F28
:103AB00070471CF0006F03D100200CF000417047EC
:103AC0000CF0004343EA507010B540EACC0000F01F
:103AD0000EF800BF000000924FEA0001FFF7D6BFCA
:103AE0004FF000414FF00000A1F5002170470EF1AA
:103AF000020E2EF0030E5EF8044B244204D44FEA6B
:103B00004102B2F17F4F11D84FEA4003B3F17F4F2A
:103B10000CD80ED14FEAD07CB2F17F4F0CEB4C0C9D
:103B20000CF1020C08BF4CEBD17C04E04FF0080C08
:103B300001E04FEAD17C0CEB4C0324FA03F404F0CF
:103B40000704B4F1040C06D20EEB840CBDE810405F
:103B50004CF0010C6047DFE80CF0070802024FF060
:103B60000040A0F5800010BD0846420018BFD2F109
:103B7000807288BF00F0004010BD4FF04070E1EE51
:103B8000100A7047A43B0008000000205C00000001
:103B9000C4010008003C00085C0000202C07000065
:103BA000E0010008007A030A0000000000000000A5
:103BB00001020304060708090000000000000000DD
:103BC00000000000010000000103020304020302E0
:103BD00004040404040404040404040404040404A5
:103BE00004000000000000000000000000000000D1
:103BF0000000010203040102030406070809000093
:040000050800018965
:00000001FF
