:020000040800F2
:10000000589101209D010008ED130008650F0008BC
:10001000E913000809090008AD1F000800000000EE
:100020000000000000000000000000000D160008A5
:100030008D0E00080000000069140008C5170008B4
:10004000B7010008B7010008B7010008B7010008B0
:10005000B7010008B7010008B7010008B7010008A0
:10006000B7010008B7010008B7010008B701000890
:10007000B7010008B7010008B7010008B701000880
:10008000C10B0008010C0008B7010008B701000807
:10009000B7010008B7010008B7010008B701000860
:1000A000B7010008B7010008B7010008B701000850
:1000B000B7010008B7010008B7010008B701000840
:1000C000B7010008B7010008B7010008B701000830
:1000D000B7010008DD1B0008ED1B0008FD1B000830
:1000E000B7010008B7010008B7010008B701000810
:1000F000B7010008B7010008B7010008B701000800
:10010000B7010008B7010008B9180008B7010008D6
:10011000B7010008B7010008B7010008B7010008DF
:10012000450C0008B7010008B7010008B701000836
:10013000B7010008B7010008B7010008B7010008BF
:10014000B7010008B7010008B7010008B7010008AF
:10015000B7010008B7010008B70100080D1C00082E
:10016000B7010008B7010008B7010008B70100088F
:10017000B7010008B7010008B7010008B70100087F
:10018000B7010008B7010008DFF80CD000F016F93D
:1001900000480047C92600085891012006488047BA
:1001A00006480047FEE7FEE7FEE7FEE7FEE7FEE75C
:1001B000FEE7FEE7FEE7FEE75118000889010008A8
:1001C000DFED190AB5EEC00A60EE200ABDEEE01AB6
:1001D00011EE100AF1EE10FA38BF401E00EE100AC0
:1001E0001349F7EE001AB8EEC00A30EEC00ADFED90
:1001F0000F0A60EE200ABCEEE00A10EE100AC0F30F
:10020000080000EE100A01EB8000B8EE400A90ED05
:10021000011A70EEC00A90ED000A71EEE01A21EEAC
:10022000800A00EE810A704783F9223E00000044F4
:10023000AC2A00082DE9F001D0E90145D0F80070A2
:1002400094469E0895ED005A95ED013AD5ED025A77
:10025000D5ED034A95ED044AD4ED000AD4ED011A18
:1002600094ED020A94ED031A143530003ED000BF1D
:10027000D1ED002A401E65EE223A43EE203A45EECB
:10028000A13A44EE803A44EE013ACCED003A91EDC9
:10029000016A25EE062A03EE222A05EEA02A04EEC4
:1002A000A32A04EE002A8CED012AD1ED021A25EED4
:1002B000211A03EE061A05EEA21A04EE821A04EEC3
:1002C000231A8CED021AD1ED030A01F1100125EE7B
:1002D000200A03EE210A05EE860A04EE810A04EEE6
:1002E000020A8CED030A0CF1100CC1D113F00300CB
:1002F0001CD0B0F1004F2AD2002817DDF1EC012A02
:10030000401E25EE222A03EE202A05EEA12AF0EE59
:10031000601AF0EE620A04EE802A04EE012AB0EEC2
:10032000401AACEC012AB0EE420AE7D1C4ED000A53
:10033000C4ED011A84ED020A84ED031A103411464B
:1003400094467F1E7FF47EAFBDE8F0017047B1ECAC
:10035000012A401E65EE022A43EE202A45EEA12A1C
:10036000F0EE601AF0EE420A44EE802A44EE012AD2
:10037000B0EE401AECEC012AB0EE620AE7D1D5E704
:1003800070B58260016004461D460901184600F000
:1003900009F8656070BDD2B201E000F8012B491E7A
:1003A000FBD270470022F6E710B513460A46044612
:1003B0001946FFF7F0FF204610BD0000064C074D20
:1003C00006E0E06840F0010394E807009847103425
:1003D000AC42F6D3FFF7DCFEB0320008D0320008A2
:1003E00021B1826842F00102826003E0826822F05B
:1003F00001028260704700000021084A1168084A23
:100400001140D0E900231A4383681A43C3681A4392
:100410001143044AC2F8041370470000042301404A
:10042000E030FCFF0020014010B59CB004460121E3
:10043000880501F01BF80121042001F017F80121C3
:10044000080201F033F838208DF8000000208DF804
:10045000010001208DF802008DF80300684600F0CD
:10046000C7FF0020039036480490364805900020CE
:100470000690079408904FF48060099040000A901D
:1004800080000B9040110C9040020D9000200E90C7
:1004900001200F9000201090119003A92A4800F02D
:1004A000C9FC0121284800F0EFFB01221821264851
:1004B00000F0A2FC0220019003208DF8080000202B
:1004C0008DF80B0001A9214800F0E1FC00201290FA
:1004D0004FF48030139000201490159012A8FFF76D
:1004E0008BFF002016908DF85C008DF85D004FF0BA
:1004F000805018904FF04070199000201A90012001
:100500008DF86C0016A90E484C3800F037F801231E
:100510001A460B210A484C3800F05AF801210848C5
:100520004C3800F020F8012105484C3800F010F854
:10053000012103484C38FFF753FF1CB010BD0000E9
:100540004C20014094290120106402400008024020
:1005500021B1826842F48072826003E0826822F4F2
:1005600080728260704721B1826842F400728260BA
:1005700003E0826822F400728260704730B5024660
:10058000002000235068104C20400D790C6844EA8C
:1005900005242043506090680C4C2040D1E903545E
:1005A0002C438D682C434D7944EA450420439060E8
:1005B000D06A20F470000C7D641EE4B2234340EA4C
:1005C0000350D06230BD0000FFFEFFFCFDF7FFC00E
:1005D000F0B504460D4600200021092D11DDE0682C
:1005E000A5F10A0606EB4607072606FA07F1884337
:1005F000A5F10A0606EB460603FA06F10843E06099
:100600000CE0206905EB4507072606FA07F1884349
:1006100005EB450603FA06F108432061072A0FDAC5
:10062000606B561E06EB86071F2606FA07F1884305
:10063000561E06EB860605FA06F10843606322E0C3
:100640000D2A0FDA206BD61F06EB86071F2606FA47
:1006500007F18843D61F06EB860605FA06F1084324
:10066000206310E0E06AA2F10D0606EB86071F2664
:1006700006FA07F18843A2F10D0606EB860605FA95
:1006800006F10843E062F0BD2DE9F04F85B0054664
:100690000E461746002100220120049000200390FE
:1006A0008146029001905888014498880244012FA5
:1006B00004D14FF0000C4FF47A6809E0022F04D106
:1006C0004FF47A6C4FF4FA5802E005B0BDE8F08FB1
:1006D0006446FDE00498002877D0012870D135F8F1
:1006E0001400B0426ED2491C03296DD90020049039
:1006F00002F150004FF0A00AB0FBFAF003905878D6
:1007000001285AD1002013E0D3F808A08244BAF19E
:10071000640F03D94FF0000AC3F808A04FF0010A94
:10072000D3F808B08344DFF8DCE10EF80BA0401CDE
:10073000DDF80CA05045E7D3D3F808B0DDF80CA0E5
:10074000DA44C3F808A0D3F808A0BAF1110F33D3E4
:100750004FF0000BCDF800B0DA46002021E04FEA60
:100760004A0ADFF8A0B11BF800B0BBF1000F01D1BD
:100770004AF0010ADDF800B00BF1010BCDF800B032
:10078000DDF800B0BBF1080F0AD34FF0000BCDF835
:1007900000B003F10C0E0EEBD00E8EF800A0DA467E
:1007A000401CD3F808B0ABF1010B8345D7D84FF00C
:1007B000000BC3F808B000BF00BF002204E004E053
:1007C00083E0FFE70021521C80E035F81400B042BE
:1007D00078D3521C032A77D90120049001F15000EC
:1007E0004FF0A00AB0FBFAF900200146B9F1080F5A
:1007F00007D18146012002905870DC80002098606B
:1008000062E04FF0000ACDF808A093F801A0BAF119
:10081000010F55D1002013E0D3F808A08244BAF1AB
:10082000640F03D94FF0000AC3F808A04FF0000A84
:10083000D3F808B08344DFF8CCE00EF80BA0401CDE
:100840004845E9D3D3F808A0CA44C3F808A0D3F8B0
:1008500008A0BAF1110F33D34FF0000BCDF800B060
:10086000DA46002021E04FEA4A0ADFF898B01BF888
:1008700000B0BBF1000F01D14AF0010ADDF800B071
:100880000BF1010BCDF800B0DDF800B0BBF1080FA3
:100890000AD34FF0000BCDF800B003F10C0E0EEBB5
:1008A000D00E8EF800A0DA46401CD3F808B0ABF1A9
:1008B000010B8345D7D84FF0000BC3F808B000BF39
:1008C00002E0FFE70022491C00E000BF00BF641CFB
:1008D0004445FFF4FFAEB1F57A6F05D94FF47A6164
:1008E00000209860D8601861B2F57A6F05D94FF48E
:1008F0007A6200209860D860186159809A8000BFA1
:10090000E3E600006C05012000BFFEE708B52520E6
:100910008DF8000000208DF8020001208DF8030002
:10092000684600F065FD26208DF8000001208DF856
:1009300002008DF80300684600F05AFD27208DF86C
:10094000000002208DF8020001208DF803006846A7
:1009500000F04EFD47208DF8000005208DF80200C4
:1009600001208DF80300684600F042FD08BD00003C
:1009700030B597B005460C460121480500F076FDDC
:100980000121084600F072FD0121480700F07EFDBC
:100990001020019003208DF8080000208DF80B0036
:1009A00001A9294800F073FA00F0D6FF0420039053
:1009B00000200490069003A900F0E8F810208DF8BC
:1009C0001C0000208DF81D0001208DF81E008DF800
:1009D0001F0007A800F00CFD1C4800F061F94FF063
:1009E000606008901A4809900A950C94C0140F9002
:1009F0008000109040200B9000200D904FF48060FC
:100A00000E9080101190400212900020139001204F
:100A1000149000201590169008A90C4800F00AFACE
:100A200001210A4800F030F901221821074800F09E
:100A3000E3F90121002000F07FF80121002000F0FF
:100A40008FF817B030BD00000000024088600240FF
:100A50000874004030B597B005460C4601214805A2
:100A600000F004FD0121084600F000FD01214807C7
:100A700000F00CFD00F070FF2020019003208DF8A5
:100A8000080000208DF80B0001A9284800F0FFF9AC
:100A90000420039000200490069003A9102000F089
:100AA00075F811208DF81C0000208DF81D00012024
:100AB0008DF81E008DF81F0007A800F099FC1C4857
:100AC00000F0EEF84FF0606008901A4809900A951F
:100AD00040200B900C9400200D904FF480600E90FD
:100AE00040000F9080001090401111904002129031
:100AF000002013900120149000201590169008A952
:100B00000B4800F097F90121094800F0BDF80122D7
:100B10001821074800F070F90121102000F00CF8AE
:100B20000121102000F01CF817B030BD0000024079
:100B3000A06002401474004039B1084A12680123D1
:100B400083401A43054B1A6006E0044A12680123E9
:100B500083409A43014B1A607047000000740040C4
:100B600041B1094A12684FF4805383401A43064B3F
:100B70001A6007E0044A12684FF4805383409A4396
:100B8000014B1A60704700000074004030B500222D
:100B900000230A4C226840F6FE748440A243D1E947
:100BA00000452C438D682C43CD6844EA050303FAC5
:100BB00000F42243014C226030BD0000007400406C
:100BC0000B4840680B49084030B1C8140849C86058
:100BD0000120094908700AE00548406807490840B3
:100BE00028B102200449087080020149C86070479A
:100BF00000600240004400204D00002000880020DA
:100C00000C4840680C49084038B14FF4801009493D
:100C1000C8600120094908700AE006484068084990
:100C2000084028B102200549087000050149C86044
:100C30007047000000600240004010204C0000207F
:100C4000008020200C4800680C49084038B1102072
:100C50000949083108600120094908700BE006487D
:100C600000680849084030B102200549087020207A
:100C700001490831086070470064024010400010CC
:100C80004B0000202080001021B1026842F00102D8
:100C9000026003E0026822F0010202607047000077
:100CA000016821F001010160002101604160816063
:100CB000C1600161212141614A49884204D13D213D
:100CC000484A103A91608CE046491831884205D173
:100CD0004FF47461434A103A916082E041493031E7
:100CE000884205D14FF474113E4A103A916078E081
:100CF0003C494831884205D14FF07461394A103A75
:100D000091606EE037496031884204D13649354AF6
:100D1000103AD16065E033497831884204D13349D3
:100D2000304A103AD1605CE02E499031884204D1BB
:100D30002F492C4A103AD16053E02A49A831884201
:100D400005D14FF03D51274A103AD16049E0294979
:100D5000884204D13D21274A083A116041E02549E3
:100D60001831884205D14FF47461224A083A116063
:100D700037E020493031884205D14FF474111D4AC3
:100D8000083A11602DE01B494831884205D14FF0E7
:100D90007461184A083A116023E0164960318842AC
:100DA00004D11149134A121F11601AE01149783118
:100DB000884204D10D490F4A121F116011E00D49FC
:100DC0009031884204D10A490A4A121F116008E092
:100DD0000849A831884204D14FF03D51054A121FFD
:100DE00011607047106002403D000020400F00205D
:100DF00000003D201064024010B501F080034BB1AB
:100E000022B1436943F08003436103E0436923F067
:100E10008003436180290BD02AB1036801F01E04CE
:100E20002343036004E0036801F01E04A34303604E
:100E300010BD000010B500220268134B1A40CC68A8
:100E40000B6823434C6923438C692343CC692343B8
:100E50000C6A23434C6A23438C6A23434C6B234321
:100E60008C6B23431A430260426922F00702D1E9E6
:100E70000B3423431A4342610B6943604B68836020
:100E80008B68C36010BD00003F801CF07047F0B558
:100E90000A4600210023002400BF3DE0012505FA99
:100EA00001F3156805EA03049C4234D105684F003C
:100EB0000326BE40B543056015794E00B54006686F
:100EC000354305601579012D02D01579022D16D113
:100ED00085684F000326BE40B543856055794E00B6
:100EE000B540866835438560456801268E40B54328
:100EF0004560456896798E40B6B235434560C56811
:100F00004F000326BE40B543C560D5794E00B540BD
:100F1000C6683543C560491C1029BFD3F0BDF0B584
:100F2000002300244D07ED0E02FA05F3CE1000F168
:100F3000200555F826504E07F70E0F26BE40B54344
:100F4000CF1000F1200646F82750CE1000F1200502
:100F500055F8265045EA0304CE1000F1200545F867
:100F60002640F0BD09A100200BE00A5C124B9A80DC
:100F700000BF114A128802F04002002AF9D0421C38
:100F8000D0B22A28F1D300BFFEE700000D0A456E5B
:100F900074657220486172644661756C745F486163
:100FA0006E646C65722C2053797374656D20486192
:100FB0006C742E0D0A0000000010014000B587B0CF
:100FC0000121084600F052FA0121102000F06EFACB
:100FD00007220921AB48FFF7A2FF07220A21A948EF
:100FE000FFF79DFF00208DF81A0001208DF81B00EF
:100FF00002208DF818000002059002208DF81900DB
:1010000005A9A048FFF743FF02208DF81800400211
:10101000059005A99B48FFF73AFF4FF4E130019096
:101020000020ADF80800ADF80A00ADF80C00ADF8EE
:1010300010000C20ADF80E0001A9934800F052FEFC
:10104000012240F22551904800F027FE01218E48F0
:1010500000F0EDFD40218C4800F0E0FD0121084644
:1010600000F004FA0121480400F010FA07220321DD
:101070008448FFF754FF00208DF81A0001208DF8F6
:101080001B0002208DF818008DF81800082005902C
:1010900002208DF8190005A97A48FFF7F8FE4FF4F1
:1010A000165001900020ADF80800ADF80A00ADF828
:1010B0000C00ADF810000420ADF80E0001A9734833
:1010C00000F010FE012240F22551704800F0E5FDCD
:1010D00001216E4800F0ABFD40216C4800F09EFD00
:1010E0000121022000F0C2F901208DF81800002033
:1010F0008DF81A008DF81B0003208DF819000420CC
:10110000059005A96248FFF7C2FE0121022000F008
:10111000ADF90121880400F0B9F907220A215C48E1
:10112000FFF7FDFE07220B215948FFF7F8FE0020CC
:101130008DF81A0001208DF81B0002208DF8180090
:101140004002059002208DF8190005A95048FFF7CC
:101150009EFE02208DF818008002059005A94C48DB
:10116000FFF795FE4FF4165001900020ADF80800EF
:10117000ADF80A00ADF80C00ADF810000C20ADF889
:101180000E0001A9434800F0ADFD012240F22551B7
:10119000404800F082FD01213E4800F048FD40211A
:1011A0003C4800F03BFD0121442000F05FF90121A3
:1011B000202000F07BF908220E213748FFF7AFFE10
:1011C000082207213548FFF7AAFE082211463248B7
:1011D000FFF7A5FE08220F212F48FFF7A0FE0020F1
:1011E0008DF81A0001208DF81B0002208DF81800E0
:1011F0004003059002208DF8190005A92648FFF745
:1012000046FE02208DF818008020059005A923488D
:10121000FFF73DFE02208DF81800C001059005A9DA
:101220001D48FFF734FE02208DF81800800305905A
:1012300005A91948FFF72BFE4FF4E130019000207B
:10124000ADF80800ADF80A00ADF80C004FF440709E
:10125000ADF810000C20ADF80E0001A9104800F008
:1012600041FD012240F225510D4800F016FD0121FB
:101270000B4800F0DCFC4021094800F0CFFC07B02F
:1012800000BD00000000024000100140004400408A
:1012900000040240004800400018024000080240DC
:1012A000001401400448006900F4807008B901206E
:1012B00070470020FCE700000020024010B5FFF757
:1012C000F1FF20B100F006F808B1012010BD0020A8
:1012D000FCE700000448006800F4005008B9012051
:1012E00070470020FCE70000100802400448006935
:1012F00000F4006008B9012070470020FCE70000FE
:10130000002002400448006800F0040008B90120F1
:1013100070470020FCE70000101C024004480068F1
:1013200000F0080008B9012070470020FCE7000029
:10133000101C02400448006800F4006008B9012055
:1013400070470020FCE700001014024004480068C9
:1013500000F0800008B9012070470020FCE7000081
:10136000101802400448006800F4004008B9012049
:1013700070470020FCE70000101C024010B5FFF78A
:1013800091FF20B1FFF7A6FF08B1012010BD00209A
:10139000FCE7000070B504460D48D0F808010D497F
:1013A000B1FBF0F50C4A2946042001F017F9084872
:1013B00090F8800080280ADA054890F8801090F8AC
:1013C0008000401C024A82F880001046445470BDE0
:1013D00004280120C00E1602DD1300080120014977
:1013E000087070474A00002000BFFEE77047000009
:1013F00070B5002100230F22C4781CB3174C246859
:1014000004F4E064C4F5E064C4F30721C1F104040A
:10141000E3B20A4144789C40E1B28478144021430D
:101420000C07210E0E4C05786155047804F01F0559
:101430000124AC4005786D11AD0005F1E025C5F83B
:10144000004109E0047804F01F050124AC40054D7B
:101450000678761145F8264070BD00000CED00E0DE
:1014600000E400E080E100E07047000029B1064A96
:1014700012680243044B1A6004E0034A1268824374
:10148000014B1A60704700003038024029B1064A0B
:1014900012680243044B1A6004E0034A1268824354
:1014A000014B1A60704700004038024029B1064ADB
:1014B00012680243044B1A6004E0034A1268824334
:1014C000014B1A607047000044380240F0B500211B
:1014D00000220024022500260223324F3F6807F035
:1014E0000C0121B1042905D0082937D105E02E4F80
:1014F000076036E02D4F076033E02A4F3F1F3F68FB
:10150000C7F38056274F3F1F3F6807F03F036EB178
:10151000264FB7FBF3F7DFF88CC0ACF1040CDCF816
:1015200000C0CCF3881C07FB0CF40CE01E4FB7FB8B
:10153000F3F7DFF870C0ACF1040CDCF800C0CCF3BA
:10154000881C07FB0CF4174F3F1F3F68C7F3014788
:101550007F1C7D00B4FBF5F7076002E0124F0760C7
:1015600000BF00BF0F4F3F6807F0F0010909104F9F
:101570007A5C0768D74047600A4F3F6807F4E0513C
:10158000890A0B4F7A5C4768D7408760054F3F68F0
:1015900007F46041490B064F7A5C4768D740C76043
:1015A000F0BD0000083802400024F400001BB70022
:1015B0004E0000201CB501210220FFF757FF01203B
:1015C0008DF8040000208DF806008DF80700032038
:1015D0008DF805000420009069460248FFF757FC8B
:1015E0001CBD00000004024010B504462046FFF771
:1015F000D1FE10BD04200149088070471804024044
:1016000004200149088070471A0402407047000016
:10161000F0B502464FF080730024002006E02B4D09
:1016200035F810502A4E26F81050401CA028F6DB42
:101630000024012147E05B1014BB02EA03057DB1E1
:10164000002009E0234D35F81050A02606FB0106C6
:101650001F4F27F81650401CA028F3DBB42431E0BC
:10166000002009E0194D35F81050A02606FB0106B0
:10167000174F27F81650401CA028F3DB002421E068
:1016800002EA03057DB1002009E0104D35F8105045
:10169000A02606FB01060E4F27F81650401CA02876
:1016A000F3DB00240EE0002009E00A4D35F810506D
:1016B000A02606FB0106064F27F81650401CA0285E
:1016C000F3DBB424491C1929B5DBF0BD9469012072
:1016D000146C0120D46A01200CB500200190009008
:1016E0003448006840F480303249086000BF314817
:1016F000006800F4003000900198401C01900098B0
:1017000018B90198B0F5A04FF1D12A48006800F44B
:10171000003010B10120009001E0002000900098FE
:10172000012846D123484030006840F080502149CC
:10173000403108602048006840F440401E4908607D
:101740001C48083000681B490831086008460068DA
:1017500040F4004008600846006840F4A05008606B
:101760001648091F0860081F006840F08070091FB4
:10177000086000BF0F48006800F000700028F9D032
:1017800040F205700E4908600A480830006820F0F1
:1017900003000849083108600846006840F002006C
:1017A000086000BF03480830006800F00C000828FB
:1017B000F8D10CBD00380240007000400C544007C6
:1017C000003C024010B500F001F810BD10B51B48F8
:1017D000006840B119480068401E1849086010B9F7
:1017E000012017490870002408E004EB4401154A61
:1017F00002EB810000F08FFE601CC4B2042CF4DB0D
:1018000011480068401C10490860084600686FF0E5
:101810000041884202D100200B49086000F07AFEA6
:101820000A480078401CC0B2084908700A2803DB47
:101830000020087000F06AFE10BD00002C0000209F
:101840003000002034070120340000204800002030
:1018500010B51548006840F470001349086013483B
:10186000006840F001001149086000200F4908316C
:1018700008600E4800680E4908400C4908600D4891
:10188000091D0860081F006820F48020091F0860F7
:10189000002006490C310860FFF71EFF4FF0006082
:1018A00001498039086010BD88ED00E00038024031
:1018B000FFFFF6FE1030002410B50221214800F091
:1018C0008EF858B102211F4800F068F8002202216A
:1018D0001C4800F095F81C4800688047042119480E
:1018E00000F07DF858B10421164800F057F80022A6
:1018F0000421144800F084F8144800688047082147
:10190000104800F06CF858B108210E4800F046F875
:10191000002208210B4800F073F80D48006880474A
:101920001021084800F05BF858B11021054800F07C
:1019300035F800221021034800F062F805480068DD
:10194000804710BD000C0040380000203C00002003
:1019500040000020440000200EB501211020FFF7B8
:1019600095FD684600F0FCF840F2A31001900020BD
:10197000ADF80000ADF80800ADF802006946064871
:1019800000F0ACF82021044800F096F8012102484C
:1019900000F007F80EBD000000100040CA430282AC
:1019A000704721B1028842F00102028004E00288FF
:1019B0004FF6FE731A400280704731B1B0F84420F0
:1019C00042F40042A0F8442005E0B0F84420C2F3FD
:1019D0000E02A0F8442070470146486A704730B5AF
:1019E0000246002000230024158A05EA0103958998
:1019F00005EA010413B10CB1012000E0002030BD64
:101A00001AB183890B43838102E083898B438381ED
:101A10007047000070B5002400220023058C4FF6AB
:101A2000EF7635400584028C8388048B48F6FF7579
:101A30002C404FF6FF452C400D884FF6FF7606EA06
:101A400005252C434FF6DF752A408D8906EA0515DA
:101A50002A434D8806EA05152A43154DA84202D0AF
:101A6000144DA8421DD14FF67F752A40CD894FF6FF
:101A7000FF7606EA05152A434FF6BF752A408D8882
:101A800006EA05152A434FF6FF352B404FF2FF7546
:101A90002B400D8A06EA85052B434D8A06EA85050B
:101AA0002B43838004838D688563028470BD0000AE
:101AB000000001400004014082884FF68F731A40F5
:101AC000828082880A4382807047416370478163C5
:101AD0007047C163704701647047000000220288AC
:101AE000184B98420ED0184B98420BD0B0F1804F53
:101AF00008D0164B984205D0154B984202D0154B92
:101B0000984204D14FF68F731A404B881A43124BF8
:101B1000984207D0114B984204D04FF6FF431A4029
:101B20000B891A4302804B68C3620B880385054BFF
:101B3000984202D0044B984201D18B7A038601234C
:101B4000838270470000014000040140000400400F
:101B500000080040000C004000100040001400404D
:101B60004FF0FF314160002101800181418081728D
:101B7000704700B589B001210420FFF777FC0121EF
:101B80000846FFF783FC06A8FFF7EAFF0920079045
:101B90002920ADF818000020ADF82000ADF81A009B
:101BA00006A94FF08040FFF799FF6020ADF80400D0
:101BB0000120ADF80600052003900220ADF81000CA
:101BC00001A94007FFF726FF01218807FFF7F5FE6F
:101BD00001218807FFF7E5FE09B000BD10B50248F6
:101BE00000F0F3F810BD00006407012010B50248B2
:101BF00000F0EBF810BD00008C0F012010B502487A
:101C000000F0E3F810BD0000B417012010B5024841
:101C100000F0DBF810BD0000DC1F012001F40072B1
:101C2000B2F5007F00D100BFCA430280704721B1E6
:101C3000828942F40052828104E082894DF6FF736A
:101C40001A408281704770B50246002400230025A7
:101C5000002040F66A16B14200D100BFC1F3421520
:101C600001F01F03012606FA03F3012D02D1968924
:101C7000334006E0022D02D1168A334001E0968AF5
:101C800033400C12012606FA04F41688344013B1CE
:101C90000CB1012000E0002070BDF0B50346002427
:101CA00000260025002040F66A17B94200D100BF87
:101CB0001846C1F3421401F01F06012707FA06F582
:101CC000012C01D10C3004E0022C01D1103000E0D5
:101CD00014301AB107682F43076002E00768AF436A
:101CE0000760F0BD2DE9FF4705460E460024A146DA
:101CF00000BFA046B08900B100BF2C8A24F4405434
:101D0000F08804432C82AC8941F20C608443B08893
:101D100031890843718908430443AC81AC8A24F4B7
:101D20004074B0890443AC826846FFF7CFFB20487B
:101D3000854202D01F48854202D1DDF80C9001E0B7
:101D4000DDF80890A88900F4004040B109EBC90013
:101D500000EB091031684900B0FBF1F707E009EB2F
:101D6000C90000EB091031688900B0FBF1F764206D
:101D7000B7FBF0F004012009642101FB1078A88969
:101D800000F4004040B1322000EBC800B0FBF1F09D
:101D900000F00700044308E0322000EB0810642143
:101DA000B0FBF1F000F00F0004432C81BDE8FF8789
:101DB000001001400014014001468888C0F308006B
:101DC0007047C1F308028280704770B5044640F244
:101DD00025512068FFF737FFE0B12068FFF7ECFFDF
:101DE000C5B2E18AA0684554E08A401C80B2E08216
:101DF000E189884201DB0020E082608BE189884232
:101E000002DA608B401C6083606A10B12846616A08
:101E1000884700BF40F227712068FFF714FF08B31E
:101E2000A08A60B9002240F227712068FFF735FFD1
:101E3000012240F226612068FFF72FFF37E0638A16
:101E40006268D15C2068FFF7BCFF608A401C80B2EA
:101E50006082A189884201DB00206082A08A401E46
:101E6000A08224E040F226612068FFF7ECFEF0B18A
:101E7000A08A50B9002240F226612068FFF70DFFCA
:101E8000206AA0B1206A804711E0638A6268D15C51
:101E90002068FFF796FF608A401C80B26082A189AB
:101EA000884201DB00206082A08A401EA08270BDB3
:101EB0002B482C4908602C4848602C4888604FF417
:101EC00080608881C881002008824882C882088397
:101ED00048838882C86108624862254825490860AD
:101EE000254848602548886001208881C002C88153
:101EF000002008824882C882088348838882C8619B
:101F0000086248621E481F4908601F4848601F4811
:101F100088604FF480608881C881002008824882F0
:101F2000C8820883488388821948C86119480862B2
:101F30001948486219481A4908601A4848601A48FE
:101F400088604FF480608881C881002008824882C0
:101F5000C882088348838882C861086248627047E3
:101F600000100140640701208C0701208C0B012028
:101F7000004400408C0F012049000020B40F0120D4
:101F800000480040B4170120DC170120DC1B0120B1
:101F9000F515000801160008E915000800140140B5
:101FA000DC1F0120042001200424012000BFFEE7E3
:101FB0000FB4054B10B503A9044A029800F01AF8B3
:101FC00010BC5DF814FB0000A5260008740000207A
:101FD00002E008C8121F08C1002AFAD170477047F2
:101FE000002001E001C1121F002AFBD1704780F3DD
:101FF000108870472DE9F84F994692468846054665
:10200000002706E025280AD051464A4690476D1C15
:102010007F1C28780028F5D13846BDE8F88F0023CA
:1020200015F8011F18462E2915D115F8011F042394
:102030002A290DD06FF02F022978A1F13004092C44
:1020400009D800EB800002EB400008446D1CF3E768
:1020500058F8040B6D1C2A78002ADDD0632A07D0BB
:10206000732A0FD0104651464A4690477F1C2AE0FB
:1020700018F8042B8DF8002000218DF801106E4611
:10208000012103E058F8046B4FF0FF315A074FF07D
:10209000000401D409E0641C84420BDA8C42FADBB0
:1020A000325D002AF7D105E0641C8C42FCDB305D18
:1020B0000028F9D1274404E016F8010B51464A469E
:1020C0009047641EF8D26D1CA3E7000070B504466B
:1020D0000D4616460948007840B9012007490870A6
:1020E000074B084A06210848FEF74AF933462A46B4
:1020F00021460548FEF79EF870BD00002100002033
:1021000078010020FC2900087806012070B50546FA
:10211000304800EB05142068804700283ED0207925
:10212000052802DA0520207152E020790A2803DA16
:102130002079401C20714BE0A07A38B90120A072B0
:1021400005EB4501491CC8B200F0D0F920890028F0
:102150003EDDE088218988420DDAE088401C80B2AB
:10216000E0802189884233D105EB4501C91CC8B202
:1021700000F0BCF92CE0E07A002829DD207B401C2F
:10218000C0B22073E17A884222DB0020207305EB85
:102190004501491CC8B200F0A9F919E020790528C9
:1021A00002DD0520207110E0207918B12079401E51
:1021B00020710AE0A07A012807D10020A07205EB67
:1021C0004501891CC8B200F091F90020E08020731D
:1021D00070BD00008406012010B500F051F900F038
:1021E00005F800F001F900F0C1F810BD10B500F0DD
:1021F00053F800F001F810BD1CB501214FF4F27046
:10220000FFF734F900208DF804008DF806008DF8F2
:10221000070002208DF80500C001009069461948AA
:10222000FEF735FE4FF40050009069461648FEF761
:102230002EFE4FF40060009069461248FEF727FE1C
:102240000420009069461148FEF721FE0820009006
:1022500069460E48FEF71BFE4FF400600090694689
:102260000B48FEF714FE8020009069460948FEF7EF
:102270000EFE4FF40040009069460448FEF707FE4A
:102280001CBD00000020024000080240001C02406B
:1022900000140240001802400021284A9172D172B5
:1022A0001173002018E06421254A02EB001211810D
:1022B0000221234A02EB001211710021204A02EB95
:1022C000001291721E4A02EB0012D1721C4A02EBFC
:1022D00000121173411CC8B20A28E4DB64221849B9
:1022E0000A87052281F83B206422A1F848200522B4
:1022F00081F84B206422A1F85820052281F85B2048
:102300006422A1F86820052281F86B200D490C4A4F
:1023100011600D4911610D4911620D4911630D499B
:1023200011640D4911650D4911660D4911670D497B
:10233000C2F880100C49C2F89010704724070120A1
:1023400084060120A5120008D5120008ED1200082D
:10235000051300081D130008351300084D1300086D
:10236000651300087D130008BD1200081CB501218B
:102370004FF49270FFF77AF8012000F097F80220EE
:1023800000F094F8032000F091F8042000F08EF89B
:1023900001208DF8040000208DF806008DF807005C
:1023A00003208DF805004FF48060009069460B48CB
:1023B000FEF76DFD8020009069460948FEF767FD35
:1023C0004FF48070009069460548FEF760FD0420D8
:1023D000009069460348FEF75AFD1CBD00200240EC
:1023E000001402400008024070B5002016E00021F1
:1023F00000EB40021E4B03EB8202516000EB4002F7
:1024000003EB8202916000EB400203EB8202517009
:1024100000EB400203F82210411CC8B20428E6DB9E
:10242000144909684FF47A73B1FBF3F2511EB1F10C
:10243000807F00D31BE0511E4FF0E02359615917F4
:102440000F23002907DA1C07260E0B4C01F00F059D
:102450002D1F665503E01C07250E084C655400BF70
:1024600000214FF0E02399610721196100BF70BD81
:10247000340701206000002018ED00E000E400E0D7
:1024800010B5FFF715FDFEF799FDFFF793F8FEF77E
:102490003DFA10BD10B5002404E02046FFF736FEDB
:1024A000601CC4B20A2CF8DB10BD0000411EC8B28B
:1024B00020B94FF480610A4A118310E0012803D14A
:1024C0008021084A11800AE0022803D1C101054A8F
:1024D000118004E0032802D10421034A11807047CF
:1024E0000020024018140240180802400649C97A28
:1024F000054A50541146C97A491CC9B2D1720A29F9
:1025000001DB0021D17270472407012010B5FFF7CD
:10251000C1FF10BD7047416851B14168491E41601B
:1025200031B9012141700178012901D181684160EF
:102530007047000070B504460D46042C06DB124AB5
:1025400012A11DA0FFF734FD00BFFEE70120FFF739
:102550004EFD04EB4400204901EB8000456004EB94
:10256000440001EB80008560002004EB44011A4A1E
:1025700002EB81014870012004EB440102F82100C4
:102580000020FFF734FD70BD8B2A00082E2E5C2E34
:102590002E5C557365725C6273705F73746D333259
:1025A000663478785C7372635C6273705F74696DB3
:1025B00065722E63000000004572726F723A2066E9
:1025C000696C652025732C2066756E6374696F6E67
:1025D00020257328290D0A00340701202DE9F04138
:1025E00004460E461546052E00D3761F2848FFF7F1
:1025F000F3F9074607EB0608012C0FD125480560C3
:1026000041462348FFF761FA02212148FFF7C6F946
:10261000012202211E48FFF7F3F937E0022C0FD107
:102620001D48056041461A48FFF751FA0421184831
:10263000FFF7B4F9012204211548FFF7E1F925E07D
:10264000032C0FD11548056041461148FFF741FAA8
:1026500008210F48FFF7A2F9012208210C48FFF7D3
:10266000CFF913E0042C0FD10D480560414608480E
:10267000FFF731FA10210648FFF790F901221021E7
:102680000348FFF7BDF901E0BDE8F08100BFFBE7BB
:10269000000C0040380000203C00002040000020DA
:1026A00044000020074A126802F0807242B100BF65
:1026B0004FF060421268002AFAD04FF06043187061
:1026C00070470000FCED00E02DED028B00BF00BF65
:1026D00000BFFFF781FD4FF4FA710020FFF72AFFDA
:1026E000FFF747FA4FF4FA50FDF79EFEACA0FFF754
:1026F0005FFC002422E0600000EE100AB8EE400A01
:10270000DFEDAA0A20EE200AF2EE040A80EE201A7B
:10271000B0EE418AB0EE480AFDF752FDF7EE000A2E
:1027200030EE200ADFEDA20A20EE200ABCEEC00A3D
:1027300010EE100A9F4921F81400641CA02CDAD373
:10274000002424E0600000EE100AB8EE400ADFED3D
:10275000970A20EE200AF2EE040A80EE201AB0EE6C
:10276000418AB0EE480AFDF72BFDB1EE400AF7EEC4
:10277000000A30EE200ADFED8E0A20EE200ABCEEC1
:10278000C00A10EE100A8C4921F81400641CA02C19
:10279000D8D38A48FEF73CFF4FF47A618848FEF7A9
:1027A000E7F84FF4FA518748FEF754F99FED860A8F
:1027B000864880ED000A9FED840A854880ED000A76
:1027C000ECE084480078012852D14FF470608249CF
:1027D0000860002425E0814931F81410A1F2FF714E
:1027E00004F5FA527E4B03EB820292ED000ADFED14
:1027F0007D0A30EE600ABDEEC00A10EE102A01FB21
:1028000002F0C11700EB1151091301F2FF7100EE44
:10281000101AB8EEC00A194601EB840181ED000AD6
:10282000641CA02CD7D300241EE004F1A0016B4A45
:1028300032F81110A1F2FF7132F81420A2F2FF72E7
:1028400001FB02F0C11700EB1151091301F2FF71F6
:1028500000EE101AB8EEC00A04F1A001604A02EBC3
:10286000810181ED000A641CB4F5706FDDD341E095
:102870005848007802283DD14FF4FA505649086074
:102880004FF470641EE004F1A001544A32F81110B4
:10289000A1F2FF7132F81420A2F2FF7201FB02F0E4
:1028A000C11700EB1151091301F2FF7100EE101A6C
:1028B000B8EEC00A04F1A001494A02EB810181EDA2
:1028C000000A641CB4F5F55FDDD3002410E004F5C4
:1028D000F550424931F8100000EE100AB8EE400AF7
:1028E00004F5FA503E4901EB800080ED000A641CBB
:1028F000A02CECD33C480078012824D14FF47A6214
:102900003A493748FFF7E2FB002411E0374800EB73
:10291000840090ED000A3648D0ED000A20EE200A2F
:10292000BCEEC00A10EE100A264921F81400641CFF
:10293000B4F57A6FEAD32F4B01224FF4FA612148A4
:10294000FDF7A2FE2AE028480078022826D14FF49D
:102950007A6226492848FFF7B9FB4FF47A6413E0FE
:10296000A4F57A60214901EB800090ED000A20482F
:10297000D0ED000A20EE200ABCEEC00A10EE100ACC
:10298000104921F81400641CB4F5FA5FE8D3194B20
:1029900002224FF4FA610B48FDF776FE11E70000C2
:1029A00048656C6C6F210D0A00000000DB0F494088
:1029B0000000FA4494690120D46A01205674FF0093
:1029C000146C0120D88600200000000010000020B8
:1029D000140000204B0000201C000020942901203E
:1029E000D806002000E0FF444C000020D8C600209C
:1029F0000C00002058050120584500200000803FB1
:102A0000000000400000803FB295FA3F092D78BFDA
:102A10000000803F000000400000803F1C72F33F38
:102A2000F0CF69BF0000803F000000400000803F01
:102A30005483ED3F27E05DBF0000803F0000004071
:102A40000000803F5817E93F9AFA54BF0000803FCA
:102A5000000000400000803FDB5EE63F45814FBF45
:102A60000000803F0000803F00000000F973653FD8
:102A700000000080000103070F1F3F7F6273705F3B
:102A8000537461727454696D6572006273705F5340
:102A9000746172744175746F54696D65720062730C
:102AA000705F53746F7054696D65720000000000B0
:102AB000920E493CB10AC93C2BC3163D2EFB483D42
:102AC000752B7B3D04A9963D80B6AF3D36BDC83D14
:102AD0002FBCE13D73B2FA3D87CF093E8340163EDD
:102AE000B5AB223EA2102F3ECF6E3B3EC2C5473E45
:102AF0000115543E135C603E7F9A6C3ECCCF783E0D
:102B0000C07D823E938E883E229A8E3E32A0943EB5
:102B100086A09A3EE59AA03E128FA63ED47CAC3E9B
:102B2000EF63B23E2A44B83E491DBE3E15EFC33E98
:102B300053B9C93ECA7BCF3E4136D53E80E8DA3E26
:102B40004F92E03E7533E63EBBCBEB3EEA5AF13E98
:102B5000CBE0F63E275DFC3EE4E7003F3D9C033FB3
:102B6000824B063F9BF5083F6B9A0B3FDA390E3FCD
:102B7000CDD3103F2A68133FD9F6153FC07F183FC9
:102B8000C6021B3FD17F1D3FCBF61F3F9967223FF7
:102B900025D2243F5636273F1594293F4AEB2B3F39
:102BA000DE3B2E3FBB85303FC9C8323FF304353F83
:102BB000233A373F4268393F3B8F3B3FF9AE3D3FB9
:102BC00067C73F3F70D8413F01E2433F03E4453FC1
:102BD00065DE473F12D1493FF8BB4B3F029F4D3F57
:102BE000207A4F3F3D4D513F4918533F31DB543F11
:102BF000E595563F5348583F6AF2593F1A945B3F58
:102C0000532D5D3F05BE5E3F2146603F97C5613F46
:102C10005A3C633F59AA643F880F663FD86B673FB1
:102C20003CBF683FA7096A3F0C4B6B3F5E836C3F1C
:102C300093B26D3F9ED86E3F73F56F3F0809713FA9
:102C40005213723F4714733FDD0B743F0BFA743F0E
:102C5000C6DE753F07BA763FC58B773FF853783F9E
:102C60009812793F9DC7793F02737A3FBE147B3F2C
:102C7000CDAC7B3F283B7C3FC9BF7C3FAC3A7D3F1E
:102C8000CCAB7D3F23137E3FB0707E3F6DC47E3F53
:102C9000580E7F3F6D4E7F3FAB847F3F0FB17F3F2C
:102CA00097D37F3F43EC7F3F11FB7F3F0000803F86
:102CB00011FB7F3F43EC7F3F97D37F3F0FB17F3FB7
:102CC000AB847F3F6D4E7F3F580E7F3F6DC47E3F8C
:102CD000B0707E3F23137E3FCCAB7D3FAC3A7D3F4F
:102CE000C9BF7C3F283B7C3FCDAC7B3FBE147B3FC4
:102CF00002737A3F9DC7793F9812793FF853783F26
:102D0000C58B773F07BA763FC6DE753F0BFA743F37
:102D1000DD0B743F4714733F5213723F0809713F34
:102D200073F56F3F9ED86E3F93B26D3F5E836C3FED
:102D30000C4B6B3FA7096A3F3CBF683FD86B673FAE
:102D4000880F663F59AA643F5A3C633F97C5613F6D
:102D50002146603F05BE5E3F532D5D3F1A945B3FA9
:102D60006AF2593F5348583FE595563F31DB543F8F
:102D70004918533F3D4D513F207A4F3F029F4D3FF1
:102D8000F8BB4B3F12D1493F65DE473F03E4453F67
:102D900001E2433F70D8413F67C73F3FF9AE3D3F37
:102DA0003B8F3B3F4268393F233A373FF304353F7F
:102DB000C9C8323FBB85303FDE3B2E3F4AEB2B3F3D
:102DC0001594293F5636273F25D2243F9967223F45
:102DD000CBF61F3FD17F1D3FC6021B3FC07F183F70
:102DE000D9F6153F2A68133FCDD3103FDA390E3F8D
:102DF0006B9A0B3F9BF5083F824B063F3D9C033F80
:102E0000E4E7003F275DFC3ECBE0F63EEA5AF13EA8
:102E1000BBCBEB3E7533E63E4F92E03E80E8DA3EB8
:102E20004136D53ECA7BCF3E53B9C93E15EFC33EAE
:102E3000491DBE3E2A44B83EEF63B23ED47CAC3E50
:102E4000128FA63EE59AA03E86A09A3E32A0943EFE
:102E5000229A8E3E938E883EC07D823ECCCF783EB5
:102E60007F9A6C3E135C603E0115543EC2C5473EDE
:102E7000CF6E3B3EA2102F3EB5AB223E8340163EA6
:102E800087CF093E73B2FA3D2FBCE13D36BDC83D48
:102E900080B6AF3D04A9963D752B7B3D2EFB483D8A
:102EA0002BC3163DB10AC93C920E493C00000000FC
:102EB000920E49BCB10AC9BC2BC316BD2EFB48BD3E
:102EC000752B7BBD04A996BD80B6AFBD36BDC8BD10
:102ED0002FBCE1BD73B2FABD87CF09BE834016BED9
:102EE000B5AB22BEA2102FBECF6E3BBEC2C547BE41
:102EF000011554BE135C60BE7F9A6CBECCCF78BE09
:102F0000C07D82BE938E88BE229A8EBE32A094BEB1
:102F100086A09ABEE59AA0BE128FA6BED47CACBE97
:102F2000EF63B2BE2A44B8BE491DBEBE15EFC3BE94
:102F300053B9C9BECA7BCFBE4136D5BE80E8DABE22
:102F40004F92E0BE7533E6BEBBCBEBBEEA5AF1BE94
:102F5000CBE0F6BE275DFCBEE4E700BF3D9C03BFAF
:102F6000824B06BF9BF508BF6B9A0BBFDA390EBFC9
:102F7000CDD310BF2A6813BFD9F615BFC07F18BFC5
:102F8000C6021BBFD17F1DBFCBF61FBF996722BFF3
:102F900025D224BF563627BF159429BF4AEB2BBF35
:102FA000DE3B2EBFBB8530BFC9C832BFF30435BF7F
:102FB000233A37BF426839BF3B8F3BBFF9AE3DBFB5
:102FC00067C73FBF70D841BF01E243BF03E445BFBD
:102FD00065DE47BF12D149BFF8BB4BBF029F4DBF53
:102FE000207A4FBF3D4D51BF491853BF31DB54BF0D
:102FF000E59556BF534858BF6AF259BF1A945BBF54
:10300000532D5DBF05BE5EBF214660BF97C561BF42
:103010005A3C63BF59AA64BF880F66BFD86B67BFAD
:103020003CBF68BFA7096ABF0C4B6BBF5E836CBF18
:1030300093B26DBF9ED86EBF73F56FBF080971BFA5
:10304000521372BF471473BFDD0B74BF0BFA74BF0A
:10305000C6DE75BF07BA76BFC58B77BFF85378BF9A
:10306000981279BF9DC779BF02737ABFBE147BBF28
:10307000CDAC7BBF283B7CBFC9BF7CBFAC3A7DBF1A
:10308000CCAB7DBF23137EBFB0707EBF6DC47EBF4F
:10309000580E7FBF6D4E7FBFAB847FBF0FB17FBF28
:1030A00097D37FBF43EC7FBF11FB7FBF000080BF82
:1030B00011FB7FBF43EC7FBF97D37FBF0FB17FBFB3
:1030C000AB847FBF6D4E7FBF580E7FBF6DC47EBF88
:1030D000B0707EBF23137EBFCCAB7DBFAC3A7DBF4B
:1030E000C9BF7CBF283B7CBFCDAC7BBFBE147BBFC0
:1030F00002737ABF9DC779BF981279BFF85378BF22
:10310000C58B77BF07BA76BFC6DE75BF0BFA74BF33
:10311000DD0B74BF471473BF521372BF080971BF30
:1031200073F56FBF9ED86EBF93B26DBF5E836CBFE9
:103130000C4B6BBFA7096ABF3CBF68BFD86B67BFAA
:10314000880F66BF59AA64BF5A3C63BF97C561BF69
:10315000214660BF05BE5EBF532D5DBF1A945BBFA5
:103160006AF259BF534858BFE59556BF31DB54BF8B
:10317000491853BF3D4D51BF207A4FBF029F4DBFED
:10318000F8BB4BBF12D149BF65DE47BF03E445BF63
:1031900001E243BF70D841BF67C73FBFF9AE3DBF33
:1031A0003B8F3BBF426839BF233A37BFF30435BF7B
:1031B000C9C832BFBB8530BFDE3B2EBF4AEB2BBF39
:1031C000159429BF563627BF25D224BF996722BF41
:1031D000CBF61FBFD17F1DBFC6021BBFC07F18BF6C
:1031E000D9F615BF2A6813BFCDD310BFDA390EBF89
:1031F0006B9A0BBF9BF508BF824B06BF3D9C03BF7C
:10320000E4E700BF275DFCBECBE0F6BEEA5AF1BEA4
:10321000BBCBEBBE7533E6BE4F92E0BE80E8DABEB4
:103220004136D5BECA7BCFBE53B9C9BE15EFC3BEAA
:10323000491DBEBE2A44B8BEEF63B2BED47CACBE4C
:10324000128FA6BEE59AA0BE86A09ABE32A094BEFA
:10325000229A8EBE938E88BEC07D82BECCCF78BEB1
:103260007F9A6CBE135C60BE011554BEC2C547BEDA
:10327000CF6E3BBEA2102FBEB5AB22BE834016BEA2
:1032800087CF09BE73B2FABD2FBCE1BD36BDC8BD44
:1032900080B6AFBD04A996BD752B7BBD2EFB48BD86
:1032A0002BC316BDB10AC9BC920E49BC00000080F8
:1032B000D03200080000002078000000D01F000875
:1032C0004833000878000020E0900100E01F00086B
:1032D000000000000000000000000000BF73202874
:1032E00000000000000000000000000000000000DE
:1032F00000000000000000000000000000000000CE
:1033000000000000000000000000000000000000BD
:1033100000000000000000000000000000000000AD
:10332000000001020304010203040607080900006B
:10333000007A030A000000000000000001020304FC
:08334000060708090000000067
:040000050800018965
:00000001FF
