:020000040800F2
:10000000B89101209D010008D9160008511200087E
:10001000D5160008F50B0008992200080000000022
:10002000000000000000000000000000F9180008B7
:10003000791100080000000055170008B11A0008E7
:10004000B7010008B7010008B7010008B7010008B0
:10005000B7010008B7010008B7010008B7010008A0
:10006000B7010008B7010008B7010008B701000890
:10007000B7010008B7010008B7010008B701000880
:10008000AD0E0008ED0E0008B7010008B70100082A
:10009000B7010008B7010008B7010008B701000860
:1000A000B7010008B7010008B7010008B701000850
:1000B000B7010008B7010008B7010008B701000840
:1000C000B7010008B7010008B7010008B701000830
:1000D000B7010008C91E0008D91E0008E91E000863
:1000E000B7010008B7010008B7010008B701000810
:1000F000B7010008B7010008B7010008B701000800
:10010000B7010008B7010008A51B0008B7010008E7
:10011000B7010008B7010008B7010008B7010008DF
:10012000310F0008B7010008B7010008B701000847
:10013000B7010008B7010008B7010008B7010008BF
:10014000B7010008B7010008B7010008B7010008AF
:10015000B7010008B7010008B7010008F91E000840
:10016000B7010008B7010008B7010008B70100088F
:10017000B7010008B7010008B7010008B70100087F
:10018000B7010008B7010008DFF80CD000F014FB3D
:100190000048004791310008B89101200648804787
:1001A00006480047FEE7FEE7FEE7FEE7FEE7FEE75C
:1001B000FEE7FEE7FEE7FEE73D1B000889010008B9
:1001C000DFED190AB5EEC00A60EE200ABDEEE01AB6
:1001D00011EE100AF1EE10FA38BF401E00EE100AC0
:1001E0001349F7EE001AB8EEC00A30EEC00ADFED90
:1001F0000F0A60EE200ABCEEE00A10EE100AC0F30F
:10020000080000EE100A01EB8000B8EE400A90ED05
:10021000011A70EEC00A90ED000A71EEE01A21EEAC
:10022000800A00EE810A704783F9223E00000044F4
:10023000483500082DE9F001D0E90145D0F80070FB
:1002400094469E0895ED005A95ED013AD5ED025A77
:10025000D5ED034A95ED044AD4ED000AD4ED011A18
:1002600094ED020A94ED031A143530003ED000BF1D
:10027000D1ED002A401E65EE223A43EE203A45EECB
:10028000A13A44EE803A44EE013ACCED003A91EDC9
:10029000016A25EE062A03EE222A05EEA02A04EEC4
:1002A000A32A04EE002A8CED012AD1ED021A25EED4
:1002B000211A03EE061A05EEA21A04EE821A04EEC3
:1002C000231A8CED021AD1ED030A01F1100125EE7B
:1002D000200A03EE210A05EE860A04EE810A04EEE6
:1002E000020A8CED030A0CF1100CC1D113F00300CB
:1002F0001CD0B0F1004F2AD2002817DDF1EC012A02
:10030000401E25EE222A03EE202A05EEA12AF0EE59
:10031000601AF0EE620A04EE802A04EE012AB0EEC2
:10032000401AACEC012AB0EE420AE7D1C4ED000A53
:10033000C4ED011A84ED020A84ED031A103411464B
:1003400094467F1E7FF47EAFBDE8F0017047B1ECAC
:10035000012A401E65EE022A43EE202A45EEA12A1C
:10036000F0EE601AF0EE420A44EE802A44EE012AD2
:10037000B0EE401AECEC012AB0EE620AE7D1D5E704
:1003800070B58260016004461D460901184600F000
:1003900009F8656070BDD2B201E000F8012B491E7A
:1003A000FBD270470022F6E710B513460A46044612
:1003B0001946FFF7F0FF204610BD30B50B46014649
:1003C00000202022012409E021FA02F59D4205D3F4
:1003D00003FA02F5491B04FA02F52844151EA2F19E
:1003E0000102F1DC30BD2DE9F05F054600209246A8
:1003F0009B4688460646814640241BE028464146E7
:100400004746224600F0F9F953465A46C01A914130
:1004100010D311461846224600F0E0F92D1A67EB7A
:1004200001084F4622460120002100F0D7F917EBC2
:1004300000094E41201EA4F10104DFDC484631468C
:100440002A464346BDE8F09F2DE9FE4F804681EAEB
:100450000300C00F0C46009021F0004123F000453E
:10046000B8EB0200A94105D24046214690461C4601
:100470000B46024623F00040104347D0270DC7F338
:100480000A00C3F30A510290401A019040286BDA27
:10049000C3F3130040F4801B0098924620B1002360
:1004A000D2EB030A63EB0B0B01985946C0F14002F3
:1004B000504600F093F906460D4650465946019ABB
:1004C00000F0ABF910EB08006141002487EA1152FB
:1004D00084EAE7731A4340D0009A62B3019A012A72
:1004E0004FEA075215DC001B61EB02014FF000429E
:1004F00002EA0752CDE90042001C41F58011324664
:100500002B4600F0ABF903B0BDE8F08F4046214622
:10051000F9E7001B61EB0201001C41F58013001894
:100520005B412018A2F5001747EB030140EAD570A4
:10053000B6196D4111E06D084FEA360645EAC075FF
:100540004FEA0752001B61EB0201001C41F58011CC
:1005500049084FEA30000019514132462B4603B09A
:10056000BDE8F04F00F06BB9009801224000002375
:10057000D0EB020263EBE073009821464FEAE0748F
:10058000B8EB000061EB0401E9E783F000435BE7AF
:1005900081F0004158E72DE9FE4F81EA030404F0A1
:1005A000004421F0004100944FF0000B23F0004381
:1005B00050EA01045ED052EA03045BD0C3F30A544C
:1005C000C1F30A552C44A4F2F3340194A0FB025465
:1005D000C1F3130141F48011C3F3130343F48013F7
:1005E00001FB024400FB034E840A970A44EA81544B
:1005F00047EA8357A4FB076802958D0A05FB078528
:100600004FEA932C04FB0C542705029D4FEA065831
:1006100047EA1637B5EB08056EEB070C870E920E0E
:1006200047EA811742EA8312A7FB0201B6EB0B01EE
:1006300064EB00042B0D43EA0C335E1844EB1C50B2
:10064000DA465146E7FB0201C5F313044FEA0B33C8
:1006500043EA14534FEA0432019C43EA0603A4F12F
:100660000C040294009CCDE900B400F0F7F803B04C
:10067000BDE8F08F00200146F9E72DE9F04D81EA51
:10068000030404F0004B21F0004514464FF0000A2B
:1006900023F0004150EA050220D054EA01021DD0A7
:1006A000C5F30A570246C5F31303C1F31300C1F3A0
:1006B0000A5640F4801543F48013A7EB0608101B7C
:1006C000D64608F2FD3873EB050002D308F10108A5
:1006D00001E092185B41B8F1000F03DA00200146F7
:1006E000BDE8F08D00204FF48011064684460EE0F0
:1006F000171B73EB050705D3121B63EB05030643BA
:100700004CEA010C49084FEA300092185B4150EA6C
:100710000107EDD152EA030012D082EA040083EA15
:100720000501084305D0101BAB4106D2012200236E
:1007300006E000224FF0004302E06FF00102531088
:100740001AEB06004CEB085110EB0A0041EB0B01D1
:10075000BDE8F04D00F073B8C1F30A52C1F31301C4
:1007600040F2FF3341F480119A4202DA0020014640
:10077000704740F233439A42A2F2334202DC5242C3
:1007800000F03BB800F02AB830B5041E71F1000447
:1007900004DB4FF00044404264EB0101141E73F18E
:1007A000000405DB1C464FF00043524263EB040398
:1007B000994208BF904230BD064C074D06E0E06804
:1007C00040F0010394E8070098471034AC42F6D398
:1007D000FFF7DEFC4C3D00086C3D0008202A04DBDE
:1007E000203A00FA02F1002070479140C2F1200344
:1007F00020FA03F3194390407047202A04DB203A83
:1008000021FA02F00021704721FA02F3D040C2F130
:1008100020029140084319467047202A06DBCB1777
:10082000203A41FA02F043EAE07306E041FA02F3AB
:10083000D040C2F12002914008431946704710B5DC
:10084000141E73F1000408DA401C41F100019218F3
:100850005B411A4301D120F0010010BD2DE9F04D9C
:1008600092469B4611B1B1FA81F202E0B0FA80F2F1
:1008700020329046FFF7B2FF04460F4640EA0A00D6
:1008800041EA0B0153465A46084313D0114653EA36
:10089000010019D0C8F140025046FFF7AEFF0546EF
:1008A0000E46504659464246FFF798FF084305D08A
:1008B000012004E020463946BDE8F08D00200543C4
:1008C00046EAE0762C4337430A986305E40AA0EB36
:1008D00008000022FD0A44EA47540A3002D50020ED
:1008E0000146E9E7010510196941DDE908450019EC
:1008F0006941BDE8F04DA2E770B58C1810F8015BB6
:1009000015F0070301D110F8013B2A1106D110F8A8
:10091000012B03E010F8016B01F8016B5B1EF9D1AC
:100920002B0705D40023521E0DD401F8013BFAE732
:1009300010F8013BCB1A921C03E013F8015B01F89D
:10094000015B521EF9D5A142D8D3002070BD21B160
:10095000826842F00102826003E0826822F00102B4
:10096000826070470021084A1168084A1140D0E9A6
:1009700000231A4383681A43C3681A431143044A85
:10098000C2F804137047000004230140E030FCFF6C
:100990000020014010B59CB004460121880500F0FC
:1009A000DBFE0121042000F0D7FE0121080200F047
:1009B000F3FE38208DF8000000208DF801000120A2
:1009C0008DF802008DF80300684600F087FE0020D5
:1009D000039036480490364805900020069007940E
:1009E00008904FF48060099040000A9080000B90BE
:1009F00040110C9040020D9000200E9001200F90AD
:100A000000201090119003A92A4800F089FB0121D1
:100A1000284800F0AFFA01221821264800F062FBB6
:100A20000220019003208DF8080000208DF80B00B3
:100A300001A9214800F0A1FB002012904FF4803062
:100A4000139000201490159012A8FFF78BFF002040
:100A500016908DF85C008DF85D004FF08050189076
:100A60004FF04070199000201A9001208DF86C0012
:100A700016A90E484C3800F037F801231A460B210E
:100A80000A484C3800F05AF8012108484C3800F068
:100A900020F8012105484C3800F010F801210348E6
:100AA0004C38FFF754FF1CB010BD00004C20014033
:100AB000F4290120106402400008024021B182683C
:100AC00042F48072826003E0826822F48072826065
:100AD000704721B1826842F40072826003E082684C
:100AE00022F400728260704730B502460020002375
:100AF0005068104C20400D790C6844EA05242043CE
:100B0000506090680C4C2040D1E903542C438D6810
:100B10002C434D7944EA450420439060D06A20F488
:100B200070000C7D641EE4B2234340EA0350D0629F
:100B300030BD0000FFFEFFFCFDF7FFC0F0B504462E
:100B40000D4600200021092D11DDE068A5F10A06FF
:100B500006EB4607072606FA07F18843A5F10A06C1
:100B600006EB460603FA06F10843E0600CE0206954
:100B700005EB4507072606FA07F1884305EB45060E
:100B800003FA06F108432061072A0FDA606B561E4C
:100B900006EB86071F2606FA07F18843561E06EB6A
:100BA000860605FA06F10843606322E00D2A0FDA93
:100BB000206BD61F06EB86071F2606FA07F188432F
:100BC000D61F06EB860605FA06F10843206310E0FF
:100BD000E06AA2F10D0606EB86071F2606FA07F16A
:100BE0008843A2F10D0606EB860605FA06F10843D6
:100BF000E062F0BD00BFFEE708B525208DF80000DB
:100C000000208DF8020001208DF80300684600F0F6
:100C100065FD26208DF8000001208DF802008DF87A
:100C20000300684600F05AFD27208DF800000220DE
:100C30008DF8020001208DF80300684600F04EFD9B
:100C400047208DF8000005208DF8020001208DF866
:100C50000300684600F042FD08BD000030B597B0C3
:100C600005460C460121480500F076FD01210846A5
:100C700000F072FD0121480700F07EFD1020019078
:100C800003208DF8080000208DF80B0001A92948E9
:100C900000F073FA00F0D6FF0420039000200490C7
:100CA000069003A900F0E8F810208DF81C00002041
:100CB0008DF81D0001208DF81E008DF81F0007A87B
:100CC00000F00CFD1C4800F061F94FF060600890E6
:100CD0001A4809900A950C94C0140F908000109047
:100CE00040200B9000200D904FF480600E908010FB
:100CF00011904002129000201390012014900020C7
:100D00001590169008A90C4800F00AFA01210A482B
:100D100000F030F901221821074800F0E3F9012121
:100D2000002000F07FF80121002000F08FF817B0BC
:100D300030BD00000000024088600240087400409E
:100D400030B597B005460C460121480500F004FD7A
:100D50000121084600F000FD0121480700F00CFDCC
:100D600000F070FF2020019003208DF80800002083
:100D70008DF80B0001A9284800F0FFF9042003902A
:100D800000200490069003A9102000F075F81120AF
:100D90008DF81C0000208DF81D0001208DF81E002C
:100DA0008DF81F0007A800F099FC1C4800F0EEF831
:100DB0004FF0606008901A4809900A9540200B9007
:100DC0000C9400200D904FF480600E9040000F9026
:100DD000800010904011119040021290002013905A
:100DE0000120149000201590169008A90B4800F0DF
:100DF00097F90121094800F0BDF8012218210748A0
:100E000000F070F90121102000F00CF801211020F1
:100E100000F01CF817B030BD00000240A060024096
:100E20001474004039B1084A1268012383401A4300
:100E3000054B1A6006E0044A1268012383409A4376
:100E4000014B1A60704700000074004041B1094A2C
:100E500012684FF4805383401A43064B1A6007E030
:100E6000044A12684FF4805383409A43014B1A603E
:100E7000704700000074004030B5002200230A4C87
:100E8000226840F6FE748440A243D1E900452C4319
:100E90008D682C43CD6844EA050303FA00F422432D
:100EA000014C226030BD0000007400400B484068D7
:100EB0000B49084030B1C8140849C86001200949ED
:100EC00008700AE0054840680749084028B1022038
:100ED0000449087080020149C86070470060024000
:100EE000004400208D010020008800200C4840684C
:100EF0000C49084038B14FF480100949C8600120FE
:100F0000094908700AE0064840680849084028B1C5
:100F100002200549087000050149C86070470000BB
:100F200000600240004010208C0100200080202042
:100F30000C4800680C49084038B1102009490831B4
:100F400008600120094908700BE00648006808495C
:100F5000084030B1022005490870202001490831BD
:100F60000860704700640240104000108B010020B0
:100F70002080001021B1026842F00102026003E00B
:100F8000026822F00102026070470000016821F04F
:100F9000010101600021016041608160C160016167
:100FA000212141614A49884204D13D21484A103AF1
:100FB00091608CE046491831884205D14FF4746144
:100FC000434A103A916082E041493031884205D16C
:100FD0004FF474113E4A103A916078E03C49483130
:100FE000884205D14FF07461394A103A91606EE041
:100FF00037496031884204D13649354A103AD160C8
:1010000065E033497831884204D13349304A103A97
:10101000D1605CE02E499031884204D12F492C4A9E
:10102000103AD16053E02A49A831884205D14FF0E7
:101030003D51274A103AD16049E02949884204D1FC
:101040003D21274A083A116041E02549183188427C
:1010500005D14FF47461224A083A116037E0204903
:101060003031884205D14FF474111D4A083A11609D
:101070002DE01B494831884205D14FF07461184A70
:10108000083A116023E016496031884204D11149C1
:10109000134A121F11601AE011497831884204D1B5
:1010A0000D490F4A121F116011E00D49903188421D
:1010B00004D10A490A4A121F116008E00849A83100
:1010C000884204D14FF03D51054A121F116070470C
:1010D000106002403D000020400F002000003D2035
:1010E0001064024010B501F080034BB122B1436996
:1010F00043F08003436103E0436923F080034361CD
:1011000080290BD02AB1036801F01E042343036039
:1011100004E0036801F01E04A343036010BD000057
:1011200010B500220268134B1A40CC680B682343A9
:101130004C6923438C692343CC6923430C6A2343C2
:101140004C6A23438C6A23434C6B23438C6B2343AD
:101150001A430260426922F00702D1E90B342343AB
:101160001A4342610B6943604B6883608B68C360BC
:1011700010BD00003F801CF07047F0B50A4600210A
:101180000023002400BF3DE0012505FA01F31568A6
:1011900005EA03049C4234D105684F000326BE4093
:1011A000B543056015794E00B540066835430560C6
:1011B0001579012D02D01579022D16D185684F00C1
:1011C0000326BE40B543856055794E00B54086681C
:1011D00035438560456801268E40B54345604568C6
:1011E00096798E40B6B235434560C5684F000326F8
:1011F000BE40B543C560D5794E00B540C66835439D
:10120000C560491C1029BFD3F0BDF0B500230024F0
:101210004D07ED0E02FA05F3CE1000F1200555F84A
:1012200026504E07F70E0F26BE40B543CF1000F1F3
:10123000200646F82750CE1000F1200555F826501C
:1012400045EA0304CE1000F1200545F82640F0BD24
:1012500009A100200BE00A5C124B9A8000BF114AE2
:10126000128802F04002002AF9D0421CD0B22A288B
:10127000F1D300BFFEE700000D0A456E74657220D1
:10128000486172644661756C745F48616E646C6538
:10129000722C2053797374656D2048616C742E0D27
:1012A0000A0000000010014000B587B00121084687
:1012B00000F052FA0121102000F06EFA07220921F5
:1012C000AB48FFF7A2FF07220A21A948FFF79DFFBD
:1012D00000208DF81A0001208DF81B0002208DF8E7
:1012E00018000002059002208DF8190005A9A048F9
:1012F000FFF743FF02208DF818004002059005A972
:101300009B48FFF73AFF4FF4E13001900020ADF821
:101310000800ADF80A00ADF80C00ADF810000C2084
:10132000ADF80E0001A9934800F052FE012240F2F0
:101330002551904800F027FE01218E4800F0EDFD78
:1013400040218C4800F0E0FD0121084600F004FA3D
:101350000121480400F010FA072203218448FFF716
:1013600054FF00208DF81A0001208DF81B00022088
:101370008DF818008DF818000820059002208DF8CF
:10138000190005A97A48FFF7F8FE4FF416500190AE
:101390000020ADF80800ADF80A00ADF80C00ADF87B
:1013A00010000420ADF80E0001A9734800F010FEF3
:1013B000012240F22551704800F0E5FD01216E4800
:1013C00000F0ABFD40216C4800F09EFD01210220A1
:1013D00000F0C2F901208DF8180000208DF81A00E5
:1013E0008DF81B0003208DF819000420059005A935
:1013F0006248FFF7C2FE0121022000F0ADF9012191
:10140000880400F0B9F907220A215C48FFF7FDFEC5
:1014100007220B215948FFF7F8FE00208DF81A002B
:1014200001208DF81B0002208DF818004002059065
:1014300002208DF8190005A95048FFF79EFE0220F2
:101440008DF818008002059005A94C48FFF795FE1D
:101450004FF4165001900020ADF80800ADF80A00D6
:10146000ADF80C00ADF810000C20ADF80E0001A98D
:10147000434800F0ADFD012240F22551404800F004
:1014800082FD01213E4800F048FD40213C4800F02B
:101490003BFD0121442000F05FF90121202000F0F4
:1014A0007BF908220E213748FFF7AFFE08220721FB
:1014B0003548FFF7AAFE082211463248FFF7A5FE7D
:1014C00008220F212F48FFF7A0FE00208DF81A00F8
:1014D00001208DF81B0002208DF8180040030590B4
:1014E00002208DF8190005A92648FFF746FE0220C4
:1014F0008DF818008020059005A92348FFF73DFED0
:1015000002208DF81800C001059005A91D48FFF7BD
:1015100034FE02208DF818008003059005A91948B3
:10152000FFF72BFE4FF4E13001900020ADF80800EA
:10153000ADF80A00ADF80C004FF44070ADF81000A3
:101540000C20ADF80E0001A9104800F041FD012269
:1015500040F225510D4800F016FD01210B4800F026
:10156000DCFC4021094800F0CFFC07B000BD0000C2
:10157000000002400010014000440040000402400E
:1015800000480040001802400008024000140140DA
:101590000448006900F4807008B9012070470020F9
:1015A000FCE700000020024010B5FFF7F1FF20B17A
:1015B00000F006F808B1012010BD0020FCE7000093
:1015C0000448006800F4005008B90120704700206A
:1015D000FCE70000100802400448006900F40060C5
:1015E00008B9012070470020FCE7000000200240FD
:1015F0000448006800F0040008B90120704700208A
:10160000FCE70000101C02400448006800F00800DD
:1016100008B9012070470020FCE70000101C0240C0
:101620000448006800F4006008B9012070470020F9
:10163000FCE70000101402400448006800F080003D
:1016400008B9012070470020FCE700001018024094
:101650000448006800F4004008B9012070470020E9
:10166000FCE70000101C024010B5FFF791FF20B10D
:10167000FFF7A6FF08B1012010BD0020FCE7000025
:1016800070B504460D48D0F808010D49B1FBF0F5DE
:101690000C4A2946042001F005FD084890F8800016
:1016A00080280ADA054890F8801090F88000401CE5
:1016B000024A82F880001046445470BD642801201C
:1016C000C00E1602C91600080120014908707047B3
:1016D0008A01002000BFFEE77047000070B50021BE
:1016E00000230F22C4781CB3174C246804F4E06470
:1016F000C4F5E064C4F30721C1F10404E3B20A4174
:1017000044789C40E1B28478144021430C07210EB8
:101710000E4C05786155047804F01F050124AC4097
:1017200005786D11AD0005F1E025C5F8004109E02F
:10173000047804F01F050124AC40054D06787611AD
:1017400045F8264070BD00000CED00E000E400E02C
:1017500080E100E07047000029B1064A12680243A8
:10176000044B1A6004E0034A12688243014B1A607A
:10177000704700003038024029B1064A126802431F
:10178000044B1A6004E0034A12688243014B1A605A
:10179000704700004038024029B1064A12680243EF
:1017A000044B1A6004E0034A12688243014B1A603A
:1017B0007047000044380240F0B5002100220024A8
:1017C000022500260223324F3F6807F00C0121B1A9
:1017D000042905D0082937D105E02E4F076036E0EF
:1017E0002D4F076033E02A4F3F1F3F68C7F38056F5
:1017F000274F3F1F3F6807F03F036EB1264FB7FBEF
:10180000F3F7DFF88CC0ACF1040CDCF800C0CCF3CB
:10181000881C07FB0CF40CE01E4FB7FBF3F7DFF856
:1018200070C0ACF1040CDCF800C0CCF3881C07FBE2
:101830000CF4174F3F1F3F68C7F301477F1C7D0023
:10184000B4FBF5F7076002E0124F076000BF00BF6E
:101850000F4F3F6807F0F0010909104F7A5C0768E5
:10186000D74047600A4F3F6807F4E051890A0B4FA1
:101870007A5C4768D7408760054F3F6807F460414E
:10188000490B064F7A5C4768D740C760F0BD00003F
:10189000083802400024F400001BB7008E0100202D
:1018A0001CB501210220FFF757FF01208DF804002D
:1018B00000208DF806008DF8070003208DF8050044
:1018C0000420009069460248FFF757FC1CBD000049
:1018D0000004024010B504462046FFF7D1FE10BDBB
:1018E000042001490880704718040240042001497F
:1018F000088070471A04024070470000F0B50246A5
:101900004FF080730024002006E02B4D35F8105076
:101910002A4E26F81050401CA028F6DB0024012196
:1019200047E05B1014BB02EA03057DB1002009E02B
:10193000234D35F81050A02606FB01061F4F27F84F
:101940001650401CA028F3DBB42431E0002009E04D
:10195000194D35F81050A02606FB0106174F27F841
:101960001650401CA028F3DB002421E002EA030506
:101970007DB1002009E0104D35F81050A02606FB7F
:1019800001060E4F27F81650401CA028F3DB002458
:101990000EE0002009E00A4D35F81050A02606FBA5
:1019A0000106064F27F81650401CA028F3DBB4248C
:1019B000491C1929B5DBF0BDF4690120746C0120C4
:1019C000346B01200CB50020019000903448006871
:1019D00040F480303249086000BF3148006800F4AC
:1019E000003000900198401C0190009818B90198AF
:1019F000B0F5A04FF1D12A48006800F4003010B1D2
:101A00000120009001E0002000900098012846D1BC
:101A100023484030006840F0805021494031086040
:101A20002048006840F440401E4908601C480830C7
:101A300000681B49083108600846006840F400400F
:101A400008600846006840F4A05008601648091F66
:101A50000860081F006840F08070091F086000BF20
:101A60000F48006800F000700028F9D040F20570BF
:101A70000E4908600A480830006820F00300084951
:101A8000083108600846006840F00200086000BFA6
:101A900003480830006800F00C000828F8D10CBD9D
:101AA00000380240007000400C544007003C0240E7
:101AB00010B500F001F810BD10B51B48006840B12A
:101AC00019480068401E1849086010B901201749DC
:101AD0000870002408E004EB4401154A02EB810081
:101AE00001F07DFA601CC4B2042CF4DB11480068DC
:101AF000401C10490860084600686FF000418842A9
:101B000002D100200B49086001F068FA0A48007809
:101B1000401CC0B2084908700A2803DB0020087086
:101B200001F058FA10BD00006C0100207001002087
:101B300094070120740100208801002010B5154889
:101B4000006840F47000134908601348006840F0D2
:101B500001001149086000200F49083108600E4853
:101B600000680E4908400C4908600D48091D0860CE
:101B7000081F006820F48020091F08600020064923
:101B80000C310860FFF71EFF4FF0006001498039FB
:101B9000086010BD88ED00E000380240FFFFF6FE4F
:101BA0001030002410B50221214800F08EF858B101
:101BB00002211F4800F068F8002202211C4800F0B2
:101BC00095F81C48006880470421194800F07DF80A
:101BD00058B10421164800F057F800220421144897
:101BE00000F084F81448006880470821104800F08D
:101BF0006CF858B108210E4800F046F80022082180
:101C00000B4800F073F80D48006880471021084821
:101C100000F05BF858B11021054800F035F80022BB
:101C20001021034800F062F805480068804710BDA5
:101C3000000C0040780100207C0100208001002081
:101C4000840100200EB501211020FFF795FD6846A4
:101C500000F0FCF840F2A31001900020ADF8000065
:101C6000ADF80800ADF802006946064800F0ACF88F
:101C70002021044800F096F80121024800F007F8FE
:101C80000EBD000000100040CA430282704721B11F
:101C9000028842F00102028004E002884FF6FE73DF
:101CA0001A400280704731B1B0F8442042F400423B
:101CB000A0F8442005E0B0F84420C2F30E02A0F8DA
:101CC000442070470146486A704730B502460020FC
:101CD00000230024158A05EA0103958905EA010419
:101CE00013B10CB1012000E0002030BD1AB183898E
:101CF0000B43838102E083898B438381704700001B
:101D000070B5002400220023058C4FF6EF76354095
:101D10000584028C8388048B48F6FF752C404FF6AF
:101D2000FF452C400D884FF6FF7606EA05252C432B
:101D30004FF6DF752A408D8906EA05152A434D883E
:101D400006EA05152A43154DA84202D0144DA842B3
:101D50001DD14FF67F752A40CD894FF6FF7606EAF2
:101D600005152A434FF6BF752A408D8806EA0515EA
:101D70002A434FF6FF352B404FF2FF752B400D8A5B
:101D800006EA85052B434D8A06EA85052B438380A9
:101D900004838D688563028470BD000000000140EB
:101DA0000004014082884FF68F731A408280828837
:101DB0000A43828070474163704781637047C16303
:101DC000704701647047000000220288184B984257
:101DD0000ED0184B98420BD0B0F1804F08D0164B64
:101DE000984205D0154B984202D0154B984204D129
:101DF0004FF68F731A404B881A43124B984207D004
:101E0000114B984204D04FF6FF431A400B891A43F6
:101E100002804B68C3620B880385054B984202D051
:101E2000044B984201D18B7A038601238382704749
:101E30000000014000040140000400400008004090
:101E4000000C004000100040001400404FF0FF3133
:101E5000416000210180018141808172704700B59D
:101E600089B001210420FFF777FC01210846FFF724
:101E700083FC06A8FFF7EAFF092007902920ADF8A8
:101E800018000020ADF82000ADF81A0006A94FF0A8
:101E90008040FFF799FF6020ADF804000120ADF805
:101EA0000600052003900220ADF8100001A94007AC
:101EB000FFF726FF01218807FFF7F5FE01218807BC
:101EC000FFF7E5FE09B000BD10B5024800F0F3F8D9
:101ED00010BD0000C407012010B5024800F0EBF867
:101EE00010BD0000EC0F012010B5024800F0E3F82F
:101EF00010BD00001418012010B5024800F0DBF8F6
:101F000010BD00003C20012001F40072B2F5007FFA
:101F100000D100BFCA430280704721B1828942F4D8
:101F20000052828104E082894DF6FF731A4082815B
:101F3000704770B50246002400230025002040F6BB
:101F40006A16B14200D100BFC1F3421501F01F0370
:101F5000012606FA03F3012D02D19689334006E0EB
:101F6000022D02D1168A334001E0968A33400C12CA
:101F7000012606FA04F41688344013B10CB101208E
:101F800000E0002070BDF0B50346002400260025C7
:101F9000002040F66A17B94200D100BF1846C1F3CD
:101FA000421401F01F06012707FA06F5012C01D1A2
:101FB0000C3004E0022C01D1103000E014301AB1D2
:101FC00007682F43076002E00768AF430760F0BD72
:101FD0002DE9FF4705460E460024A14600BFA04656
:101FE000B08900B100BF2C8A24F44054F088044327
:101FF0002C82AC8941F20C608443B088318908435B
:10200000718908430443AC81AC8A24F44074B089DC
:102010000443AC826846FFF7CFFB2048854202D0DC
:102020001F48854202D1DDF80C9001E0DDF80890F0
:10203000A88900F4004040B109EBC90000EB091089
:1020400031684900B0FBF1F707E009EBC90000EB8C
:10205000091031688900B0FBF1F76420B7FBF0F09C
:1020600004012009642101FB1078A88900F40040D4
:1020700040B1322000EBC800B0FBF1F000F00700E7
:10208000044308E0322000EB08106421B0FBF1F0BB
:1020900000F00F0004432C81BDE8FF8700100140D1
:1020A0000014014001468888C0F308007047C1F35E
:1020B00008028280704770B5044640F225512068BE
:1020C000FFF737FFE0B12068FFF7ECFFC5B2E18A08
:1020D000A0684554E08A401C80B2E082E1898842D1
:1020E00001DB0020E082608BE189884202DA608BAC
:1020F000401C6083606A10B12846616A884700BF4F
:1021000040F227712068FFF714FF08B3A08A60B976
:10211000002240F227712068FFF735FF012240F2CC
:1021200026612068FFF72FFF37E0638A6268D15C81
:102130002068FFF7BCFF608A401C80B26082A189E2
:10214000884201DB00206082A08A401EA08224E039
:1021500040F226612068FFF7ECFEF0B1A08A50B98A
:10216000002240F226612068FFF70DFF206AA0B12F
:10217000206A804711E0638A6268D15C2068FFF7BB
:1021800096FF608A401C80B26082A189884201DB90
:1021900000206082A08A401EA08270BD2B482C497E
:1021A00008602C4848602C4888604FF48060888123
:1021B000C881002008824882C882088348838882B8
:1021C000C86108624862254825490860254848607A
:1021D0002548886001208881C002C88100200882CB
:1021E0004882C882088348838882C861086248623E
:1021F0001E481F4908601F4848601F4888604FF408
:1022000080608881C881002008824882C882088353
:10221000488388821948C861194808621948486289
:1022200019481A4908601A4848601A4888604FF4EB
:1022300080608881C881002008824882C882088323
:1022400048838882C8610862486270470010014074
:10225000C4070120EC070120EC0B012000440040E2
:10226000EC0F0120890100201410012000480040DB
:10227000141801203C1801203C1C0120E118000822
:10228000ED180008D5180008001401403C2001207A
:10229000642001206424012000BFFEE70FB4054B39
:1022A00010B503A9044A029800F0DCF810BC5DF8F0
:1022B00014FB00006D310008B401002002E008C8E2
:1022C000121F08C1002AFAD170477047002001E0B0
:1022D00001C1121F002AFBD1704780F3108870479C
:1022E0002DE9FF5F82B00021DDE90430020DDDF849
:1022F00040B0034318D044F61050A2F2FF324243DC
:102300001514119801281FD0A5EB0B00401C5FEAA3
:10231000000A4FF000064E4FDFF83891B0465046A5
:1023200015D5CAF1000413E0119801244AA301282D
:1023300001D16FEA0B010298119AC0E90031C0E99E
:10234000024206B0BDE8F09FCBF10000DFE7044693
:102350000021404A491842EB0450CDE9001012E038
:10236000E00707D032463B4640464946FEF713F9A0
:102370008046894632463B4610461946FEF70BF921
:1023800006460F466410002CEAD1DDE90401DDE9C0
:102390000023BAF1000F06DAFEF7FDF842464B467D
:1023A000FEF7F9F805E0FEF768F942464B46FEF7FE
:1023B00064F904460E460022284BFEF7E5F903D8DF
:1023C0004FF0FF30014607E00022254B2046314602
:1023D000FEF73AF8FEF7C0F9102409E0002C0ADBFA
:1023E0000A220023FDF7FFFF039B30321A55641EBB
:1023F00050EA0102F2D1641C039AC4F1110314449F
:10240000119A012A03D0012208430DD10AE00843A2
:1024100004D000204FF0110B119072E7A3EB0B05D5
:102420006D1E0DE05B4504DD4FF0000205F1010576
:1024300004E003DA4FF00002A5F10105002AECD018
:1024400002981199C0E90231C0E9004579E700001E
:10245000000014400000F03F300000000000F04396
:102460000000E03F2DE9FF4F95B09B4689460646A8
:1024700000250FE2252877D100242746F84A0121BC
:10248000059400E0044316F8013F203B01FA03F0F5
:102490001042F7D130782A2811D06FF02F0330780E
:1024A000A0F13002092A16D8059A44F0020402EB82
:1024B000820203EB42021044761C0590EFE759F8C4
:1024C000042B0592002A03DA504244F4005405908C
:1024D00044F00204761C30782E2816D116F8010F2D
:1024E00044F004042A280DD06FF02F023078A0F1B8
:1024F0003003092B09D807EB870302EB4303C71806
:10250000761CF3E759F8047B761C30786C280FD0E2
:1025100006DC4C2817D068280DD06A2814D104E0B6
:10252000742810D07A280FD10DE044F400140AE08A
:1025300044F4801401E044F440147278824202D1E1
:1025400004F58014761C761C307866280BD013DCDA
:10255000582877D009DC002875D04528F6D04628C1
:10256000F4D047281AD19DE118E0632835D06428BB
:1025700079D0652812D195E1702873D008DC6728DE
:10258000F1D069286FD06E280DD06F2806D1B5E044
:1025900073282CD0752875D0782874D05A4617998E
:1025A00090476D1C75E1C4F30250022809D003283E
:1025B0000DD0D9F8001004280DD00D6009F10409E0
:1025C00067E1D9F80010EA17C1E90052F6E7D9F837
:1025D00000100D80F2E70D70F0E719F8041B8DF87C
:1025E000001000208DF80100EA46012003E059F8B0
:1025F00004AB4FF0FF3061074FF0000102D40DE053
:1026000008F101018846B9420FDA8045F8DB1AF873
:1026100008100029F4D108E008F101018846814240
:10262000FADB1AF808100029F6D105985B46A0EBF2
:10263000080721463846179A00F094FA284400EB20
:10264000080507E04DE029E10DE01AF8010B5A46B4
:1026500017999047B8F10108F7D25B4621463846F2
:10266000179A13E142E00A220092C4F302524FF09B
:10267000000A022A08D059F804CB032A4FEAEC7169
:102680000AD00DE029E02AE009F1070121F0070254
:10269000F2E802C1914609E00FFA8CFC4FEAEC71B6
:1026A000042A03D14FFA8CFC4FEAEC71002907DAB7
:1026B0000A460021DCF1000C61EB02012D2202E050
:1026C000220504D52B228DF80420012203E0E20725
:1026D00001D02022F7E7904659E00A2102E01022BB
:1026E0000DE010214FF0000A00910BE010224FF096
:1026F000000A44F004040827009203E008224FF087
:10270000000A0092C4F30252022A05D059F804CB01
:102710000021032A08D009E009F1070121F007028E
:10272000F2E802C1914605E01FFA8CFC042A01D1AF
:102730000CF0FF0C4FF00008220728D5702806D0B7
:10274000009B83F0100353EA0A0305D00EE04022F9
:102750008DF80420012208E05CEA010206D0302254
:102760008DF804208DF8050002229046009B83F02E
:10277000080353EA0A030AD15CEA010201D16207A5
:1027800005D530228DF804204FF001087F1E58280F
:1027900004D034A003900EA802900DE036A0F9E713
:1027A00053466046009AFDF71EFE84460398825CFD
:1027B0000298401E029002705CEA0100F0D102987B
:1027C00006A9081A00F1200A600702D524F4803413
:1027D00000E00127574502DDA7EB0A0000E00020DA
:1027E00000EB0A01009005984144401A0590E0036F
:1027F00006D45B462146179A059800F0B3F90544C4
:10280000002706E001A85A46C05D179990476D1C45
:102810007F1C4745F6DBE0030CD55B462146179A43
:10282000059800F09FF9054404E030205A461799B6
:1028300090476D1C0099481E00900029F5DC08E0C7
:10284000029802995A460078491C029117999047BC
:102850006D1CBAF10001AAF1010AF1DC65E100008A
:102860000928010030313233343536373839616266
:10287000636465660000000030313233343536372A
:1028800038394142434445460000000000F058F901
:102890000544761C307800287FF4ECAD19B028464A
:1028A000BDE8F08F620700D4062709F1070222F085
:1028B000070CFCE80223E14603F000485FEA080C3D
:1028C00002D00FF2702C0DE05FEA045C02D50FF22B
:1028D000682C07E05FEAC47C02D00FF2602C01E0B4
:1028E000AFF2700C4FF0FF3823F00043CDF850C02A
:1028F00065280CD006DC452809D046281DD047287D
:102900003DD13DE0662818D067287ED138E000210F
:10291000112F01DB112000E0781CCDE9000106A990
:102920000EA8FFF7DDFCDDE90F010E9A03910021EF
:10293000009207F1010A04914DE04FF0004000972A
:10294000CDE9011006A90EA8FFF7CAFCDDE90F02C8
:1029500003920E9B11990022DDF80CA000930492C3
:1029600011B9791C00EB010AB7EB0A0004D4C0F1DD
:10297000FF3007F1010A0490AAEB0700019044E040
:10298000012F00DA01270021112F01DD112000E0C5
:102990003846CDE9000106A90EA8FFF7A1FCDDE944
:1029A0000F010E9A0391002104910092BA4621076B
:1029B0000CD40399514500DA8A46BAF1010F05DDBE
:1029C000009AAAF10101515C302908D0B84202DA1C
:1029D00010F1040F06DA0121CDE9011015E0AAF18A
:1029E0000101E9E7002805DC049901440491AAEB00
:1029F000000102E0411C514500DD8A460499401A5D
:102A0000401C01904FF000400290200704D4019830
:102A1000504501DBCDF8048000208DF84F0002986E
:102A20000DF14F07B0F1004F25D02B200E900298EA
:102A30004FF0020800280CDA404202902D200E9040
:102A400007E00A210298FDF7B8FC3031029007F840
:102A5000011DB8F10001A8F10108F2DC029800287C
:102A6000EFD1791E0E980870307800F0200040F009
:102A7000450007F8020D12A8C01B00F107081498C2
:102A8000007800B1012000EB0A01019801EBE07130
:102A900005984144401A401E0590E00306D45B4669
:102AA0002146179A059800F05DF8054414980078BF
:102AB00018B15A46179990476D1CE00324D55B4620
:102AC0002146179A059800F04DF805441CE004983B
:102AD000002807DBDDE90301884203DD0098405C44
:102AE000179901E0179930205A469047049805F14C
:102AF0000105401C04900198401E019004D12E2035
:102B00005A46179990476D1CBAF10001AAF1010AC3
:102B1000DDDC05E017F8010B5A46179990476D1C4C
:102B2000B8F10001A8F10108F4DC5B462146179AD0
:102B30000598ABE62D0000002B00000020000000EF
:102B40002DE9F041044600251E461746880404D4AA
:102B500005E039462020B0476D1C641EF9D5284693
:102B6000BDE8F0812DE9F041044600251E4690465F
:102B7000C80301D5302700E02027880404D505E0EC
:102B800041463846B0476D1C641EF9D52846BDE85D
:102B9000F081000070B504460D46164609480078DD
:102BA00040B9012007490870074B084A0621084828
:102BB000FDF7E6FB33462A4621460548FDF73AFB7A
:102BC00070BD000021000020B8020020A0340008E1
:102BD000A406012070B50546304800EB05142068B6
:102BE000804700283ED02079052802DA0520207190
:102BF00052E020790A2803DA2079401C20714BE04A
:102C0000A07A38B90120A07205EB4501491CC8B271
:102C100000F0D0F9208900283EDDE0882189884233
:102C20000DDAE088401C80B2E0802189884233D1EF
:102C300005EB4501C91CC8B200F0BCF92CE0E07AF4
:102C4000002829DD207B401CC0B22073E17A884235
:102C500022DB0020207305EB4501491CC8B200F0BF
:102C6000A9F919E02079052802DD0520207110E07E
:102C7000207918B12079401E20710AE0A07A01283D
:102C800007D10020A07205EB4501891CC8B200F0F5
:102C900091F90020E080207370BD0000E40601205F
:102CA00010B500F051F900F005F800F001F900F05E
:102CB000C1F810BD10B500F053F800F001F810BDD8
:102CC0001CB501214FF4F270FEF746FD00208DF88F
:102CD00004008DF806008DF8070002208DF805002D
:102CE000C001009069461948FEF747FA4FF40050BA
:102CF000009069461648FEF740FA4FF400600090D5
:102D000069461248FEF739FA0420009069461148D6
:102D1000FEF733FA0820009069460E48FEF72DFAB8
:102D20004FF40060009069460B48FEF726FA8020B9
:102D3000009069460948FEF720FA4FF400400090E1
:102D400069460448FEF719FA1CBD00000020024045
:102D500000080240001C024000140240001802401B
:102D60000021284A9172D1721173002018E0642169
:102D7000254A02EB001211810221234A02EB0012C4
:102D800011710021204A02EB001291721E4A02EBDF
:102D90000012D1721C4A02EB00121173411CC8B21E
:102DA0000A28E4DB642218490A87052281F83B20BF
:102DB0006422A1F84820052281F84B206422A1F862
:102DC0005820052281F85B206422A1F868200522A2
:102DD00081F86B200D490C4A11600D4911610D49B4
:102DE00011620D4911630D4911640D4911650D49B9
:102DF00011660D4911670D49C2F880100C49C2F8DF
:102E00009010704784070120E40601209115000806
:102E1000C1150008D9150008F115000809160008A9
:102E20002116000839160008511600086916000816
:102E3000A91500081CB501214FF49270FEF78CFC17
:102E4000012000F097F8022000F094F8032000F031
:102E500091F8042000F08EF801208DF80400002085
:102E60008DF806008DF8070003208DF805004FF45B
:102E70008060009069460B48FEF77FF98020009043
:102E800069460948FEF779F94FF480700090694669
:102E90000548FEF772F90420009069460348FEF7E2
:102EA0006CF91CBD002002400014024000080240E2
:102EB00070B5002016E0002100EB40021E4B03EB32
:102EC0008202516000EB400203EB8202916000EB52
:102ED000400203EB8202517000EB400203F8221023
:102EE000411CC8B20428E6DB144909684FF47A7320
:102EF000B1FBF3F2511EB1F1807F00D31BE0511EF4
:102F00004FF0E023596159170F23002907DA1C07F6
:102F1000260E0B4C01F00F052D1F665503E01C0714
:102F2000250E084C655400BF00214FF0E023996145
:102F30000721196100BF70BD94070120A001002086
:102F400018ED00E000E400E010B5FFF727F9FEF708
:102F5000ABF9FEF7A5FCFDF74FFE10BD10B5002440
:102F600004E02046FFF736FE601CC4B20A2CF8DBF2
:102F700010BD0000411EC8B220B94FF480610A4A5A
:102F8000118310E0012803D18021084A11800AE052
:102F9000022803D1C101054A118004E0032802D1AF
:102FA0000421034A11807047002002401814024097
:102FB000180802400649C97A054A50541146C97A90
:102FC000491CC9B2D1720A2901DB0021D1727047B4
:102FD0008407012010B5FFF7C1FF10BD704741689D
:102FE00051B14168491E416031B9012141700178F8
:102FF000012901D1816841607047000070B5044625
:103000000D46042C06DB124A12A11DA0FFF746F95B
:1030100000BFFEE70120FFF760F904EB4400204900
:1030200001EB8000456004EB440001EB800085600B
:10303000002004EB44011A4A02EB81014870012090
:1030400004EB440102F821000020FFF746F970BDAF
:10305000273500082E2E2F2E2E2F557365722F62C6
:1030600073705F73746D3332663478782F73726364
:103070002F6273705F74696D65722E6300000000CB
:103080004572726F723A2066696C652025732C2038
:1030900066756E6374696F6E20257328290D0A00AA
:1030A000940701202DE9F04104460E461546052EF1
:1030B00000D3761F2848FEF705FE074607EB0608F3
:1030C000012C0FD12548056041462348FEF773FEC9
:1030D00002212148FEF7D8FD012202211E48FEF7F9
:1030E00005FE37E0022C0FD11D48056041461A4805
:1030F000FEF763FE04211848FEF7C6FD01220421F5
:103100001548FEF7F3FD25E0032C0FD115480560A7
:1031100041461148FEF753FE08210F48FEF7B4FD63
:10312000012208210C48FEF7E1FD13E0042C0FD129
:103130000D48056041460848FEF743FE1021064849
:10314000FEF7A2FD012210210348FEF7CFFD01E0AA
:10315000BDE8F08100BFFBE7000C004078010020D3
:103160007C0100208001002084010020074A1268B1
:1031700002F0807242B100BF4FF060421268002A34
:10318000FAD04FF06043187070470000FCED00E08B
:103190002DED028B00BF00BF00BFFFF781FD4FF494
:1031A000FA710020FFF72AFFFEF759FE4FF4FA509C
:1031B000FDF7F0FBA5A0FFF771F8002422E0600006
:1031C00000EE100AB8EE400ADFEDA30A20EE200A56
:1031D000F2EE040A80EE201AB0EE418AB0EE480A00
:1031E000FCF7EEFFF7EE000A30EE200ADFED9B0A57
:1031F00020EE200ABCEEC00A10EE100A984921F811
:103200001400641CA02CDAD3002424E0600000EE3B
:10321000100AB8EE400ADFED900A20EE200AF2EE26
:10322000040A80EE201AB0EE418AB0EE480AFCF79C
:10323000C7FFB1EE400AF7EE000A30EE200ADFEDDC
:10324000870A20EE200ABCEEC00A10EE100A85495B
:1032500021F81400641CA02CD8D34FF42A40FEF7A8
:103260004DFB4FF47A618048FDF7F8FC4FF4FA51BA
:103270007E48FDF765FD9FED7E0A7E4880ED000AE1
:103280009FED7B0A7C4880ED000ADEE07B480078F9
:10329000012852D14FF4706079490860002425E07C
:1032A000784931F81410A1F2FF7104F5FA52764B07
:1032B00003EB820292ED000ADFED740A30EE600A41
:1032C000BDEEC00A10EE102A01FB02F0C11700EBA0
:1032D0001151091301F2FF7100EE101AB8EEC00A85
:1032E000194601EB840181ED000A641CA02CD7D3A0
:1032F00000241EE004F1A001624A32F81110A1F28C
:10330000FF7132F81420A2F2FF7201FB02F0C11724
:1033100000EB1151091301F2FF7100EE101AB8EE23
:10332000C00A04F1A001584A02EB810181ED000AB4
:10333000641CB4F5706FDDD341E05048007802287A
:103340003DD14FF4FA504E4908604FF470641EE0CE
:1033500004F1A0014B4A32F81110A1F2FF7132F8CA
:103360001420A2F2FF7201FB02F0C11700EB115111
:10337000091301F2FF7100EE101AB8EEC00A04F151
:10338000A001414A02EB810181ED000A641CB4F501
:10339000F55FDDD3002410E004F5F550394931F82C
:1033A000100000EE100AB8EE400A04F5FA50364953
:1033B00001EB800080ED000A641CA02CECD33448A3
:1033C000007801281DD14FF47A6232492E48FFF768
:1033D000E1FB002411E02F4800EB840090ED000A8F
:1033E0002D48D0ED000A20EE200ABCEEC00A10EEF7
:1033F000100A1E4921F81400641CB4F57A6F24D217
:10340000E9E72348007802281FD14FF47A62214966
:103410002248FFF7BFFB4FF47A6413E0A4F57A600B
:103420001C4901EB800090ED000A1B48D0ED000A1A
:1034300020EE200ABCEEC00A10EE100A0B4921F85B
:103440001400641CB4F5FA5FE8D31FE748656C6CA0
:103450006F210D0A00000000DB0F49400000FA4414
:10346000F4690120346B0120746C0120188800205D
:103470000000000010000020140000208B0100203C
:103480001C000020F42901201808002000E0FF445F
:103490008C01002018C800200C0000209846002055
:1034A0000000803F000000400000803FB295FA3FDE
:1034B000092D78BF0000803F000000400000803FE1
:1034C0001C72F33FF0CF69BF0000803F0000004056
:1034D0000000803F5483ED3F27E05DBF0000803F48
:1034E000000000400000803F5817E93F9AFA54BF9F
:1034F0000000803F000000400000803FDB5EE63FB0
:1035000045814FBF0000803F0000803F0000000069
:10351000F973653F000000806273705F53746172DD
:103520007454696D6572006273705F537461727474
:103530004175746F54696D6572006273705F537486
:103540006F7054696D65720000000000920E493C76
:10355000B10AC93C2BC3163D2EFB483D752B7B3D64
:1035600004A9963D80B6AF3D36BDC83D2FBCE13DB8
:1035700073B2FA3D87CF093E8340163EB5AB223E7B
:10358000A2102F3ECF6E3B3EC2C5473E0115543EB2
:10359000135C603E7F9A6C3ECCCF783EC07D823E0D
:1035A000938E883E229A8E3E32A0943E86A09A3E0A
:1035B000E59AA03E128FA63ED47CAC3EEF63B23EAD
:1035C0002A44B83E491DBE3E15EFC33E53B9C93E1D
:1035D000CA7BCF3E4136D53E80E8DA3E4F92E03E90
:1035E0007533E63EBBCBEB3EEA5AF13ECBE0F63E0E
:1035F000275DFC3EE4E7003F3D9C033F824B063FD6
:103600009BF5083F6B9A0B3FDA390E3FCDD3103F45
:103610002A68133FD9F6153FC07F183FC6021B3FEB
:10362000D17F1D3FCBF61F3F9967223F25D2243F14
:103630005636273F1594293F4AEB2B3FDE3B2E3F62
:10364000BB85303FC9C8323FF304353F233A373F8B
:103650004268393F3B8F3B3FF9AE3D3F67C73F3F35
:1036600070D8413F01E2433F03E4453F65DE473FF9
:1036700012D1493FF8BB4B3F029F4D3F207A4F3F4D
:103680003D4D513F4918533F31DB543FE595563F7F
:103690005348583F6AF2593F1A945B3F532D5D3FA0
:1036A00005BE5E3F2146603F97C5613F5A3C633F80
:1036B00059AA643F880F663FD86B673F3CBF683F9D
:1036C000A7096A3F0C4B6B3F5E836C3F93B26D3F23
:1036D0009ED86E3F73F56F3F0809713F5213723FDA
:1036E0004714733FDD0B743F0BFA743FC6DE753F22
:1036F00007BA763FC58B773FF853783F9812793FEA
:103700009DC7793F02737A3FBE147B3FCDAC7B3FB0
:10371000283B7C3FC9BF7C3FAC3A7D3FCCAB7D3F73
:1037200023137E3FB0707E3F6DC47E3F580E7F3FB7
:103730006D4E7F3FAB847F3F0FB17F3F97D37F3F7D
:1037400043EC7F3F11FB7F3F0000803F11FB7F3F39
:1037500043EC7F3F97D37F3F0FB17F3FAB847F3FE9
:103760006D4E7F3F580E7F3F6DC47E3FB0707E3FF1
:1037700023137E3FCCAB7D3FAC3A7D3FC9BF7C3F3E
:10378000283B7C3FCDAC7B3FBE147B3F02737A3F2E
:103790009DC7793F9812793FF853783FC58B773FA3
:1037A00007BA763FC6DE753F0BFA743FDD0B743FF8
:1037B0004714733F5213723F0809713F73F56F3F0F
:1037C0009ED86E3F93B26D3F5E836C3F0C4B6B3F58
:1037D000A7096A3F3CBF683FD86B673F880F663FC9
:1037E00059AA643F5A3C633F97C5613F2146603FF9
:1037F00005BE5E3F532D5D3F1A945B3F6AF2593F11
:103800005348583FE595563F31DB543F4918533FE5
:103810003D4D513F207A4F3F029F4D3FF8BB4B3FFC
:1038200012D1493F65DE473F03E4453F01E2433F94
:1038300070D8413F67C73F3FF9AE3D3F3B8F3B3FAD
:103840004268393F233A373FF304353FC9C8323F16
:10385000BB85303FDE3B2E3F4AEB2B3F1594293F83
:103860005636273F25D2243F9967223FCBF61F3F8C
:10387000D17F1D3FC6021B3FC07F183FD9F6153FC1
:103880002A68133FCDD3103FDA390E3F6B9A0B3FB6
:103890009BF5083F824B063F3D9C033FE4E7003F1A
:1038A000275DFC3ECBE0F63EEA5AF13EBBCBEB3E59
:1038B0007533E63E4F92E03E80E8DA3E4136D53E33
:1038C000CA7BCF3E53B9C93E15EFC33E491DBE3E2C
:1038D0002A44B83EEF63B23ED47CAC3E128FA63E83
:1038E000E59AA03E86A09A3E32A0943E229A8E3E51
:1038F000938E883EC07D823ECCCF783E7F9A6C3ED0
:10390000135C603E0115543EC2C5473ECF6E3B3E40
:10391000A2102F3EB5AB223E8340163E87CF093E14
:1039200073B2FA3D2FBCE13D36BDC83D80B6AF3D18
:1039300004A9963D752B7B3D2EFB483D2BC3163DC0
:10394000B10AC93C920E493C00000000920E49BCED
:10395000B10AC9BC2BC316BD2EFB48BD752B7BBD60
:1039600004A996BD80B6AFBD36BDC8BD2FBCE1BDB4
:1039700073B2FABD87CF09BE834016BEB5AB22BE77
:10398000A2102FBECF6E3BBEC2C547BE011554BEAE
:10399000135C60BE7F9A6CBECCCF78BEC07D82BE09
:1039A000938E88BE229A8EBE32A094BE86A09ABE06
:1039B000E59AA0BE128FA6BED47CACBEEF63B2BEA9
:1039C0002A44B8BE491DBEBE15EFC3BE53B9C9BE19
:1039D000CA7BCFBE4136D5BE80E8DABE4F92E0BE8C
:1039E0007533E6BEBBCBEBBEEA5AF1BECBE0F6BE0A
:1039F000275DFCBEE4E700BF3D9C03BF824B06BFD2
:103A00009BF508BF6B9A0BBFDA390EBFCDD310BF41
:103A10002A6813BFD9F615BFC07F18BFC6021BBFE7
:103A2000D17F1DBFCBF61FBF996722BF25D224BF10
:103A3000563627BF159429BF4AEB2BBFDE3B2EBF5E
:103A4000BB8530BFC9C832BFF30435BF233A37BF87
:103A5000426839BF3B8F3BBFF9AE3DBF67C73FBF31
:103A600070D841BF01E243BF03E445BF65DE47BFF5
:103A700012D149BFF8BB4BBF029F4DBF207A4FBF49
:103A80003D4D51BF491853BF31DB54BFE59556BF7B
:103A9000534858BF6AF259BF1A945BBF532D5DBF9C
:103AA00005BE5EBF214660BF97C561BF5A3C63BF7C
:103AB00059AA64BF880F66BFD86B67BF3CBF68BF99
:103AC000A7096ABF0C4B6BBF5E836CBF93B26DBF1F
:103AD0009ED86EBF73F56FBF080971BF521372BFD6
:103AE000471473BFDD0B74BF0BFA74BFC6DE75BF1E
:103AF00007BA76BFC58B77BFF85378BF981279BFE6
:103B00009DC779BF02737ABFBE147BBFCDAC7BBFAC
:103B1000283B7CBFC9BF7CBFAC3A7DBFCCAB7DBF6F
:103B200023137EBFB0707EBF6DC47EBF580E7FBFB3
:103B30006D4E7FBFAB847FBF0FB17FBF97D37FBF79
:103B400043EC7FBF11FB7FBF000080BF11FB7FBF35
:103B500043EC7FBF97D37FBF0FB17FBFAB847FBFE5
:103B60006D4E7FBF580E7FBF6DC47EBFB0707EBFED
:103B700023137EBFCCAB7DBFAC3A7DBFC9BF7CBF3A
:103B8000283B7CBFCDAC7BBFBE147BBF02737ABF2A
:103B90009DC779BF981279BFF85378BFC58B77BF9F
:103BA00007BA76BFC6DE75BF0BFA74BFDD0B74BFF4
:103BB000471473BF521372BF080971BF73F56FBF0B
:103BC0009ED86EBF93B26DBF5E836CBF0C4B6BBF54
:103BD000A7096ABF3CBF68BFD86B67BF880F66BFC5
:103BE00059AA64BF5A3C63BF97C561BF214660BFF5
:103BF00005BE5EBF532D5DBF1A945BBF6AF259BF0D
:103C0000534858BFE59556BF31DB54BF491853BFE1
:103C10003D4D51BF207A4FBF029F4DBFF8BB4BBFF8
:103C200012D149BF65DE47BF03E445BF01E243BF90
:103C300070D841BF67C73FBFF9AE3DBF3B8F3BBFA9
:103C4000426839BF233A37BFF30435BFC9C832BF12
:103C5000BB8530BFDE3B2EBF4AEB2BBF159429BF7F
:103C6000563627BF25D224BF996722BFCBF61FBF88
:103C7000D17F1DBFC6021BBFC07F18BFD9F615BFBD
:103C80002A6813BFCDD310BFDA390EBF6B9A0BBFB2
:103C90009BF508BF824B06BF3D9C03BFE4E700BF16
:103CA000275DFCBECBE0F6BEEA5AF1BEBBCBEBBE55
:103CB0007533E6BE4F92E0BE80E8DABE4136D5BE2F
:103CC000CA7BCFBE53B9C9BE15EFC3BE491DBEBE28
:103CD0002A44B8BEEF63B2BED47CACBE128FA6BE7F
:103CE000E59AA0BE86A09ABE32A094BE229A8EBE4D
:103CF000938E88BEC07D82BECCCF78BE7F9A6CBECC
:103D0000135C60BE011554BEC2C547BECF6E3BBE3C
:103D1000A2102FBEB5AB22BE834016BE87CF09BE10
:103D200073B2FABD2FBCE1BD36BDC8BD80B6AFBD14
:103D300004A996BD752B7BBD2EFB48BD2BC316BDBC
:103D4000B10AC9BC920E49BC000000806C3D00085D
:103D500000000020B8010000F8080008B43D000889
:103D6000B801002000900100CC220008C10530BF3E
:103D700073202802297F0B24803F042136F0FFFFA7
:103D80007F01091E04C10A110102B9207901092C21
:103D90009009228849040910022A706FAA7F7401D1
:103DA000242D01020304043506070809AC7A030A2E
:043DB0001A59161175
:040000050800018965
:00000001FF
