:020000040800F2
:1000000080C70020CD060008A1040008A304000852
:10001000A7040008AB040008AF04000800000000BB
:10002000000000000000000000000000B304000811
:10003000B504000800000000B7040008B904000877
:10004000E7060008E7060008E7060008E7060008DC
:10005000E7060008E7060008E7060008E7060008CC
:10006000E7060008E7060008E7060008E7060008BC
:10007000E7060008E7060008E7060008E7060008AC
:10008000E7060008E7060008E7060008E70600089C
:10009000E7060008E7060008E7060008E70600088C
:1000A000E7060008E7060008E7060008E70600087C
:1000B000E70600085D2F0008E7060008E7060008CD
:1000C000E7060008E7060008E7060008E70600085C
:1000D000E7060008AD2B0008E7060008E706000861
:1000E000E7060008E7060008E7060008E70600083C
:1000F000E7060008E7060008E7060008E70600082C
:10010000E7060008E7060008E7060008E70600081B
:10011000E7060008E7060008E7060008E70600080B
:10012000E7060008E7060008E7060008E7060008FB
:10013000E7060008E7060008E7060008E7060008EB
:10014000E7060008E7060008E7060008E7060008DB
:10015000E7060008E7060008E7060008E7060008CB
:10016000E7060008E7060008E7060008E7060008BB
:10017000E7060008E7060008E7060008E7060008AB
:10018000E7060008E706000800F002F800F060F853
:100190000AA090E8000C82448344AAF10107DA45E2
:1001A00001D100F055F8AFF2090EBAE80F0013F0D4
:1001B000010F18BFFB1A43F00103184714D20000C7
:1001C00034D2000010F8013B0A4413F0030408BFC6
:1001D00010F8014B1D1108BF10F8015B641E05D01B
:1001E00010F8016B641E01F8016BF9D1002D15D0D8
:1001F00010F8014B03F00C030C2BA1EB04040ABF15
:1002000010F8013BA4EB8314A4EB032405F10103D4
:1002100014F8016B5B1E01F8016BF9D5914238BFF0
:1002200010F8013BD1D3704700230024002500269D
:10023000103A28BF78C1FBD8520728BF30C148BF49
:100240000B6070471FB504F066FC1FBD10B510BDF4
:1002500003F070FC1146FFF7F5FF00F009F803F01A
:100260008EFC03B4FFF7F2FF03BC02F03BFC00007E
:100270002DED068BA82002F0B3FB4FF4A06000F038
:1002800045FA02F07DFEA82002F0AAFB02F094FEDF
:1002900002F0E9FE734800F096FB02F071FE4FF4A5
:1002A000E13002F02DFC5321182002F02BFED8E0A3
:1002B0006D4800780028FAD000206B4908706B4820
:1002C0000078002859D06A48008800EE100AB8EE7D
:1002D000400A10EE101A084604F0ACFB41EC1A0B71
:1002E0009FED640B53EC102B04F058F841EC190B04
:1002F0009FED620B53EC102B04F0A8F941EC180BA6
:1003000003F072FF5F4909685F4A42F831005848BC
:10031000408800EE100AB8EE400A10EE101A0846A7
:1003200004F088FB41EC1A0B9FED520B53EC102BA1
:1003300004F034F841EC190B9FED500B53EC102BEB
:1003400004F084F941EC180B03F04EFF4D490968A5
:100350004E4A42F831004B480068401C4949086049
:1003600008460068B0F5006F07DB01200860002038
:100370003E49087001204649087045480078002829
:100380006FD0012424E0404901EBC40090ED000A45
:10039000601E404901EB8000D0ED000A20EE200AEB
:1003A000394901EBC40080ED000A384901EBC40073
:1003B00090ED000A601E374901EB8000D0ED000A85
:1003C00020EE200A314901EBC40080ED000A641CD4
:1003D000B4F5006FD7DB002422E02B4901EBC40009
:1003E00090ED000A04F5806001EBC000D0ED000A3A
:1003F00030EE200A01EBC40080ED000A234901EB36
:10040000C40090ED000A04F5806001EBC000D0ED5F
:10041000000A30EE200A01EBC40080ED000A641CE3
:10042000B4F5806FD9DB9FED1C0A02F005FC0024B7
:100430000EE09FED1A0A144800EB840080ED000ADC
:100440009FED160A114800EB840080ED000A641C41
:10045000B4F5805FEDDB01200449087000200C49F1
:10046000087025E7002001404C20002000200020DB
:100470004E200020000000000000B0406666666666
:1004800066660A40042000201C2100201C71002008
:10049000012000200000002000401C470000000058
:1004A000704700BFFEE700BFFEE700BFFEE700BFEA
:1004B000FEE7704770477047704700000CB500209A
:1004C000019000907648006840F4803074490860DC
:1004D00000BF7348006800F4003000900198401C91
:1004E0000190009818B90198B0F5A04FF1D16C486F
:1004F000006800F4003010B10120009001E00020FD
:1005000000900098012846D165484030006840F0CE
:1005100080506349403108606248006840F44040C0
:10052000604908605E48083000685D49083108602D
:100530000846006840F4004008600846006840F43F
:10054000A05008605848091F0860081F006840F064
:100550008070091F086000BF5148006800F00070FB
:100560000028F9D040F20570504908604C48083026
:10057000006820F003004A49083108600846006816
:1005800040F00200086000BF45480830006800F0F5
:100590000C000828F8D10CBD10B54548006840F49F
:1005A0007000434908603E48006840F001003C4943
:1005B000086000203A4908310860394800683D4920
:1005C0000840374908603C48091D0860081F00685A
:1005D00020F48020091F0860002031490C31086098
:1005E000FFF76CFF4FF0006031498039086010BDA3
:1005F00070B500200022022300240221284D083576
:100600002D6805F00C0020B1042806D0082834D14C
:1006100007E02A4D2A4E356033E02A4D284E3560DA
:100620002FE01F4D2D1D2D68C5F380541C4D2D1D31
:100630002D6805F03F0154B1224DB5FBF1F5184E80
:10064000361D3668C6F3881605FB06F209E01B4D19
:10065000B5FBF1F5124E361D3668C6F3881605FB5C
:1006600006F20F4D2D1D2D68C5F301456D1C6B0065
:10067000B2FBF3F5124E356003E0104D104E3560BD
:1006800000BF00BF064D08352D68C5F303150E4E9B
:10069000705D0B4D2D68C540094E356070BD000082
:1006A000003802400070004008544007003C0240FF
:1006B00088ED00E0FFFFF6FE103000240024F40077
:1006C0000820002000127A000C20002009488047F2
:1006D00009480047FEE7FEE7FEE7FEE7FEE7FEE724
:1006E000FEE7FEE7FEE7FEE704480549054A064B3C
:1006F00070470000990500088901000880C10020AA
:1007000080C7002080C3002080C3002032490143FD
:10071000324A1160704770B5002100230F22C4785F
:100720001CB32E4C246804F4E064C4F5E064C4F304
:100730000721C1F10404E3B20A4144789C40E1B2CC
:100740008478144021430C07210E254C057861550F
:10075000047804F01F050124AC4005786D11AD004C
:1007600005F1E025C5F8004109E0047804F01F0513
:100770000124AC401B4D0678761145F8264070BD2B
:10078000194A0A400243154B1B1F1A60704739B1C2
:10079000124A121D12680243104B1B1D1A6006E01C
:1007A0000E4A121D126882430C4B1B1D1A607047C3
:1007B000042808D14FF0E021096941F004014FF00D
:1007C000E022116107E04FF0E021096921F0040106
:1007D0004FF0E022116170470000FA050CED00E0D7
:1007E00000E400E080E100E080FFFF1F10B5012180
:1007F000080200F0D4FF00214FF4807000F0CFFF1A
:1008000010BD30B50246002000235068F84C20404F
:100810000D790C6844EA0524204350609068F54C3B
:100820002040D1E903542C438D682C434D7944EA90
:10083000450420439060D06A20F470000C7D641E53
:10084000E4B2234340EA0350D06230BD002101608E
:10085000017141718160C1600161012101757047C1
:100860000021E54A1168E54A1140D0E900231A4306
:1008700083681A43C3681A431143E14AC2F8041358
:1008800070470021016041608160C160704721B103
:10089000826842F00102826003E0826822F0010275
:1008A000826070470A4600214168D64B19401143C7
:1008B000416070474162826270470A460021416888
:1008C00021F01F0111434160704738B1CA490968DE
:1008D00041F40001CA4AC2F8041306E0C649096897
:1008E00021F40001C64AC2F80413704738B1C24966
:1008F000096841F48001C24AC2F8041306E0BE4907
:10090000096821F48001BE4AC2F804137047F0B5AB
:1009100004460D4600200021092D11DDE068A5F1F7
:100920000A0606EB4607072606FA07F18843A5F1F3
:100930000A0606EB460603FA06F10843E0600CE0FF
:10094000206905EB4507072606FA07F1884305EB02
:10095000450603FA06F108432061072A0FDA606BA7
:10096000561E06EB86071F2606FA07F18843561E19
:1009700006EB860605FA06F10843606322E00D2ABD
:100980000FDA206BD61F06EB86071F2606FA07F143
:100990008843D61F06EB860605FA06F10843206356
:1009A00010E0E06AA2F10D0606EB86071F2606FAA4
:1009B00007F18843A2F10D0606EB860605FA06F15B
:1009C0000843E062F0BD816841F08041816070477A
:1009D000014600208A6802F080420AB1012000E04E
:1009E0000020704721B1826842F48062826003E097
:1009F000826822F480628260704721B1826842F08E
:100A00000202826003E0826822F002028260704784
:100A100010B50A4600210023416821F46041531EAD
:100A200041EA4331416010BD21B1426842F40062A5
:100A3000426003E0426822F400624260704701466F
:100A4000C86C80B270476C48001D0068704721B1C7
:100A5000826842F48072826003E0826822F48072CD
:100A60008260704721B1826842F40072826003E0C4
:100A7000826822F400728260704738B15E4909686A
:100A800041F400515E4AC2F8041306E05A4909686D
:100A900021F400515A4AC2F804137047F0B50446D5
:100AA0001546002000220026092911DDE068A1F189
:100AB0000A0707EB470C072707FA0CF29043A1F14E
:100AC0000A0707EB470703FA07F21043E0600CE060
:100AD000206901EB410C072707FA0CF2904301EB68
:100AE000410703FA07F210432061A06BC0F30156DF
:100AF000EF1C06F1010CA7EB0C0707EB870C1F2777
:100B000007FA0CF29043EF1C06F1010CA7EB0C075F
:100B100007EB870701FA07F21043A063F0BD10B599
:100B20000A4600210023816B21F44011531E41EA43
:100B30000351816310BD08B5002300930090009B12
:100B40000B440093009B1A6008BD0A46002181688F
:100B500021F470211143816070470A4600218168A9
:100B600021F44011114381607047816841F4800194
:100B700081607047014600208A6802F480020AB151
:100B8000012000E00020704721B1426842F48062F9
:100B9000426003E0426822F480624260704721B103
:100BA000426842F48052426003E0426822F480527C
:100BB0004260704708B5024600200090009201F1A3
:100BC0002800009B184400900098006880B208BD7F
:100BD00010B50B460021D9B2012404FA01F11AB173
:100BE00044680C43446002E044688C43446010BD98
:100BF000FFFEFFFCFDF7FFC004230140E030FCFFD7
:100C000000200140FFFD3FFF0246002013680B401B
:100C10000BB1012000E000207047CA43026070471A
:100C200070B502460020002300240B1255680126EF
:100C30008E4005EA060415681D4015B10CB101206F
:100C400000E0002070BD00220A12D3430360704709
:100C5000016821F0010101600021016041608160B3
:100C6000C160016121214161DB49884204D13D21FC
:100C7000D94A103A91608CE0D7491831884205D1A1
:100C80004FF47461D44A103A916082E0D249303115
:100C9000884205D14FF47411CF4A103A916078E040
:100CA000CD494831884205D14FF07461CA4A103AA3
:100CB00091606EE0C8496031884204D1C749C64A94
:100CC000103AD16065E0C4497831884204D1C44902
:100CD000C14A103AD1605CE0BF499031884204D1EA
:100CE000C049BD4A103AD16053E0BB49A83188429F
:100CF00005D14FF03D51B84A103AD16049E0BA49A8
:100D0000884204D13D21B84A083A116041E0B64911
:100D10001831884205D14FF47461B34A083A116022
:100D200037E0B1493031884205D14FF47411AE4AF1
:100D3000083A11602DE0AC494831884205D14FF0A6
:100D40007461A94A083A116023E0A74960318842DA
:100D500004D1A249A44A121F11601AE0A2497831B5
:100D6000884204D19E49A04A121F116011E09E4999
:100D70009031884204D19B499B4A121F116008E0C0
:100D80009949A831884204D14FF03D51964A121F2B
:100D90001160704710B500220268944B1A40CC686D
:100DA0000B6823434C6923438C692343CC69234359
:100DB0000C6A23434C6A23438C6A23434C6B2343C2
:100DC0008C6B23431A430260426922F00702D1E987
:100DD0000B3423431A4342610B6943604B688360C1
:100DE0008B68C36010BD0021016041608160C160FB
:100DF000016141618161C161016241628162C162DF
:100E0000016341638163704721B1026842F00102CE
:100E1000026003E0026822F001020260704721B123
:100E2000026842F40042026003E0026822F40042D9
:100E30000260704721B1026842F02002026003E0C4
:100E4000026822F02002026070474160704701464C
:100E5000486880B2704722B1036843F400230360FE
:100E600003E0036823F4002303600161704721B1AC
:100E7000026842F48022026003E0026822F48022C9
:100E8000026070470AB1016100E0C160704701462D
:100E900000200A6802F400220AB1012000E00020CC
:100EA0007047014600200A6802F001020AB10120E1
:100EB00000E000207047014600204A6902F0380037
:100EC000704730B503460A4600200024464DAB4229
:100ED00002D24149103901E04349103902F000556E
:100EE0000DB14C6800E00C68414D2C4004EA02054D
:100EF0000DB1012000E0002030BD02463A4B9A427D
:100F000002D23548103801E03748103801F000535C
:100F10001BB1374B0B40C36002E0354B0B40836085
:100F2000704710B501F080034BB122B1436943F023
:100F30008003436103E0436923F080034361802918
:100F40000BD02AB1036801F01E042343036004E0C0
:100F5000036801F01E04A343036010BD70B5024690
:100F6000002000240025204EB24202D21A4B103B32
:100F700001E01D4B103B1F4E0E4036B11E2606EA07
:100F8000D124166806EA040502E0566906F08005D9
:100F900001F000560EB15C6800E01C68144E34404D
:100FA00004EA010616B10DB1012000E0002070BD79
:100FB00002460D4B9A4202D20748103801E00A4817
:100FC000103801F000531BB1094B0B40C36002E025
:100FD000074B0B4083607047106002403D000020CB
:100FE000400F002000003D20106402403F801CF0B4
:100FF0007D0F7D0F3C0F3C0F10B50446984884428E
:1010000008D10121084600F086FB0021012000F0F4
:1010100082FB76E09348844208D10121022000F04F
:101020007AFB0021022000F076FB6AE08E488442C1
:1010300008D10121042000F06EFB0021042000F003
:101040006AFB5EE08948844208D10121082000F053
:1010500062FB0021082000F05EFB52E084488442DD
:1010600008D10121102000F056FB0021102000F0D3
:1010700052FB46E07F48844208D10121202000F045
:101080004AFB0021202000F046FB3AE07A488442E7
:1010900008D10121402000F03EFB0021402000F05B
:1010A0003AFB2EE07548844208D10121802000F0EF
:1010B00032FB0021802000F02EFB22E070488442A9
:1010C00008D10121801500F026FB0021A01500F0B9
:1010D00022FB16E06B48844208D10121401500F044
:1010E0001AFB0021601500F016FB0AE066488442F6
:1010F00007D10121001500F00EFB0021201500F0A2
:101100000AFB10BDF0B50A4600210023002400BFF1
:101110003DE0012505FA01F3156805EA03049C4248
:1011200034D105684F000326BE40B54305601579EC
:101130004E00B5400668354305601579012D02D093
:101140001579022D16D185684F000326BE40B543A0
:10115000856055794E00B5408668354385604568A1
:1011600001268E40B5434560456896798E40B6B2FB
:1011700035434560C5684F000326BE40B543C56092
:10118000D5794E00B540C6683543C560491C102965
:10119000BFD3F0BD4FF6FF710160002101714171B5
:1011A0008171C171704708B54FF480320092009A86
:1011B0000A430092009AC261C161009AC261C26989
:1011C0000092C269009208BD0246002013690B40DC
:1011D0000BB1012000E0002070470146086980B291
:1011E00070470246002053690B400BB1012000E01C
:1011F000002070470146486980B2704701837047FC
:10120000418370470AB1018300E041837047416127
:10121000704742694A4042617047F0B5002300249C
:101220004D07ED0E02FA05F3CE1000F1200555F83A
:1012300026504E07F70E0F26BE40B543CF1000F1E3
:10124000200646F82750CE1000F1200555F826500C
:1012500045EA0304CE1000F1200545F82640F0BD14
:10126000000002400004024000080240000C02405E
:10127000001002400014024000180240001C02400E
:10128000002002400024024000280240F948006883
:1012900040F00100F74908600020F6490831086075
:1012A000F4480068F4490840F2490860F348091D11
:1012B0000860F348EF4984310860F0481038091D90
:1012C0000860EC48006820F48020EA4908600020AB
:1012D000E8490C310860E7498C310860704700210B
:1012E000E44A921C117011460870704710B501460F
:1012F0000022002300204A11012A02D1DD4C23687C
:1013000008E0022A03D1DB4C7034236802E0D94C98
:101310007434236801F01F02012494401C400CB176
:10132000012000E0002010BD38B50020009000240E
:10133000002500BF3120FFF7D9FF05460098401C6B
:1013400000900098B0F5A04F01D0002DF2D03120D0
:10135000FFF7CCFF08B1012400E00024204638BD8F
:1013600001460020C34A106820F0F80040EAC1009E
:1013700010607047C349086070470021BD4A703251
:1013800011701170012802D004280AD104E0012153
:10139000B84A7032117005E00521B64A70321170FA
:1013A00000E000BF00BF7047B7490860704770B5E4
:1013B000049C41EA82150126C6EB530645EA064520
:1013C000054345EA0465AB4E361D356070BDAD4939
:1013D00008667047820142EA0172A64B84331A60A4
:1013E0007047A8498866704710B5830143EA0163D6
:1013F00043EA02739F4C8834236010BDA1490867FB
:101400007047A049C864704702460020994B0833D2
:10141000186820F0EC6042EA01031843954B08334A
:101420001860704702460020924B0833186820F07D
:10143000784042EA010318438E4B08331860704726
:10144000014600208B4A0832106820F00300084350
:101450001060704787480830006800F00C00704743
:1014600001460020834A0832106820F0F00008434B
:1014700010607047014600207E4A0832106820F450
:10148000E05008431060704701460020794A083256
:10149000106820F4604040EAC10010607047F0B569
:1014A000002100220024022500260223714F083764
:1014B0003F6807F00C0121B1042905D0082937D174
:1014C00005E0724F076036E0714F076033E0694F07
:1014D0003F1D3F68C7F38056664F3F1D3F6807F0CA
:1014E0003F036EB16A4FB7FBF3F7DFF888C10CF129
:1014F000040CDCF800C0CCF3881C07FB0CF40CE0F7
:10150000624FB7FBF3F7DFF86CC10CF1040CDCF8A9
:1015100000C0CCF3881C07FB0CF4564F3F1D3F68FE
:10152000C7F301477F1C7D00B4FBF5F7076002E0BD
:10153000564F076000BF00BF4E4F08373F6807F0A7
:10154000F0010909534F7A5C0768D7404760494F5B
:1015500008373F6807F4E051890A4E4F7A5C4768C4
:10156000D7408760434F08373F6807F46041490B15
:10157000484F7A5C4768D740C760F0BD002100F44F
:101580004072B2F5407F0AD13A4A0832116821F41C
:10159000F811414A02401143364A08321160354A77
:1015A00070321268C0F30B031A43324B70331A6067
:1015B00070473549443908607047334940390860FD
:1015C000704736490860704701460020294A8C322E
:1015D000106820F01F004A1E1043264A8C3210600B
:1015E000704701460020234A8C32106820F4F850DE
:1015F0004A1E40EA02201F4A8C32106070470146A2
:1016000000201C4A8C32106820F4401008431060FF
:10161000704701460020174A8C32106820F44000C1
:1016200008431060704701460020124A8C3210684F
:1016300020F4403008431060704719490860704733
:1016400039B10C4A3032126802430A4B30331A6007
:1016500006E0084A303212688243064B30331A6083
:101660007047F9B1034A343212680243014B3433F4
:101670001A601CE000380240FFFFF6EA1030002438
:101680000030002000004742800E47420024F40052
:1016900000127A001C200020FFFCFF0F5C01474273
:1016A000E01147428F4A126882438E4B1A6070479E
:1016B00039B18C4A121D126802438A4B1B1D1A60F5
:1016C00006E0884A121D12688243864B1B1D1A6071
:1016D000704739B1834A0C3212680243814B0C3394
:1016E0001A6006E07F4A0C32126882437D4B0C334D
:1016F0001A60704739B17B4A103212680243794B45
:1017000010331A6006E0774A103212688243754B34
:1017100010331A60704739B1724A243A1268024392
:10172000704B243B1A6006E06E4A243A12688243EA
:101730006C4B243B1A60704739B16A4A203A1268F0
:101740000243684B203B1A6006E0664A203A126862
:101750008243644B203B1A60704739B1614A1C3A9E
:10176000126802435F4B1C3B1A6006E05D4A1C3A5C
:10177000126882435B4B1C3B1A60704739B1594A6F
:10178000143A12680243574B143B1A6006E0554A5C
:10179000143A12688243534B143B1A60704739B1B4
:1017A000504A103A126802434E4B103B1A6006E052
:1017B0004C4A103A126882434A4B103B1A607047F9
:1017C00039B1484A1C3212680243464B1C331A6036
:1017D00006E0444A1C3212688243424B1C331A60B2
:1017E000704739B13F4A2032126802433D4B2033E3
:1017F0001A6006E03B4A203212688243394B20339C
:101800001A60704739B1374A243212680243354BA7
:1018100024331A6006E0334A243212688243314B83
:1018200024331A60704739B12E4A2C3212680243B1
:101830002C4B2C331A6006E02A4A2C321268824361
:10184000284B2C331A60704739B1264A303212685F
:101850000243244B30331A6006E0224A30321268C9
:101860008243204B30331A607047012808D11D494C
:101870003C31096841F008011A4A3C32116007E026
:1018800018493C31096821F00801164A3C321160C0
:10189000704739B1134A273A12780243114B273B5C
:1018A0001A7006E00F4A273A127882430D4B273B05
:1018B0001A7070470B484030006840F0807009494A
:1018C00040310860704701460020064A283A1268F5
:1018D0000A400AB1012000E0002070470149263982
:1018E000087070473438024010B50446FE48844200
:1018F00008D101210846FFF752FF00210120FFF720
:101900004EFF9DE0B4F1804F08D101210846FFF75A
:1019100035FF00210120FFF731FF91E0F3488442B9
:1019200008D101210220FFF729FF00210220FFF743
:1019300025FF85E0EE48844208D101210420FFF70D
:101940001DFF00210420FFF719FF79E0E9488442D8
:1019500008D101210820FFF711FF00210820FFF71F
:101960000DFF6DE0E448844208D101211020FFF70B
:1019700005FF00211020FFF701FF61E0DF488442EE
:1019800008D101212020FFF7F9FE00212020FFF7D8
:10199000F5FE55E0DA48844208D101210220FFF724
:1019A000FEFE00210220FFF7FAFE49E0D5488442FE
:1019B00009D101210804FFF7F2FE00214FF4803025
:1019C000FFF7EDFE3CE0D048844209D101214804F4
:1019D000FFF7E5FE00214FF40030FFF7E0FE2FE0B7
:1019E000CA48844209D101218804FFF7D8FE0021AA
:1019F0004FF48020FFF7D3FE22E0C548844208D18F
:101A000001214020FFF7BAFE00214020FFF7B6FE7B
:101A100016E0C048844208D101218020FFF7AEFEC5
:101A200000218020FFF7AAFE0AE0BB48844207D1CC
:101A300001218015FFF7A2FE0021A015FFF79EFEF1
:101A400010BD00220288A84B98420ED0AC4B9842A1
:101A50000BD0B0F1804F08D0A44B984205D0A44BD6
:101A6000984202D0A34B984204D14FF68F731A408C
:101A70004B881A43A04B984207D0A04B984204D001
:101A80004FF6FF431A400B891A4302804B68C3622A
:101A90000B880385944B984202D0994B984201D110
:101AA0008B7A03860123838270474FF0FF314160B8
:101AB000002101800181418081727047018582820D
:101AC00070470A46002101884FF68F731940114371
:101AD0000180704741627047C16270470146486AA1
:101AE00070470146088D704721B1028842F002021A
:101AF000028004E002884FF6FD731A4002807047AE
:101B000021B1028842F00402028004E002884FF60C
:101B1000FB731A400280704721B1028842F08002B4
:101B2000028004E002884FF67F731A4002807047FB
:101B300002884FF6F7731A40028002880A43028037
:101B4000704702884FF6FF431A40028002880A431A
:101B50000280704721B1028842F00102028004E055
:101B600002884FF6FE731A400280704770B5002459
:101B700000220023058C4FF6FE7635400584028C4A
:101B80008388048B4FF68F752C40B51E2C400D8832
:101B90002C43751E2A408D892A434D882A43524D75
:101BA000A84202D0564DA84213D14FF6F7752A40ED
:101BB000CD892A434FF6FB752A408D882A434FF67C
:101BC000FF652B404FF6FF552B400D8A2B434D8A66
:101BD0002B43838004838D684563028470BD70B598
:101BE000002400220023058C4FF6EF763540058453
:101BF000028C8388048B48F6FF752C404FF6FF4516
:101C00002C400D884FF6FF7606EA05252C434FF64B
:101C1000DF752A408D8906EA05152A434D8806EAB4
:101C200005152A43304DA84202D0354DA8421DD19A
:101C30004FF67F752A40CD894FF6FF7606EA0515E7
:101C40002A434FF6BF752A408D8806EA05152A43B8
:101C50004FF6FF352B404FF2FF752B400D8A06EAF9
:101C600085052B434D8A06EA85052B438380048333
:101C70008D688563028470BD70B500240022002346
:101C8000058C4FF6FF6635400584028C8388848B73
:101C90004FF68F752C404FF6FC752C400D882C4369
:101CA0004FF6FF552A408D894FF6FF7606EA052547
:101CB0002A434D8806EA05252A430B4DA84202D047
:101CC0000F4DA84238D14FF2FF752A40CD894FF60B
:101CD000FF7606EA05252A434FF6FF352A408D8810
:101CE00006EA05252A4319E00000014000040040EF
:101CF00000080040000C00400010004000140040AC
:101D000000040140004001400044014000480140FF
:101D100000180040001C0040002000404EF6FF75F7
:101D20002B404DF6FF752B400D8A06EA05152B4317
:101D30004D8A06EA05152B43838084838D68C5632D
:101D4000028470BD70B5002200230024058C4EF67D
:101D5000FF7635400584038C8488828B48F6FF75B6
:101D60002A404FF6FF452A400D884FF6FF7606EAD7
:101D700005252A434DF6FF752B408D8906EA05356A
:101D80002B434D8806EA05352B43FE4DA84202D071
:101D9000FD4DA84208D14BF6FF752C400D8A4FF639
:101DA000FF7606EA85152C43848082838D6805645E
:101DB000038470BD00210180418081808160818128
:101DC000C18101824182704770B503460020002422
:101DD0001846183001258D40ACB21D8CA5431D84DA
:101DE00009B108290AD100EB610005684FF68F762A
:101DF000354005600568154305600FE00D1FC5F30C
:101E00004E052844056848F6FF76354005600568AC
:101E10004FF6FF7606EA02263543056070BD416342
:101E2000704781637047C1637047016470470A4619
:101E30000021018B4FF68F731940114301837047C6
:101E40000A460021018B48F6FF7319404FF6FF73D5
:101E500003EA02231943018370470A460021818B5C
:101E60004FF68F7319401143818370470A46002152
:101E7000818B48F6FF7319404FF6FF7303EA022384
:101E80001943818370470A460021018B4FF6F7738F
:101E900019401143018370470A460021018B4FF21C
:101EA000FF7319404FF6FF7303EA022319430183BE
:101EB00070470A460021818B4FF6F7731940114392
:101EC000818370470A460021818B4FF2FF731940CE
:101ED0004FF6FF7303EA02231943818370470A46D2
:101EE0000021018B4FF6FB731940114301837047AA
:101EF0000A460021018B4FF6FF3319404FF6FF735E
:101F000003EA02231943018370470A460021818BAB
:101F10004FF6FB7319401143818370470A46002135
:101F2000818B4FF6FF3319404FF6FF7303EA02230C
:101F30001943818370470A460021018B4FF67F7356
:101F400019401143018370470A460021018BC1F3F8
:101F50000E014FF6FF7303EA022319430183704712
:101F60000A460021818B4FF67F731940114381830C
:101F700070470A460021818BC1F30E014FF6FF73B3
:101F800003EA02231943818370470A460021018C2A
:101F90004FF6FD7319401143018470470A46002132
:101FA000018C4FF6F77319401143018470470A46BC
:101FB0000021018C4FF6DF7319404FF6FF7303EADF
:101FC00002131943018470470A460021018C4FF621
:101FD0007F7319404FF6FF7303EA0213194301841C
:101FE00070470A460021018C4FF6FF5319404FF607
:101FF000FF7303EA02231943018470470A46002154
:10200000018C4FF2FF7319404FF6FF7303EA02236E
:102010001943018470470A460021018C4DF6FF7375
:1020200019404FF6FF7303EA0233194301847047E6
:1020300030B5002301248C40A3B2048C9C4304845B
:10204000048C02FA01F5ADB22C43048430BD30B5E6
:10205000002304248C40A3B2048C9C430484048C8D
:1020600002FA01F5ADB22C43048430BD828B4FF2ED
:10207000FF331A408283828B4FF6FF7303EA0123FA
:102080001A4382837047F0B50C46154600210022A2
:102090000026078C4EF6FF7C07EA0C070784818B2D
:1020A000028C4FF6FF7707EA043640F6FF473940C7
:1020B0004FF6FF7707EA052739434FF6FF7707EA20
:1020C0000337394345F6FF773A4046F480573A43A1
:1020D00081830284F0BD828B4FF6F3731A408283B2
:1020E000828B0A4382837047F0B50C461546002167
:1020F00000220026078C4FF6FF6C07EA0C070784C6
:10210000818B028C4FF6FF7707EA04264FF60C7797
:1021100039404FF6FF7707EA03172F4339434FF251
:10212000FF573A4046F480773A4381830284F0BDFA
:10213000028B4FF2FF331A400283028B4FF6FF737C
:1021400003EA01231A4302837047F0B50C46154693
:10215000002100220026078C4FF6EF7C07EA0C07CF
:102160000784018B028C4FF6FF7707EA041640F6CE
:10217000FF4739404FF6FF7707EA033739434FF6F9
:10218000FF7703E0000001400004014007EA052753
:1021900039434FF65F773A4046F010073A430183E0
:1021A0000284F0BD028B4FF6F3731A400283028B58
:1021B0000A4302837047F0B50C4615460021002201
:1021C000068C4FF6FE773E400684018B028C4FF65C
:1021D0000C7631407E1C06EA03162E4331434FF63F
:1021E000F576324044F00106324301830284F0BDAB
:1021F00070B505460C46208850B92389A2886188AD
:102200002846FFF7D8FFE1882846FFF7CBFF25E0F7
:10221000208804280AD12389A28861882846FFF7EC
:1022200094FFE1882846FFF783FF17E020880828FD
:102230000AD12389A28861882846FFF755FFE188E3
:102240002846FFF748FF09E02389A28861882846CD
:10225000FFF719FFE1882846FFF708FF70BD00214E
:1022600001804180012181800021C180018170476E
:102270002DE9F04105460C4600260127608808B983
:10228000022600E00026A088012801D1022700E0F4
:1022900001272088A0B92389A28861882846FFF7F2
:1022A0008AFFE1882846FFF77DFF23893A463146B9
:1022B0002846FFF74AFFE1882846FFF739FF13E079
:1022C0002389A28861882846FFF73FFFE1882846D6
:1022D000FFF72EFF23893A4631462846FFF76BFF6A
:1022E000E1882846FFF75EFFBDE8F0810146486BB4
:1022F00070470146886B70470146C86B70470146BE
:10230000086C70470A884B881A438B881A43CB881D
:102310001A430B891A434B891A438B891A43A0F835
:10232000442070470021018041808180C18001816B
:1023300041818181704731B1B0F8442042F40042BC
:10234000A0F8442005E0B0F84420C2F30E02A0F843
:102350004420704721B1828842F00402828004E068
:1023600082884FF6FB731A408280704721B18288C1
:1023700042F00102828004E082884FF6FE731A4028
:10238000828070471AB183890B43838102E083897D
:102390008B43838170478182704702460020138AF5
:1023A0000B400BB1012000E000207047CA430282BD
:1023B000704730B50246002000230024158A05EA44
:1023C0000103958905EA010413B10CB1012000E075
:1023D000002030BDCA430282704741EA0203A0F8E0
:1023E000483070471AB183890B43838102E08389A7
:1023F0008B438381704721B1828842F0080282803A
:1024000004E082884FF6F7731A4082807047018992
:102410004FF6F8721140018170470A460021018988
:102420004FF68F73194011430181704730B5044650
:102430000D4629462046FFF7F0FF208940F00700AF
:10244000208130BD2DE9F04104460D4616461F4659
:10245000602D06D13B46012231462046FFF775FE2E
:1024600005E03B46012231462046FFF7A4FE2946FF
:102470002046FFF7D2FF208940F007002081BDE809
:10248000F08130B50C4600210189C9B24FF6FF75C5
:1024900005EA0325154325432943018130BD2DE974
:1024A000F04105460E4617469846002443463A46F4
:1024B00031462846FFF7E5FF2C894FF6F8700440B7
:1024C00044F007044FF68F70044044F070042C81F0
:1024D000BDE8F081F0B504460D4616461F463B4662
:1024E000324629462046FFF7CCFF208940F4804041
:1024F0002081F0BD82884FF68F731A4082808288D7
:102500000A438280704702894FF6F8731A400281AD
:1025100002890A430281704702894FF67F731A408D
:10252000028102890A4302817047F0B50C461546C4
:102530001E460021002200230189028B038C4FF6E6
:10254000F877394021434FF6FC473A4040F20117F3
:102550003A434FF6DD773B404FF6FF7707EA061721
:102560002F433B43018102830384F0BD21B1828864
:1025700042F08002828004E082884FF67F731A4026
:1025800082807047A0F850107047000010B50446D4
:10259000FA48844208D101211020FFF700F90021F8
:1025A0001020FFF7FCF857E0F548844209D10121DB
:1025B0004804FFF7E3F800214FF40030FFF7DEF89E
:1025C0004AE0F048844209D101218804FFF7D6F897
:1025D00000214FF48020FFF7D1F83DE0EA48844223
:1025E00009D10121C804FFF7C9F800214FF40020E8
:1025F000FFF7C4F830E0E548844209D1012108051D
:10260000FFF7BCF800214FF48010FFF7B7F823E084
:10261000DF48844208D101212020FFF7C0F80021C3
:102620002020FFF7BCF817E0DA48844209D10121E5
:102630008807FFF7A3F800214FF08040FFF79EF8CE
:102640000AE0D548844207D101214005FFF796F8FA
:1026500000216005FFF792F810BD2DE9FF47054600
:102660000E460024A14600BFA046B08900B100BFBD
:102670002C8A24F44054F08804432C82AC8941F223
:102680000C608443B088318908437189084304434E
:10269000AC81AC8A24F44074B0890443AC826846AF
:1026A000FEF7FDFEB548854202D0B948854202D109
:1026B000DDF80C9001E0DDF80890A88900F40040F6
:1026C00040B109EBC90000EB091031684900B0FBCB
:1026D000F1F707E009EBC90000EB09103168890048
:1026E000B0FBF1F76420B7FBF0F00401200964218E
:1026F00001FB1078A88900F4004040B1322000EBC3
:10270000C800B0FBF1F000F00700044308E03220FD
:1027100000EB08106421B0FBF1F000F00F0004435F
:102720002C81BDE8FF874FF41651016000218180A4
:10273000C18001810C21418100218181704710B548
:1027400002460020108A20F470600B884C882343D6
:102750008C882343CC8823431843108210BD00216A
:10276000018041808180C180704721B1828942F41B
:102770000052828104E082894DF6FF731A40828103
:102780007047028B02F47F420283028B0A4302836A
:10279000704721B1828942F40042828103E082893C
:1027A000C2F30E028281704721B1828A42F4006234
:1027B000828204E0828A4FF2FF731A40828270475D
:1027C000C1F308028280704701468888C0F3080080
:1027D0007047028A4FF6F0731A400282028A0A4357
:1027E0000282704721B1828942F00202828104E0B4
:1027F00082894FF6FD731A408281704782894FF2B9
:10280000FF731A40828182890A4382817047028A5B
:102810004FF6DF731A400282028A0A43028270472F
:1028200021B1028A42F48042028204E0028A4BF61D
:10283000FF731A4002827047818941F00101818152
:10284000704721B1828A42F00802828204E0828AC3
:102850004FF6F7731A4082827047028BD2B202831E
:10286000028B42EA01220283704721B1828A42F040
:102870002002828204E0828A4FF6DF731A4082824D
:10288000704721B1828A42F01002828204E0828A7B
:102890004FF6EF731A4082827047828A4FF6FB73BD
:1028A0001A408282828A0A438282704721B1828AD8
:1028B00042F00202828204E0828A4FF6FD731A40DF
:1028C000828270471AB1838A0B43838202E0838A33
:1028D0008B4383827047F0B5034600240026002511
:1028E000002040F66A17B94200D100BF1846C1F374
:1028F000421401F01F06012707FA06F5012C01D149
:102900000C3004E0022C01D1103000E014301AB178
:1029100007682F43076002E00768AF430760F0BD18
:1029200002460020B1F5007F00D100BF13880B40A4
:102930000BB1012000E00020704701F40072B2F5F5
:10294000007F00D100BFCA430280704770B50246C5
:10295000002400230025002040F66A16B14200D171
:1029600000BFC1F3421501F01F03012606FA03F36D
:10297000012D13D19689334017E00000001001406B
:102980000044004000480040004C0040005000401F
:102990000014014000780040007C0040022D02D16C
:1029A000168A334001E0968A33400C12012606FA5B
:1029B00004F41688344013B10CB1012000E000206B
:1029C00070BD10B50022002340F66A14A14200D168
:1029D00000BF0A1201249440A3B2DC43048010BD5E
:1029E00010B504466FF00400FDF7E2FEE11704EBBA
:1029F0005171C1F3C701394A11701046007800EBDC
:102A00004001C1EBC0104FF6FF7101EAC00034492C
:102A1000088010BD0146314A12784A434FF0E02346
:102A20005A6100229A611A46126942F001021A6143
:102A300000BF4FF0E022106900F001021AB100F46B
:102A40008032002AF5D04FF0E022126922F0010214
:102A50004FF0E0231A6100229A6170470146204A34
:102A600012884A434FF0E0235A6100229A611A46C5
:102A7000126942F001021A6100BF4FF0E0221069B2
:102A800000F001021AB100F48032002AF5D04FF0B4
:102A9000E022126922F001024FF0E0231A610022C5
:102AA0009A61704770B504464FF4077094FBF0F0DC
:102AB000C6B24FF4077094FBF0F100FB114085B2F1
:102AC00005E04FF40770FFF7C9FF701EC6B2002E75
:102AD000F7D115B12846FFF7C1FF70BD2C200020AB
:102AE0002E200020014600BF704700BF4E4A1288CA
:102AF00002F04002002AF9D0C2B24B4B9A807047D4
:102B000010B588B0044601210846FEF799FD012161
:102B10001020FEF7EFFD072209214448FEF77DFB58
:102B200007220A214148FEF778FB4FF4C060069067
:102B300002208DF81C008DF81D0000208DF81E006D
:102B400001208DF81F0006A93848FEF7DBFA029431
:102B50000020ADF80C00ADF80E00ADF81000ADF897
:102B600014000C20ADF8120002A92F48FFF775FDE4
:102B700001212D48FFF7F9FD40212B48FFF7DDFE2D
:102B8000012240F225512848FFF7A5FE25208DF8A7
:102B9000040003208DF805008DF8060001208DF853
:102BA000070001A8FDF7B7FD08B010BD10B540F251
:102BB00025511D48FFF7CAFE10B31B48FFF704FE5E
:102BC000C4B21B48008800F40040C8B91848008807
:102BD00000F4804060B10A2C03D000201449088022
:102BE00020E01348008840F400401149088019E0B3
:102BF0000D2C06D10E48008840F480400C49088016
:102C000010E00B480088C0F30D000A490C54084836
:102C10000088401C0649088008460088C72801DD56
:102C20000020088010BD000000100140000002409C
:102C3000342000205420002030B52DED0C8B85B0C1
:102C4000B0EE408A012300229902684600F016FE89
:102C50009A49684600F0F4FD4FF48062984997481D
:102C600000F044FA964890ED050AF0EE408A0625F9
:102C700013E0934800EB850090ED000AB4EEE80AFB
:102C8000F1EE10FA07DD8E4800EB850090ED000AAA
:102C9000F0EE408A2C46681C85B2B5F5007FE8DB73
:102CA00000EE104AF8EEC00A9FED861A80EE810A07
:102CB00020EE080A844880ED000A804A02EBC40036
:102CC00090ED000A10EE101A084601F0B3FE41EC38
:102CD0001B0B012000EB4400784A02EB800090EDD2
:102CE000000A10EE101A084601F0A4FE41EC1C0B7D
:102CF000B0EE4B1AF0EE6B1AB0EE4C0AF0EE6C0A26
:102D000001F0CEF8B0EE40AAF0EE60AA9FED6F0B96
:102D100053EC102B51EC1A0B01F098FC41EC190B01
:102D200001F062FA6B4908600123002299026846AB
:102D300000F0A4FD6849684600F082FD4FF480620F
:102D40006649654800F0D2F9644890ED050AF0EE56
:102D5000408A062513E0614800EB850090ED000AEB
:102D6000B4EEE80AF1EE10FA07DD5C4800EB8500EE
:102D700090ED000AF0EE408A2C46681C85B2B5F54D
:102D8000007FE8DB00EE104AF8EEC00A9FED4D1A16
:102D900080EE810A20EE080A514880ED000A4E4A72
:102DA00002EBC40090ED000A10EE101A084601F084
:102DB00041FE41EC1B0B012000EB4400464A02EBB4
:102DC000800090ED000A10EE101A084601F032FE65
:102DD00041EC1C0BB0EE4B1AF0EE6B1AB0EE4C0A45
:102DE000F0EE6C0A01F05CF8B0EE40AAF0EE60AADA
:102DF0009FED360B53EC102B51EC1A0B01F026FC17
:102E000041EC190B01F0F0F93649086018EE100A90
:102E100001F010FE41EC1D0B9FED330B53EC102B1A
:102E200001F014FC41EC1C0B9FED310B53EC102B0B
:102E300001F0B4FA41EC1A0B264890ED000A29483B
:102E4000D0ED000A30EE600A10EE101A084601F0CC
:102E5000F1FD41EC1B0B53EC1A2B01F0F7F941EC9F
:102E6000190B01F0C1F924490860084690ED000AE9
:102E7000DFED220AB4EEE00AF1EE10FA07DB90ED86
:102E8000000ADFED1E0A30EE600A80ED000A1A48E3
:102E900090ED000ADFED1A0AB4EEE00AF1EE10FA46
:102EA00007D890ED000ADFED150A30EE200A80ED1C
:102EB000000A05B0BDEC0C8B30BD00001C210020C9
:102EC0001C61002000008044402000206666666689
:102ED00066A64C40382000201C7100201CB1002048
:102EE000442000203C20002000000000000014408E
:102EF000000000000088E340482000200000B443A8
:102F00000000B4C37FB505460C4601210220FEF740
:102F1000E0FB0295ADF804400020ADF80600ADF8E6
:102F20000C0001A91448FEF78CFD0122114612483D
:102F3000FFF728FA01211048FEF70CFE1D208DF83E
:102F4000000001208DF8010003208DF8020001200F
:102F50008DF803006846FDF7DEFB7FBD10B501214B
:102F60000548FFF726FA012801D10449087001211C
:102F70000148FFF72FFA10BD000400404C2000204C
:102F80001CB501210846FEF75BFB042000900120E0
:102F90008DF8040000208DF8060002208DF8050051
:102FA00004210448FEF72CF969460248FEF7AAF806
:102FB0001CBD00000000024000B58DB00121084694
:102FC000FEF73EFB01210802FEF794FB60200B9008
:102FD00003208DF8300000208DF833000BA93E4807
:102FE000FEF790F801210802FEF7D9FB00214FF40B
:102FF0008070FEF7D4FB002007904FF420600A9009
:103000004FF4804009908000089007A8FDF728FC45
:103010000020019001208DF808008DF809000020A3
:103020000390059002208DF8180001A92B48FDF7A8
:10303000E8FB01212948FDF72AFC01212748FDF77B
:1030400006FD0323012205212448FDF760FC03232C
:10305000022206212148FDF75AFC01211F48FDF7F5
:1030600001FD0DB000BD00B58FB01D48006840F4F3
:1030700080001B490860022004900020009003900B
:103080000B901848029000200D904FF400500890CB
:10309000C01006908010099010484C30019000201C
:1030A0000E90C8140790002005904FF400300A904D
:1030B00069460D48FDF76EFE01210B48FDF7A4FEA1
:1030C00010210948FDF774FF012210210648FDF781
:1030D00028FF0FB000BD00000000024000200140AA
:1030E000303802404E200020106402409FED3A0A22
:1030F0005FEA920C53D000BFF0EC010A0B1DB0EC5C
:10310000011A60EEA00A41EE010AF5EEC00AF1EEE6
:1031100010FAC6BFB1EEE01A81ED001A81ED000A87
:10312000F0EC010A191DB0EC011A60EEA00A41EEA4
:10313000010AF5EEC00AF1EE10FAC6BFB1EEE01AD0
:1031400083ED001A83ED000AF0EC010A0B1DB0ECD0
:10315000011A60EEA00A41EE010AF5EEC00AF1EE96
:1031600010FAC6BFB1EEE01A81ED001A81ED000A37
:10317000F0EC010A191DB0EC011A60EEA00A41EE54
:10318000010AF5EEC00AF1EE10FAC6BFB1EEE01A80
:1031900083ED001A83ED000ABCF1010CACD112F0F2
:1031A000030208BF704700BFF0EC010A0B46B0EC09
:1031B000011A091D60EEA00A41EE010AF5EEC00AEF
:1031C000F1EE10FAC6BFB1EEE01A83ED001A83EDFE
:1031D000000A521EE8D17047000000002DE9F04FB0
:1031E0008D082DED048B82B00026AC463446019547
:1031F00006EB0C0909EB0C0A0AEB0C0800EBC607FE
:1032000000EBC90900EBCA0A00EBC80897ED003AC9
:10321000D9ED003ADAED006A98ED006A97ED010AFF
:10322000DAED014A33EE265A73EE860A99ED014A29
:10323000D8ED015A30EE241A4FEA440B02EBCB0EC4
:1032400070EE644A74EE251A35EE200A9EED002ACF
:10325000DEED012A87ED000A31EE210A73EEC63A4F
:1032600034EE656A87ED010A35EE600A33EE663AA0
:1032700071EE610A02EBC40774EEE35A33EE064ABC
:1032800097ED005A73EEA41AD7ED014A33EE461AB1
:1032900024EE056A0BEB040725EE855A02EBC707FF
:1032A00060EE026A65EEA45A24EE244A97ED003AD5
:1032B000D7ED013A60EEA24A20EE822A21EE037A8F
:1032C00020EE220A61EEA30A21EE833A61EE231A70
:1032D00076EEA42A32EE400A36EE251A75EE443A0E
:1032E000C9ED002A77EE200A89ED010A73EE611A12
:1032F0008AED001ACAED013AC8ED000A761CC8ED45
:10330000011A1C446D1E7FF473AF4FF6FF7404EA7C
:10331000830B019B0093042B7DD966464FEA9C0CDE
:103320004FF00008C146ACF1010E00BF4FEA480360
:1033300003EB080402EBC30302EBC80593ED003A6C
:10334000D3ED014A02EBC40395ED005AD5ED015AC5
:1033500093ED006A93ED014AD8444B4603EB0C040D
:1033600004EB0C0707EB0C0A00EBC30500EBC707E7
:1033700000EBC40400EBCA0AD5ED003A97ED007AE1
:10338000D4ED008A9AED008A95ED010AD4ED010A88
:10339000D7ED017ADAED011A33EEC72A70EE676ACB
:1033A00070EEE12A33EE877A78EE883A30EE270A1B
:1033B00038EEC81A70EEA11A72EE227A32EE622A44
:1033C00077EE232A70EE618A36EEC18A30EE210A4A
:1033D00077EE630A31EE261AC5ED002A85ED010A63
:1033E00028EE050A67EE856A28EE258A20EE837AA4
:1033F00020EEA49A68EE831A62EE062A61EE063A7F
:1034000062EE040A67EEA57A68EEA48A21EE041A39
:1034100036EE882A00E027E077EE286A71EEC91AB6
:1034200030EE670AC4ED006A32EE811AC4ED011A6B
:1034300073EEE00A87ED002A87ED010A8AED001A93
:103440003344CAED010A8B4288D309F10109F145E1
:103450007FF66CAF4FF6FF7303EA8B0B009B9B0864
:103460000093042B3FF659AFDDF8041090ED000AED
:10347000D0ED042A90ED025A90ED031AD0ED064AE1
:1034800090ED073A30EE222AD0ED011AD0ED050A70
:1034900075EE243A31EE034A30EE620A71EEA02A4C
:1034A00031EE431A32EE233A71EEE00A75EE641AF9
:1034B00072EE844A32EE632A72EEC43A80ED003A2C
:1034C00070EE012AC0ED014A30EEE14A80ED022A99
:1034D00030EE410AC0ED033A71EEA00AC0ED042AB5
:1034E00080ED054A80ED060AC0ED070A2030491E2E
:1034F000BCD102B0BDEC048BBDE8F08F2DE9F04FDC
:103500004FEA910A2DED048B82B00024D446A046E8
:10351000CDF804A004EB0C0505EB0C0606EB0C093A
:1035200000EBC40700EBC60600EBC50500EBC909BC
:10353000D7ED011AD6ED012A95ED006AD9ED006AA2
:10354000D7ED005A96ED007AD5ED010A99ED011AF2
:1035500036EE262A71EEA23A35EE873A71EEE21A7D
:1035600030EE815A70EEC12A4FEA480B02EBCB0EC7
:1035700073EE020A9EED004ADEED014AC7ED000A35
:1035800073EE850A36EE666A75EEC75AC7ED010A14
:1035900033EE422A02EBC80731EE861A33EEC53A03
:1035A00071EEC61A97ED006A97ED015A75EEE20AC0
:1035B0000BEB080702EBC70775EEA22AD7ED005AFE
:1035C000D7ED013A60EE866A22EE047A62EEA57AC1
:1035D00023EE044A21EE066A61EEA55A60EE850AE2
:1035E00023EE243A22EE242A21EE051A61EEA31AD4
:1035F00062EEA32A76EE203A37EE433A74EE020AE0
:1036000036EEC11A85ED003A77EEE11AC5ED010AF2
:1036100035EEA22A86ED001AC6ED013AC9ED001A70
:10362000641C89ED012A9844BAF1010A7FF472AF53
:103630004FF6FF7404EA830B019B0093042B7CD9A3
:1036400066464FEA9C0C4FF00008C146ACF1010EF3
:103650004FEA480303EB080402EBC30302EBC8057F
:10366000D3ED003A93ED017A02EBC403D5ED006A85
:10367000D5ED015AD3ED004A93ED013AD8444B46BB
:1036800003EB0C0404EB0C0707EB0C0A00EBC3057F
:1036900000EBC70700EBC40400EBCA0A95ED012A52
:1036A00097ED018A95ED001AD4ED008AD4ED017AE8
:1036B00097ED009ADAED001ADAED010A32EE485A77
:1036C00071EE492A38EEE14A32EE082A37EEA08A36
:1036D00037EEE06A78EEA11A31EE091A75EE048A27
:1036E00072EEC67A72EE862A71EE610A31EE211A06
:1036F00035EE444A32EE489A85ED001A32EE081A49
:1037000028EEA66A27EEA65A68EEA58A85ED011A6C
:1037100020EEA31A69EE231A22EEA42A24EE248AAC
:1037200067EEA57A29EE079A60EE870A24EE034A2F
:1037300062EE832A35EE685A00E027E036EE276A0B
:1037400071EE497A31EEA01A72EE440AC4ED007AA5
:1037500084ED011A78EE221A87ED005A87ED016A8E
:10376000CAED000A3344CAED011A8B4288D309F12D
:103770000109F1457FF66CAF4FF6FF7303EA8B0B3F
:10378000009B9B080093042B3FF65AAFDDF8041012
:1037900090ED003AD0ED044AD0ED032A90ED071ADF
:1037A00090ED024AD0ED061AD0ED013AD0ED050AAF
:1037B00033EE242A72EE815A33EE643A34EE215A03
:1037C00073EEA04A73EEE03A32EEC11A74EE610A6B
:1037D00032EE454A72EE052A74EEA51A34EEE55A29
:1037E00073EE414A33EEA02A33EE011A33EEE03A8B
:1037F00062EE805A61EE800A64EE003A65EE002ABD
:10380000C0ED005A64EE801AC0ED010A22EE002AD3
:10381000C0ED023A21EE004AC0ED032A23EE001A61
:10382000C0ED041A80ED052A80ED064A80ED071AE6
:103830002030491EACD102B0BDEC048BBDE8F08F46
:1038400070B504460D4680782188A38962680128F6
:103850000ED02846FFF7C2FCE078012818BF70BDE3
:10386000E28921882846A368BDE8704000F066B868
:1038700094ED040A2846FFF741FEEDE710B40180FD
:10388000234C446082704FF0000CC370B1F5807F10
:1038900020D004DC10292FD0402906D122E0B1F538
:1038A000806F0FD0B1F5805F04D04FF0FF3C10BCAB
:1038B0006046704701218181C18116499FED160A3A
:1038C000816016E004218181C18114499FED140AB1
:1038D00081600EE010218181C18112499FED120AA1
:1038E000816006E040218181C18110499FED100A6D
:1038F000816080ED040ADAE74FF480718181C18133
:103900000C499FED0D0A816080ED040ACFE70000AD
:103910002C5300082A4B000800008039304B000867
:103920000000803A484B00080000803BA84B00088C
:103930000000803C284D00080000803D2DE9F0018A
:103940004E0801244FF0000C04EB51076146A6F12C
:1039500002082CE061452AD200EBCC0500EBC10443
:10396000D5ED000A94ED000AC4ED000A85ED000AC9
:10397000D5ED010A94ED010AC4ED010A85ED010AB5
:10398000CC1900EBC4050CEB070400EBC40495ED67
:10399000000AD4ED000AC5ED000A84ED000AD4ED5A
:1039A000010A95ED010AC5ED010A84ED010A00EB5B
:1039B000C104B44400EBCC0C94ED020ADCED000A27
:1039C000891CC4ED020A8CED000ADCED010A94EDBD
:1039D000030AC4ED030A8CED010AB3F800C089B2F2
:1039E00003EB42034145B5D9BDE8F00170472DE92D
:1039F000F00701254C0805EB51064FF0000C651E41
:103A00006146002D88BFA8462ED8BDE8F007704754
:103A1000614529D250F8315050F83C7040F831706F
:103A200040F83C5000EBC10700EBCC097D68D9F8A9
:103A300004A0C7F804A0C9F804508D190CEB0607C0
:103A400050F8359050F837A040F835A040F837903E
:103A500000EBC50500EBC707D5F80490D7F804A024
:103A6000C5F804A0C7F8049000EBC105A444AF68F2
:103A700050F83C90C5F8089040F83C7000EBCC0C36
:103A8000EF68DCF80490C5F80C90CCF80470B3F83B
:103A900000C0891C03EB42034145B9D3BDE8F007E0
:103AA00070472DE9F00F01244D084FF0000C04EB96
:103AB0005107012D9CBFBDE8F00F7047014600EB98
:103AC000870400264FEA550815E000BFBCEB460FFF
:103AD00011D950F82CA0D1F80090C1F800A040F8FE
:103AE0002C900CEB0709D4F800A050F829B0C4F8CA
:103AF00000B040F829A0AC44D1F8049050F82CA0B4
:103B0000C1F804A040F82C90B3F800C00831083484
:103B1000761C03EB4203B8F10108D7D1BDE8F00FE2
:103B2000704770477047704770477047004870474C
:103B30001CC100207546FFF7F9FFAE460500694637
:103B4000534620F00700854618B020B5FCF7CCFDA1
:103B5000BDE820404FF000064FF000074FF000088E
:103B60004FF0000B21F00701AC46ACE8C009ACE80F
:103B7000C009ACE8C009ACE8C0098D4670470446EE
:103B8000AFF300802046FCF76CFB03B401984100C2
:103B9000009850EAC12018BF04204A0D18BF40F019
:103BA000010040F2FF72B2EB515F08BF40F002002B
:103BB000012808BF052002B0704700000000000087
:103BC00070B59D482DED020B2DED068B079D25F060
:103BD0000044A0421DDC9948844202DC0FD10698C3
:103BE00068B19DED060B53EC102B51EC100B00F05F
:103BF0002DFBBDEC068B02B041EC100B70BD002D0F
:103C0000CCBF9FED8F0B9FED900BBDEC068B02B0F0
:103C100070BD8F48A04215DD8E48A042D8BF4FF03E
:103C2000FF3458DD9DED060B51EC100BFFF7ADFF97
:103C3000042808BF00F0A8FA9DED060BBDEC068B2A
:103C400002B070BD9DED060B51EC100B00F0B4FA04
:103C5000CDE9060180489FED828BA0423CDD824881
:103C6000A0421FDD00249FED82AB9DED060B53ECBF
:103C70001A2B51EC100B00F0E9FA9DED060B41EC0C
:103C8000190B53EC1A2B51EC100B00F0DFFC53EC2A
:103C9000182B00F0E5FD53EC192B00F07FFBCDE96C
:103CA000060149E09DED060B012453EC182B51EC65
:103CB000100B00F0CBFA9DED060B41EC190B53EC09
:103CC000182B51EC100B00F0CBFD53EC192B00F02E
:103CD00065FBCDE906012FE06748A0421FDD022405
:103CE0009FED679B9DED060B53EC192B51EC100BD0
:103CF00000F0ACFC53EC182B00F0A8FA9DED060B7D
:103D000041EC180B53EC192B51EC100B00F0A8FDF3
:103D100053EC182B00F042FBCDE906010CE09DEDC1
:103D2000060B032453EC102B9FED570B51EC100B9B
:103D300000F034FBCDE906019DED060B53EC102B92
:103D400051EC100B00F082FC41EC180B53EC182BDB
:103D500000F07CFC41EC190B4D480621B0EE490AFD
:103D6000F0EE690A784400F093F953EC182B51EC0B
:103D7000100B00F06BFC41EC180B4648B0EE490A02
:103D8000F0EE690A0521784400F082F953EC192B12
:103D900051EC100B00F05AFC41EC100B51EC180BDD
:103DA00053EC102B002C0EDA00F050FA9DED061BA0
:103DB00053EC112B00F04AFC9DED061B53EC112B2C
:103DC00000F042FD35E000F041FA9DED061B53EC9A
:103DD000112B00F03BFC41EC100B2F48784400EB1A
:103DE000C40090ED001B51EC100B53EC112B00F0B4
:103DF00037FD9DED061B53EC112B00F031FD41EC1E
:103E0000100B2648784400EBC40090ED001B51ECE9
:103E1000100B53EC112B00F017FD41EC100B002D93
:103E2000A2BFBDEC068B02B070BD51EC100B00F0D0
:103E3000CFF941EC100B01E7000010440000F07FC7
:103E4000182D4454FB21F93F182D4454FB21F9BF90
:103E50000000DC3F0000203E0000F33F00000000B7
:103E6000000000000000F03F0000E63F00000000FE
:103E7000000000000000004000800340000000003F
:103E8000000000000000F83F000000000000F0BF4C
:103E900030960000E695000070950000289500001F
:103EA00070B56B4E2DED040B2DED028B82B0DDF85D
:103EB0001CC0DDE905235C422CF000411C4341EAB3
:103EC000D474049D22F00040B44205D86C422C43C7
:103ED00040EAD474B44210D99DED060B53EC102B7C
:103EE0009DED040B51EC100B00F0B0F941EC100B00
:103EF00002B0BDEC028B04B070BDACF14054A4F133
:103F00007F641C430BD0022404EAAC7444EAD274EC
:103F100005439FED518B9FED522B07D010E09DED97
:103F2000040B51EC100B00F03FF939E0002C14BFEA
:103F3000012C9DED040BDBD0022C34D0032C37D0A8
:103F40000B439FED491B9FED4A0B0AD0B14218D19C
:103F5000B04209D121F0804120F0804007910590C6
:103F60000FE0002AC4DA10E0434B7B44002C08BF6A
:103F700093ED000BBCD0012C0CD0022C13D0032CE1
:103F800016D0B04219D1002AB2DAB0EE410AF0EEF2
:103F9000610AADE793ED000B51EC100B00F018F93E
:103FA00041EC100BA4E7B0EE480AF0EE680A9FE778
:103FB000B0EE420AF0EE620A9AE7401A00153C2879
:103FC000C8BF8DED000B19DCBCF1000FBEBF10F1B6
:103FD0003C0F9FED2B0B8DED000B0FDB9DED060BCA
:103FE00053EC102B9DED040B51EC100B00F0D6F9A7
:103FF00000F0E2F800F0D8F8CDE90001002C08BF8D
:104000009DED000B3FF474AF012C10D0022C9FEDFE
:104010001E0B53EC102B9DED000B51EC100B0DD033
:1040200000F01EFC53EC182B00F01AFCB8E70198C6
:1040300080F0004001909DED000B59E700F010FC6E
:1040400053EC182B00F000FCAAE700000000000071
:104050000000F07F00000000182D4454FB210940AF
:10406000182D4454FB2109C0182D4454FB21F9BFDD
:10407000182D4454FB21F93F5A9400000000000021
:104080000000000000000000075C143326A6A13CDD
:1040900070B504462DED028B4D1E00EBC500B0EE51
:1040A000408AF0EE608A90ED000B35F0060017D0E4
:1040B00053EC182B51EC100B00F0C8FA41EC100B2C
:1040C0006D1E04EBC50090ED001B51EC100B53EC82
:1040D000112B00F0BBF841EC100B35F00600E7D1D6
:1040E000022D36D0042D1CD0062D1CBFBDEC028B3A
:1040F00070BD53EC182B51EC100B00F0A7FA94EDA7
:104100000A1B53EC112B00F0A1F853EC182B00F014
:104110009DFA94ED081B53EC112B00F097F841EC3D
:10412000100B53EC182B51EC100B00F08FFA94EDA0
:10413000061B53EC112B00F089F853EC182B00F000
:1041400085FA94ED040B53EC102B00F07FF841EC52
:10415000100B53EC182B51EC100B00F077FA94ED88
:10416000021B53EC112B00F071F853EC182B00F0EC
:104170006DFA94ED001B53EC112B00F067F8BDECC9
:10418000028B41EC100B70BD9FED050B10B553EC8D
:10419000102B51EC100B00F059FA41EC100B10BD34
:1041A000000000000000001010B541EC100BFFF7FC
:1041B00007FD51EC100B10BD82B0CDE9000121F0DC
:1041C000004001909DED000B02B051EC100B7047C8
:1041D00081F00041704780F00040704721F00041BD
:1041E000704720F00040704721F00042A2F1605279
:1041F000B2F5801F01F0004328BFD2F17F6C0BD9CC
:104200005FEA001C43EAC20242EB507018BF7047DD
:1042100028BF20F001007047B2F5801FBCBF1846D0
:1042200070474FEA410C1CF5001F02D2084600F00F
:1042300077BC70B500F0B4FA00000089FFF7F6BF54
:104240004FF00040A0F580007047000010B591EAE3
:10425000030F48BF83F0004300F10A83841A71EB17
:10426000030C05D2121943EB0C03001B61EB0C018C
:10427000DFF824E14FEA1154A4EB135C1EEA430F6C
:1042800018BF9EEA445F73D023EA0E03DCF1200ED0
:1042900021EA045143F4801332D322FA0CFE10EBCE
:1042A0000E0023FA0CFE41EB0E01CCF1200E03FAB6
:1042B0000EFE10EB0E0051F10001B1F5801FCCF1A4
:1042C000200E32D201EB045112FA0EF2BDE810407A
:1042D00058BF7047401C38BF5FEA420218BF7047A2
:1042E000002814BF20F0010041F100014FEA410312
:1042F00013F5001F38BF7047A1F1C04100F09EBA0E
:10430000012A43EB0302ACF1200CDCF11F0E32BF9B
:104310004FF0000E23FA0CF310EB030041EB0451B5
:10432000B4EB115FD0D0A1EB045101F58011490825
:104330005FEA300001EB04510ED350F1000038BFAA
:1043400012FA0EFE08D1BDE81040C9E7401C38BF84
:104350005FEA4202CAD1C3E7BDE810404FEA410319
:1043600013F5001F38BF7047A1F1C04100F066BAD5
:104370009EEA445F08D011EA5E0FBDE8104004BF1A
:1043800001F0004100207047BDE8104070B500F01A
:1043900007FA00BF64FBBE3E0000E0FF2DE9C0410C
:1043A00030B4DFF8A0C23CEA111418BF3CEA131481
:1043B00000F0EC8081EA03051CEA111444EAD5748C
:1043C00018BF1CEA131500F0C780A4EB05044FF0DA
:1043D000004545EAC12145EAC32341EA505143EA79
:1043E000525304F17F74994204F500344FEAC0201F
:1043F0004FEAC22208BF904200F09C804FEA13654A
:104400000FF24016765D4FEA134506FB05F7C7F13C
:10441000807706FB07F74FEAD737A7FB036876429A
:10442000C8F58038A7FB06CE38BFA8F1010807FB06
:1044300008E64FF0000EA6FB028CE6FB03CEDCF193
:10444000000CCEF1004E38BFAEF1010EA6FB0C58A9
:104450004FF000074FF00005E6FB0E87A1FB08C6F2
:10446000A0FB07CE16EB0E0645F10005E1FB076544
:1044700015F1E04E7EBFA4F580345FEA46066D413B
:1044800016F1800745F100054FEA17274FEA066647
:1044900047EA0567A6F1DE46B6F1805F4FEA1525CB
:1044A0001FD9384624F0010C05EBC471BCF1FE6F36
:1044B00001EB0C1102D8F0BCBDE8008124425CBFC6
:1044C00001F5801E9EEAC47F02D4F0BCBDE80081E5
:1044D000244238D4F0BCA1F1C041BDE8004100F055
:1044E000ADB94FEAD22242EA43524FEAD323A7FBA7
:1044F00002864FEAD02040EA415007FB03661EEADD
:104500000E0F4FEAD12105FB026658BFA6EB0056FD
:10451000B6EB00564FEA520E4EEAC37E18EB0E0E73
:1045200056EB530EBDD518EB02085E417F1C55F1CA
:104530000005B6E74FF480154FF000074FF0000676
:104540004FF00008ADE7F0BC4FF0000001F1C041B2
:1045500001F00041BDE8008111EA0C1F0CEA1315BF
:1045600000D00CE013EA0C1F00F025804FF0000093
:10457000F0BC81EA030101F00041BDE80081F0BC1C
:1045800081EA0301BDE8004100F058B9F0BCBDE884
:10459000004170B500F004F9097EFC3E00F007B858
:1045A00081EA03014FF0000001F00041704781EA09
:1045B000030100F043B9F0BC4FF000002249BDE810
:1045C00000417047FFFDFBF9F7F5F4F2F0EEEDEB7B
:1045D000E9E8E6E4E3E1E0DEDDDBDAD8D7D5D4D301
:1045E000D1D0CFCDCCCBCAC8C7C6C5C4C2C1C0BF4D
:1045F000BEBDBCBBBAB9B8B7B6B5B4B3B2B1B0AF53
:10460000AEADACABAAA9A8A8A7A6A5A4A3A3A2A136
:10461000A09F9F9E9D9C9C9B9A99999897979695F1
:1046200095949393929191908F8F8E8E8D8C8C8B8D
:104630008B8A898988888787868585848483838215
:10464000828181800000FF070000F87FDFF848C109
:1046500070B51CEA111E1EBF1CEA13159EEA0C0F52
:1046600095EA0C0F00F06F8081EA030423EA4C13F3
:104670004EEAD47E21EA4C1141F4801143F48013B8
:10468000AE44A1FB024CA0FB0365AEF17F7E361960
:1046900055EB0C05A1FB034C4CF10003A0FB021CE5
:1046A00016EB0C06654153F10003094218BF46F0B2
:1046B000010613F4007F0BD14FEA03314FEA0530B6
:1046C000340341EA155140EA16506FF003020AE044
:1046D0004FEAC3214FEAC520F40241EA555140EAAE
:1046E00056506FF0020202EB2E4201EB025585EAB2
:1046F000CE710AD05FEA440C18BF24F0004450F198
:10470000000041F1000120EAD47040F2FE7C6245D5
:1047100000D270BDA84214BF4FF080444FF0404417
:10472000002E08BF0024BEF1806FA8BFA1F1C041D8
:10473000BDE8704080F282804FF0000001F1C0417E
:1047400001F0004170479EEA0C0F0CEA131518BFE8
:1047500095EA0C0F06D04FF0000081EA030E0EF030
:10476000004170BD00F01CF88900013E00F007B860
:1047700000F009B84FEA430C5FEA5C5C08D081EABC
:10478000030100F05BB84FEA410C5FEA5C5CF6D1D4
:104790004FF00000014970470000FF070000F87F5C
:1047A0000EF1020E2EF0030E5EF8046B364205D4B5
:1047B000012A43EB030515F5001F12D8012841EB30
:1047C000010C1CF5001F0CD80ED14FEAD17C15F559
:1047D000001F0CEB4C0C0CF1020C08BF4CEBD37C13
:1047E00004E04FF0080C01E04FEAD37C0CEB4C05E1
:1047F00026FA05F606F00706B6F1040C06D20EEB13
:10480000860CBDE870404CF0010C6047DFE80CF00E
:10481000090B02024FF000414FF00000A1F500210A
:1048200070BD19461046012851EB010418BFD4F59C
:10483000001484BF002001F0004170BD0808A0F5FD
:1048400000114FEA3101704791EA030F10B581F072
:1048500000413FF503AD83F0004300F009B80000CC
:1048600010B591EA030F48BF83F000433FF5F6AC63
:10487000841A71EB030C07D212198CF0004C43EB35
:104880000C03001B61EB0C01DFF8A4E14FEA1154AB
:10489000A4EB135C1EEA430F18BF9EEA445F00F0CE
:1048A000B08023EA6E03524221EA0451C3EB6E0347
:1048B00038BF5B1EDCF1200E25D322FA0CFE10EB74
:1048C0000E0043FA0CFE41EB0E01CCF1200E03FA70
:1048D0000EFE10EB0E0051F10001CCF1200E29D498
:1048E00012FA0EF201EB0451BDE8104058BF7047B8
:1048F000401C1CBFB2F1004F704700280CBF491C80
:1049000020F00100704712EB020E43EB030218BFC8
:104910004FF0010E4EEA4202ACF1200CDCF11E0E0B
:1049200054D943FA0CFE10EB0E0051F1FF31CCF1DB
:104930001E0ED5D50EF1010E12FA0EFE404141EBCE
:10494000010101EB445C5FEA5C5C10D910EBDE70A6
:1049500001EB045138BFBEF1004FBDE8104018BF55
:10496000704700280CBF491C20F00100704730D26E
:104970004FEAD42C11F5001124F400641BD0B1FAD5
:1049800081F20B3AA41AA41ED2F12003914030FA0E
:1049900003F31943904001EBCC71002C01EB04515F
:1049A000BDE81040A8BF704701F1C0414FF00000C2
:1049B00001F000417047B0FA80F310FA03F100D122
:1049C00010BDE41A173C4805C90AE4E701EB04519D
:1049D00010BD491001EB0451BDE810404FEA300012
:1049E00002E04FF0000170474A0008BF0042F8D0D3
:1049F000B2F5001F28BF704701F000414FF00000E2
:104A000070479EEA445F07D011EA5E0FBDE8104090
:104A100004BF002100207047BDE8104070B5FFF7CB
:104A2000BFFE00BF40DFF63E83F0004110467047F6
:104A30000000E0FF43004FEAD30C4FEA3C0C434038
:104A40001FBF40070CF1605113F0FE4F70471CF080
:104A5000006F03D100200CF0004170470CF00043C0
:104A600043EA507010B540EACC0000F00EF800BFE9
:104A7000000000924FEA0001FFF7E0BE4FF0004156
:104A80004FF00000A1F5002170470EF1020E2EF04C
:104A9000030E5EF8044B244204D44FEA4102B2F103
:104AA0007F4F11D84FEA4003B3F17F4F0CD80ED19E
:104AB0004FEAD07CB2F17F4F0CEB4C0C0CF1020CA6
:104AC00008BF4CEBD17C04E04FF0080C01E04FEA4A
:104AD000D17C0CEB4C0324FA03F404F00704B4F18A
:104AE000040C06D20EEB840CBDE810404CF0010C17
:104AF0006047DFE80CF0070802024FF00040A0F525
:104B0000800010BD0846420018BFD2F1807288BFF5
:104B100000F0004010BD4FF04070E1EE100A704709
:104B2000FF2141EAD050C005704700040002000692
:104B30000001000500030007800080048002800659
:104B40008001800580038007400040044002400649
:104B50004001400540034007C000C004C002C00639
:104B6000C001C005C003C0072000200420022006A9
:104B70002001200520032007A000A004A002A00619
:104B8000A001A005A003A007600060046002600609
:104B90006001600560036007E000E004E002E006F9
:104BA000E001E005E003E007100010041002100629
:104BB0001001100510031007900090049002900659
:104BC0009001900590039007500050045002500649
:104BD0005001500550035007D000D004D002D00639
:104BE000D001D005D003D0073000300430023006A9
:104BF0003001300530033007B000B004B002B00619
:104C0000B001B005B003B007700070047002700608
:104C10007001700570037007F000F004F002F006F8
:104C2000F001F005F003F007080008040802080688
:104C30000801080508030807880088048802880618
:104C40008801880588038807480048044802480608
:104C50004801480548034807C800C804C802C806F8
:104C6000C801C805C803C807280028042802280668
:104C70002801280528032807A800A804A802A806D8
:104C8000A801A805A803A8076800680468026806C8
:104C90006801680568036807E800E804E802E806B8
:104CA000E801E805E803E8071800180418021806E8
:104CB0001801180518031807980098049802980618
:104CC0009801980598039807580058045802580608
:104CD0005801580558035807D800D804D802D806F8
:104CE000D801D805D803D807380038043802380668
:104CF0003801380538033807B800B804B802B806D8
:104D0000B801B805B803B8077800780478027806C7
:104D10007801780578037807F800F804F802F806B7
:104D2000F801F805F803F807040004040402040677
:104D30000401040504030407840084048402840637
:104D40008401840584038407440044044402440627
:104D50004401440544034407C400C404C402C40617
:104D6000C401C405C403C407240024042402240687
:104D70002401240524032407A400A404A402A406F7
:104D8000A401A405A403A4076400640464026406E7
:104D90006401640564036407E400E404E402E406D7
:104DA000E401E405E403E407140014041402140607
:104DB0001401140514031407940094049402940637
:104DC0009401940594039407540054045402540627
:104DD0005401540554035407D400D404D402D40617
:104DE000D401D405D403D407340034043402340687
:104DF0003401340534033407B400B404B402B406F7
:104E0000B401B405B403B4077400740474027406E6
:104E10007401740574037407F400F404F402F406D6
:104E2000F401F405F403F4070C000C040C020C0666
:104E30000C010C050C030C078C008C048C028C06F6
:104E40008C018C058C038C074C004C044C024C06E6
:104E50004C014C054C034C07CC00CC04CC02CC06D6
:104E6000CC01CC05CC03CC072C002C042C022C0646
:104E70002C012C052C032C07AC00AC04AC02AC06B6
:104E8000AC01AC05AC03AC076C006C046C026C06A6
:104E90006C016C056C036C07EC00EC04EC02EC0696
:104EA000EC01EC05EC03EC071C001C041C021C06C6
:104EB0001C011C051C031C079C009C049C029C06F6
:104EC0009C019C059C039C075C005C045C025C06E6
:104ED0005C015C055C035C07DC00DC04DC02DC06D6
:104EE000DC01DC05DC03DC073C003C043C023C0646
:104EF0003C013C053C033C07BC00BC04BC02BC06B6
:104F0000BC01BC05BC03BC077C007C047C027C06A5
:104F10007C017C057C037C07FC00FC04FC02FC0695
:104F2000FC01FC05FC03FC0702000204020202066D
:104F30000201020502030207820082048202820645
:104F40008201820582038207420042044202420635
:104F50004201420542034207C200C204C202C20625
:104F6000C201C205C203C207220022042202220695
:104F70002201220522032207A200A204A202A20605
:104F8000A201A205A203A2076200620462026206F5
:104F90006201620562036207E200E204E202E206E5
:104FA000E201E205E203E207120012041202120615
:104FB0001201120512031207920092049202920645
:104FC0009201920592039207520052045202520635
:104FD0005201520552035207D200D204D202D20625
:104FE000D201D205D203D207320032043202320695
:104FF0003201320532033207B200B204B202B20605
:10500000B201B205B203B2077200720472027206F4
:105010007201720572037207F200F204F202F206E4
:10502000F201F205F203F2070A000A040A020A0674
:105030000A010A050A030A078A008A048A028A0604
:105040008A018A058A038A074A004A044A024A06F4
:105050004A014A054A034A07CA00CA04CA02CA06E4
:10506000CA01CA05CA03CA072A002A042A022A0654
:105070002A012A052A032A07AA00AA04AA02AA06C4
:10508000AA01AA05AA03AA076A006A046A026A06B4
:105090006A016A056A036A07EA00EA04EA02EA06A4
:1050A000EA01EA05EA03EA071A001A041A021A06D4
:1050B0001A011A051A031A079A009A049A029A0604
:1050C0009A019A059A039A075A005A045A025A06F4
:1050D0005A015A055A035A07DA00DA04DA02DA06E4
:1050E000DA01DA05DA03DA073A003A043A023A0654
:1050F0003A013A053A033A07BA00BA04BA02BA06C4
:10510000BA01BA05BA03BA077A007A047A027A06B3
:105110007A017A057A037A07FA00FA04FA02FA06A3
:10512000FA01FA05FA03FA07060006040602060663
:105130000601060506030607860086048602860623
:105140008601860586038607460046044602460613
:105150004601460546034607C600C604C602C60603
:10516000C601C605C603C607260026042602260673
:105170002601260526032607A600A604A602A606E3
:10518000A601A605A603A6076600660466026606D3
:105190006601660566036607E600E604E602E606C3
:1051A000E601E605E603E6071600160416021606F3
:1051B0001601160516031607960096049602960623
:1051C0009601960596039607560056045602560613
:1051D0005601560556035607D600D604D602D60603
:1051E000D601D605D603D607360036043602360673
:1051F0003601360536033607B600B604B602B606E3
:10520000B601B605B603B6077600760476027606D2
:105210007601760576037607F600F604F602F606C2
:10522000F601F605F603F6070E000E040E020E0652
:105230000E010E050E030E078E008E048E028E06E2
:105240008E018E058E038E074E004E044E024E06D2
:105250004E014E054E034E07CE00CE04CE02CE06C2
:10526000CE01CE05CE03CE072E002E042E022E0632
:105270002E012E052E032E07AE00AE04AE02AE06A2
:10528000AE01AE05AE03AE076E006E046E026E0692
:105290006E016E056E036E07EE00EE04EE02EE0682
:1052A000EE01EE05EE03EE071E001E041E021E06B2
:1052B0001E011E051E031E079E009E049E029E06E2
:1052C0009E019E059E039E075E005E045E025E06D2
:1052D0005E015E055E035E07DE00DE04DE02DE06C2
:1052E000DE01DE05DE03DE073E003E043E023E0632
:1052F0003E013E053E033E07BE00BE04BE02BE06A2
:10530000BE01BE05BE03BE077E007E047E027E0691
:105310007E017E057E037E07FE00FE04FE02FE0681
:10532000FE01FE05FE03FE07010000000000803FB5
:1053300000000000ECFF7F3FD40FC93AB1FF7F3F70
:10534000C70F493B4EFF7F3FC1CB963BC4FE7F3F1B
:10535000890FC93B13FE7F3F3053FB3B39FD7F3F35
:1053600059CB163C39FC7F3F02ED2F3C11FB7F3FB0
:10537000900E493CC1F97F3F0030623C4AF87F3FC4
:105380004B517B3CACF67F3F38398A3CE6F47F3F9B
:10539000B6C9963CF8F27F3F1C5AA33CE3F07F3F2E
:1053A00069EAAF3CA7EE7F3F9B7ABC3C43EC7F3F72
:1053B000B00AC93CB8E97F3FA69AD53C05E77F3FD4
:1053C0007B2AE23C2BE47F3F2DBAEE3C29E17F3F74
:1053D000B949FB3C00DE7F3F90EC033DAFDA7F3FF5
:1053E0002F340A3D37D77F3FB87B103D98D37F3F9E
:1053F0002CC3163DD1CF7F3F880A1D3DE2CB7F3FB6
:10540000CC51233DCCC77F3FF698293D8FC37F3FCA
:1054100007E02F3D2ABF7F3FFC26363D9EBA7F3FE7
:10542000D56D3C3DEAB57F3F91B4423D0FB17F3F22
:105430002FFB483D0DAC7F3FAF414F3DE3A67F3F83
:105440000E88553D91A17F3F4CCE5B3D189C7F3F20
:105450006814623D78967F3F625A683DB1907F3F05
:1054600038A06E3DC28A7F3FE9E5743DAB847F3F43
:10547000742B7B3D6D7E7F3F6CB8803D08787F3F0D
:105480000ADB833D7B717F3F94FD863DC76A7F3F8A
:105490000A208A3DEC637F3F6A428D3DE95C7F3F95
:1054A000B464903DBF557F3FE786933D6D4E7F3F8F
:1054B00005A9963DF4467F3F0ACB993D543F7F3F77
:1054C000F9EC9C3D8D377F3FCF0EA03D9D2F7F3F58
:1054D0008C30A33D87277F3F3052A63D491F7F3F39
:1054E000BA73A93DE4167F3F2B95AC3D580E7F3F24
:1054F00080B6AF3DA4057F3FBBD7B23DC9FC7E3F20
:10550000DAF8B53DC7F37E3FDD19B93D9DEA7E3F30
:10551000C33ABC3D4CE17E3F8D5BBF3DD4D77E3F5F
:10552000397CC23D34CE7E3FC69CC53D6DC47E3FB6
:1055300036BDC83D7FBA7E3F86DDCB3D69B07E3F3C
:10554000B7FDCE3D2DA67E3FC81DD23DC99B7E3FF7
:10555000B93DD53D3D917E3F895DD83D8B867E3FEF
:10556000377DDB3DB17B7E3FC49CDE3DB0707E3F2E
:105570002EBCE13D88657E3F76DBE43D385A7E3FB8
:105580009AFAE73DC14E7E3F9A19EB3D23437E3F99
:105590007638EE3D5E377E3F2E57F13D722B7E3FD3
:1055A000C075F43D5E1F7E3F2C94F73D24137E3F73
:1055B00073B2FA3DC2067E3F92D0FD3D38FA7D3F80
:1055C0004577003E88ED7D3F2E06023EB1E07D3FEF
:1055D0000295033EB2D37D3FC223053E8CC67D3F7C
:1055E0006EB2063E40B97D3F0541083ECCAB7D3FE3
:1055F00086CF093E309E7D3FF35D0B3E6E907D3F32
:105600004AEC0C3E85827D3F8B7A0E3E74747D3F62
:10561000B708103E3D667D3FCC96113EDE577D3F7C
:10562000CA24133E59497D3FB2B2143EAC3A7D3F85
:105630008340163ED82B7D3F3DCE173EDD1C7D3F7F
:10564000E05B193EBC0D7D3F6BE91A3E73FE7C3F6B
:10565000DE761C3E03EF7C3F38041E3E6CDF7C3F51
:105660007B911F3EAECF7C3FA51E213EC9BF7C3F34
:10567000B6AB223EBDAF7C3FAD38243E8A9F7C3F17
:105680008CC5253E318F7C3F5152273EB07E7C3FFA
:10569000FCDE283E086E7C3F8D6B2A3E3A5D7C3FE7
:1056A00004F82B3E444C7C3F61842D3E283B7C3FDC
:1056B000A2102F3EE5297C3FC99C303E7A187C3FE2
:1056C000D428323EE9067C3FC4B4333E31F57B3FFB
:1056D0009840353E53E37B3F50CC363E4DD17B3F27
:1056E000EC57383E20BF7B3F6CE3393ECDAC7B3F6F
:1056F000CF6E3B3E539A7B3F15FA3C3EB2877B3FD1
:105700003E853E3EEA747B3F4910403EFC617B3F54
:10571000379B413EE74E7B3F0726433EAB3B7B3FFB
:10572000B9B0443E48287B3F4D3B463EBE147B3FCC
:10573000C2C5473E0E017B3F1850493E37ED7A3FC8
:105740004FDA4A3E3AD97A3F67644C3E16C57A3FF3
:1057500060EE4D3ECBB07A3F38784F3E599C7A3F51
:10576000F101513EC1877A3F898B523E02737A3FE5
:105770000115543E1C5E7A3F589E553E10497A3FB3
:105780008F27573EDD337A3FA4B0583E841E7A3FC0
:1057900097395A3E04097A3F6AC25B3E5EF3793F0D
:1057A0001A4B5D3E91DD793FA8D35E3E9DC7793FA0
:1057B000135C603E83B1793F5CE4613E439B793F7B
:1057C000836C633EDC84793F86F4643E4E6E793FA1
:1057D000667C663E9A57793F2204683EC040793F16
:1057E000BA8B693EBF29793F2F136B3E9812793FE0
:1057F0007F9A6C3E4AFB783FAB216E3ED6E3783F02
:10580000B2A86F3E3BCC783F942F713E7BB4783F7B
:1058100051B6723E939C783FE83C743E8684783F54
:105820005AC3753E526C783FA649773EF853783F8D
:10583000CCCF783E773B783FCB557A3ED122783F2C
:10584000A4DB7B3E040A783F56617D3E10F1773F32
:10585000E1E67E3EF7D7773F2236803EB7BE773F00
:10586000C0F8803E51A5773F4ABB813EC58B773F4C
:10587000C07D823E1372773F2240833E3A58773F85
:105880007002843E3C3E773FAAC4843E1724773F93
:10589000CE86853ECC09773FDF48863E5BEF763F7C
:1058A000DA0A873EC4D4763FC1CC873E07BA763F3A
:1058B000938E883E249F763F5050893E1B84763FCE
:1058C000F8118A3EEC68763F8AD38A3E974D763F40
:1058D00007958B3E1B32763F6E568C3E7A16763F8E
:1058E000C0178D3EB3FA753FFCD88D3EC6DE753FBE
:1058F000229A8E3EB3C2753F325B8F3E7BA6753FC8
:105900002C1C903E1C8A753F10DD903E976D753FB4
:10591000DD9D913EED50753F945E923E1D34753F86
:10592000351F933E2717753FBFDF933E0BFA743F39
:1059300031A0943EC9DC743F8D60953E62BF743FD8
:10594000D220963ED5A1743F00E1963E2284743F5A
:1059500017A1973E4966743F1661983E4B48743FC5
:10596000FE20993E272A743FCEE0993EDD0B743F1E
:1059700086A09A3E6EED733F27609B3ED9CE733F63
:10598000AF1F9C3E1FB0733F20DF9C3E3F91733F93
:10599000789E9D3E3972733FB85D9E3E0E53733FB5
:1059A000DF1C9F3EBE33733FEEDB9F3E4714733FC9
:1059B000E59AA03EACF4723FC259A13EEBD4723FCF
:1059C0008718A23E04B5723F33D7A23EF894723FC7
:1059D000C595A33EC774723F3F54A43E7054723FB6
:1059E0009F12A53EF433723FE5D0A53E5213723F9D
:1059F000128FA63E8CF2713F254DA73E9FD1713F7D
:105A00001F0BA83E8EB0713FFEC8A83E578F713F56
:105A1000C486A93EFB6D713F6F44AA3E7A4C713F2C
:105A20000102AB3ED42A713F77BFAB3E0809713FFC
:105A3000D47CAC3E17E7703F153AAD3E02C5703FCF
:105A40003CF7AD3EC6A2703F49B4AE3E6680703FA3
:105A50003A71AF3EE15D703F102EB03E373B703F74
:105A6000CBEAB03E6718703F6BA7B13E73F56F3F4E
:105A7000EF63B23E5AD26F3F5820B33E1BAF6F3F29
:105A8000A5DCB33EB88B6F3FD698B43E30686F3F0D
:105A9000EC54B53E83446F3FE610B63EB0206F3FF6
:105AA000C3CCB63EBAFC6E3F8488B73E9ED86E3FEC
:105AB0002A44B83E5DB46E3FB2FFB83EF88F6E3FE9
:105AC0001EBBB93E6D6B6E3F6E76BA3EBE466E3FF4
:105AD000A031BB3EEB216E3FB6ECBB3EF2FC6D3F0E
