:020000040800F2
:10000000B02F00209D01000879220008F51D00088E
:100010007522000891150008A52F000800000000B7
:10002000000000000000000000000000D1260008D1
:10003000DD1B000800000000F5220008C1270008B1
:10004000B7010008B7010008B7010008B7010008B0
:10005000B7010008B7010008B7010008B7010008A0
:10006000B7010008B7010008B7010008B701000890
:10007000B7010008B7010008B7010008B701000880
:10008000B7010008B7010008B7010008B701000870
:10009000B7010008B7010008B7010008B701000860
:1000A000B7010008B7010008B7010008B701000850
:1000B000B7010008B7010008B7010008B701000840
:1000C000B7010008B7010008B7010008B701000830
:1000D000B7010008612B0008712B0008812B000874
:1000E000B7010008B7010008B7010008B701000810
:1000F000B7010008B7010008B7010008B701000800
:10010000B7010008B7010008B5280008B7010008CA
:10011000B7010008B7010008B7010008B7010008DF
:10012000B7010008B7010008B7010008B7010008CF
:10013000B7010008B7010008B7010008B7010008BF
:10014000B7010008B7010008B7010008B7010008AF
:10015000B7010008B7010008B7010008912B00089B
:10016000B7010008B7010008B7010008B70100088F
:10017000B7010008B7010008B7010008B70100087F
:10018000B7010008B7010008DFF80CD001F030F922
:1001900000480047CD3F0008B02F002006488047A8
:1001A00006480047FEE7FEE7FEE7FEE7FEE7FEE75C
:1001B000FEE7FEE7FEE7FEE74D280008890100089C
:1001C00093081BD090ED000AD0ED011AD0ED020A81
:1001D00090ED031AB0EEC00A81ED000AF0EEE11ACC
:1001E000B0EEE00AC1ED011AF0EEC10A81ED020A9B
:1001F000C1ED030A103010315B1EE3D112F003028F
:1002000008BF7047B2F1004F23D2002AD8BF704711
:10021000001F091F12F0010F07D090ED010A001D09
:10022000B0EEC00A81ED010A091D520808BF7047EF
:1002300090ED010AB0EEC00A81ED010A90ED020ACC
:100240000830B0EEC00A81ED020A0831521EEFD12B
:100250007047B0EC010A521EB0EEC00AA1EC010AD0
:10026000F7D17047F0B4960818BF002722D000BF1E
:1002700090F9004090F901C090F90230002CD8BFED
:10028000C7FA14F490F90350BCF1000FD8BFC7FAB5
:100290001CFC0C70002BD8BFC7FA13F3002DD8BF7D
:1002A000C7FA15F581F801C08B70CD70001D091DCE
:1002B000761EDDD112F0030304BFF0BC7047B3F12A
:1002C000004F33D2002BDCBFF0BC7047421E491EEA
:1002D00013F0010F0BD092F90100002804DC10F19B
:1002E000800F14BF40427F2001F8010F521C5B08B1
:1002F00004BFF0BC704700BF92F90100002804DC85
:1003000010F1800F14BF40427F20487092F9020024
:10031000002804DC10F1800F14BF40427F2001F858
:10032000020F921C5B1EE7D1F0BC704710F9012B45
:10033000002A04DC12F1800F14BF52427F2201F820
:10034000012B5B1EF2D1F0BC7047000030B4930863
:100350004FF000052AD000BF30F902CB30F9024B34
:10036000BCF1000FDCBFD5FA1CFC0FFA8CFC002C92
:10037000DCBFD5FA14F424B2CCEA044C41F804CB27
:1003800030F902CB30F9024BBCF1000FDCBFD5FADB
:100390001CFC0FFA8CFC002CDCBFD5FA14F424B240
:1003A000CCEA044C41F804CB5B1ED5D112F0030219
:1003B00004BF30BC704700BF30F9023B002BDCBFEC
:1003C000D5FA13F31BB221F8023B521EF4D130BC14
:1003D00070470000F0B4930818BF002623D000BF78
:1003E00050F8047B50F8045B002F50F8044B50F891
:1003F00004CBD8BF87FAA6F741F8047B002DD8BFFD
:1004000085FAA6F541F8045B002CD8BF84FAA6F45F
:1004100041F8044BBCF1000FD8BF8CFAA6FC41F8A0
:1004200004CB5B1EDCD112F0030204BFF0BC7047AA
:10043000B2F1004F32D2002ADCBFF0BC7047001F7F
:10044000091F12F0010F0BD04368002B05DCB3F13C
:10045000004F14BF5B426FF0004341F8043F001DA2
:10046000530804BFF0BC70474268002A05DCB2F1B3
:10047000004F14BF52426FF000424A608268002A67
:1004800005DCB2F1004F14BF52426FF0004241F858
:10049000082F08305B1EE7D1F0BC704750F8043BD2
:1004A000002B05DCB3F1004F14BF5B426FF000433B
:1004B00041F8043B521EF1D1F0BC70475FEA930C47
:1004C00026D000BFD0ED003A91ED001AD0ED010A20
:1004D00091ED013A33EE811AD0ED022A70EE830AD3
:1004E00091ED022A90ED030AD1ED031A82ED001A74
:1004F000C2ED010A72EE820A30EE210A1030C2ED1E
:10050000020A82ED030A10311032BCF1010CD9D17C
:1005100013F0030308BF7047B3F1004F2CD2002B38
:10052000D8BF7047001F091F121F13F0010F0AD018
:1005300090ED010AD1ED010A001D091D30EE200ADF
:1005400082ED010A121D5B0808BF704790ED010A99
:10055000D1ED010A30EE200A82ED010A90ED020A87
:10056000D1ED020A0830083130EE200A82ED020A8D
:1005700008325B1EEAD17047B0EC010A5B1EF1EC59
:10058000010A30EE200AA2EC010AF5D1704730B41E
:100590005FEA930C0AD050F8044B51F8045B84FADC
:1005A00015F442F8044BBCF1010CF4D113F0030331
:1005B00004BF30BC7047B3F1004F2CD2002BDCBF1E
:1005C00030BC7047401E491E521E13F0010F08D068
:1005D00010F901CF11F9014FA4440CF3070C02F8F4
:1005E00001CF5B0804BF30BC704790F901C091F99E
:1005F00001405B1EA4440CF3070C82F801C010F903
:1006000002CF11F9024FA4440CF3070C02F802CFF9
:10061000EBD130BC704710F901CB11F9014B5B1ED7
:10062000A4440CF3070C02F801CBF4D130BC7047A2
:10063000F0B45FEA930C12D050F8045B51F8047BDD
:1006400050F8044B51F8046B95FA17F542F8045B27
:1006500094FA16F442F8044BBCF1010CECD113F0FF
:10066000030304BFF0BC704730F902CB31F9024BF1
:100670009CFA14FC22F802CB5B1EF5D1F0BC70474B
:100680002DE9F00F5FEA930C23D000BF50F804ABC4
:1006900051F8048B50F8049B51F8047B50F8046B1C
:1006A00051F8044B50F8045B51F804BB88FA8AF8FF
:1006B00042F8048B87FA89F742F8047B84FA86F4BF
:1006C00042F8044B8BFA85F442F8044BBCF1010C60
:1006D000DCD113F0030304BFBDE8F00F704700BF87
:1006E00050F804CB51F8044B84FA8CFC42F804CB4C
:1006F0005B1EF5D1BDE8F00F7047000070B49FEDB0
:100700003F0A960829D0B446B6F1004F50D2002EC9
:10071000C4BF05460C4620DDD5ED000A94ED001A55
:1007200000EE810AD5ED010A94ED011A00EE810A6E
:10073000D5ED020A94ED021A00EE810AD5ED030A06
:1007400094ED031A10341035BCF1010C00EE810A4F
:10075000E2D100EB061001EB061112F0030223D0E8
:10076000B2F1004F41D2002A1EDD001F091F12F016
:10077000010F07D0D0ED010A91ED011A001D091DEE
:1007800000EE810A52080FD0D0ED010A91ED011A56
:1007900000EE810AD0ED020A91ED021A083008310C
:1007A000521E00EE810AEFD183ED000A70BC704743
:1007B000D0ED000A91ED001A00EE810AD0ED010A99
:1007C00091ED011A00EE810AD0ED020A91ED021AB4
:1007D00000EE810AD0ED030A91ED031A10301031BA
:1007E000761E00EE810AE3D1B7E7F0EC010A521E53
:1007F000B1EC011A00EE810AF7D1D5E70000000044
:100800002DE9F0014FF0000C940811D050F8045B72
:1008100051F8046B2FFA95F72FFA85F82FFA96F511
:100820002FFA86F627FB05CC28FB06CC641EEDD1FB
:1008300012F0030208D000BF10F9014B11F9015B5F
:1008400024FB05CC521EF7D1C3F800C0BDE8F0016F
:1008500070470000F0B40024A44695080ED000BFF5
:1008600050F8046B51F8047BC6FBC74C50F8046B7E
:1008700051F8047BC6FBC74C6D1EF1D112F0030288
:1008800008D000BF30F9026B31F9025BC6FBC54CE2
:10089000521EF7D1C3E9004CF0BC70472DE9FF4F61
:1008A00081B04FF0000C039A634692083AD000BF23
:1008B00050F804AB51F804BB50F8049B51F8048B7A
:1008C0008AFB0BBA50F8047B51F8045B89FB08984B
:1008D00087FB05754FEA9B3B4BEA8A4B1BEB0C0CE5
:1008E0004FEA993943EBAA3349EA884919EB0C0CD2
:1008F0004FEA973743EBA83347EA854750F8046B34
:1009000051F8044B17EB0C0C43EBA53386FB044565
:100910004FEA943444EA854414EB0C0C43EBA533C2
:10092000521EC5D1039A12F00302009251D0B2F1C7
:10093000004F54D2571E002F3BDD061F0D1F12F033
:10094000010F0CD156F8042F55F8044F82FB0442D6
:10095000A40B44EA824414EB0C0C43EBA233D6F80C
:1009600004904FF00002D5F8048014467F101DD08B
:1009700089FB088956F808BF55F808AF4FEA983840
:100980008BFB0AAB48EA894818EB0C0C43EBA93304
:100990004FEA9A3A4AEA8B4A1AEB0202D6F80490D6
:1009A000D5F8048044EBAB347F1EE1D11CEB020C84
:1009B0006341009A521E0CD450F8220051F82210C4
:1009C00080FB0101800B40EA814010EB0C0C43EBF3
:1009D000A1330498C0E900C305B0BDE8F08F50F81A
:1009E000044B51F8045B84FB0554AD0B45EA844588
:1009F00015EB0C0C43EBA433521EF0D1E9E70000D9
:100A00005FEA930C26D000BF90ED000AD1ED000AFA
:100A100090ED012A91ED011A60EE201A90ED020A84
:100A200022EE012AD1ED020A90ED031AC2ED001A5E
:100A3000D1ED031A20EE200A82ED012A61EE210A8F
:100A400082ED020A1030C2ED030A10311032BCF1FF
:100A5000010CD9D113F0030308BF7047B3F1004F65
:100A60002CD2002BD8BF7047001F091F121F13F094
:100A7000010F0AD090ED010AD1ED010A001D091DF8
:100A800020EE200A82ED010A121D5B0808BF7047A4
:100A900090ED010AD1ED010A20EE200A82ED010A53
:100AA00090ED020AD1ED020A0830083120EE200A4A
:100AB00082ED020A08325B1EEAD17047B0EC010AEF
:100AC0005B1EF1EC010A20EE200AA2EC010AF5D12E
:100AD000704700002DE9F0075FEA930C1CBF4FF44C
:100AE0007F452E022ED000BF10F9014B11F9017B7A
:100AF00014FB07F410F9017B11F9018B24F3C714DF
:100B000017FB08F710F9018B11F9019B27F3C717A1
:100B100018FB09F810F9019B11F901AB28F3C7186C
:100B200019FB0AF9E4B205EA07273C4306EA08473D
:100B30003C4329F3C71944EA096442F8044BBCF169
:100B4000010CD1D113F0030304BFBDE8F0077047D7
:100B5000B3F1004F33D2002BDCBFBDE8F007704784
:100B6000401E491E521E13F0010F09D010F901CF8B
:100B700011F9014F1CFB04FC2CF3C71C02F801CF38
:100B80005B0804BFBDE8F007704700BF90F901C0E3
:100B900091F901401CFB04FC2CF3C71C82F801C036
:100BA00010F902CF11F9024F1CFB04FC2CF3C71CF7
:100BB00002F802CF5B1EE9D1BDE8F007704710F9DB
:100BC00001CB11F9014B1CFB04FC2CF3C71C02F8F0
:100BD00001CB5B1EF3D1BDE8F00770472DE9F003B0
:100BE0005FEA930C23D000BF50F8044B51F8045B2C
:100BF00050F8046B51F8047B14FB35F814FB05F432
:100C000016FB37F516FB07F628F3CF3724F3CF385A
:100C100025F3CF3426F3CF35C8EA074642F8046BF4
:100C2000C5EA044442F8044BBCF1010CDCD113F0DA
:100C3000030304BFBDE8F0037047B3F1004F31D2A6
:100C4000002BDCBFBDE8F0037047801E891E921E9A
:100C500013F0010F09D030F802CF31F8024F1CFB1E
:100C600004FC2CF3CF3C22F802CF5B0804BFBDE8A4
:100C7000F0037047B0F802C04C881CFB04FC2CF356
:100C8000CF3CA2F802C030F804CF31F8044F1CFB6F
:100C900004FC2CF3CF3C22F804CF5B1EEAD1BDE864
:100CA000F003704730F802CB31F8024B1CFB04FC18
:100CB0002CF3CF3C22F802CB5B1EF3D1BDE8F0034E
:100CC000704700002DE9F00F5FEA930C30D000BFB1
:100CD00050F8049B51F804AB50F8048B51F8045BB6
:100CE00050F8047B51F8044B50F8046B51F804BBE6
:100CF00059FB0AF958FB05F557FB04F456FB0BF6B4
:100D000005F31E0704F31E0509F31E0806F31E046F
:100D10004FEA480642F8046B7E0042F8046B6D000F
:100D200042F8045B640042F8044BBCF1010CCFD1E3
:100D300013F0030304BFBDE8F00F7047B3F1004F99
:100D400038D2002BDCBFBDE8F00F7047001F091F31
:100D5000121F13F0010F0BD050F804CF51F8044FBD
:100D60005CFB04FC0CF31E0C4FEA4C0C42F804CF65
:100D70005B0804BFBDE8F00F704700BFD0F804C0A7
:100D80004C685CFB04FC0CF31E0C4FEA4C0CC2F8E4
:100D900004C050F808CF51F8084F5CFB04FC0CF37A
:100DA0001E0C4FEA4C0C42F808CF5B1EE6D1BDE8A2
:100DB000F00F704750F804CB51F8044B5CFB04FC77
:100DC0000CF31E0C4FEA4C0C42F804CB5B1EF1D125
:100DD000BDE8F00F70470000DFED190AB5EEC00A5C
:100DE00060EE200ABDEEE01A11EE100AF1EE10FAE4
:100DF00038BF401E00EE100A1349F7EE001AB8EE95
:100E0000C00A30EEC00ADFED0F0A60EE200ABCEE29
:100E1000E00A10EE100AC0F3080000EE100A01EB21
:100E20008000B8EE400A90ED011A70EEC00A90ED15
:100E3000000A71EEE01A21EE800A00EE810A704786
:100E400083F9223E00000044E84100082DE9F0014A
:100E5000D0E90145D0F8007094469E0895ED005AFF
:100E600095ED013AD5ED025AD5ED034A95ED044AC8
:100E7000D4ED000AD4ED011A94ED020A94ED031AA0
:100E8000143530003ED000BFD1ED002A401E65EE83
:100E9000223A43EE203A45EEA13A44EE803A44EE3F
:100EA000013ACCED003A91ED016A25EE062A03EEF7
:100EB000222A05EEA02A04EEA32A04EE002A8CEDD5
:100EC000012AD1ED021A25EE211A03EE061A05EECB
:100ED000A21A04EE821A04EE231A8CED021AD1ED46
:100EE000030A01F1100125EE200A03EE210A05EEA6
:100EF000860A04EE810A04EE020A8CED030A0CF164
:100F0000100CC1D113F003001CD0B0F1004F2AD255
:100F1000002817DDF1EC012A401E25EE222A03EEFF
:100F2000202A05EEA12AF0EE601AF0EE620A04EE25
:100F3000802A04EE012AB0EE401AACEC012AB0EE91
:100F4000420AE7D1C4ED000AC4ED011A84ED020A99
:100F500084ED031A1034114694467F1E7FF47EAF51
:100F6000BDE8F0017047B1EC012A401E65EE022A8F
:100F700043EE202A45EEA12AF0EE601AF0EE420A76
:100F800044EE802A44EE012AB0EE401AECEC012A2D
:100F9000B0EE620AE7D1D5E770B582600160044621
:100FA0001D460901184600F009F8656070BDD2B20F
:100FB00001E000F8012B491EFBD270470022F6E742
:100FC00010B513460A4604461946FFF7F0FF2046BF
:100FD00010BD00F0004230F000400AD0C10D01F514
:100FE0006071C0F3160042EA0151C2084007114384
:100FF000704700200146704730B50B46014600207F
:101000002022012409E021FA02F59D4205D303FACA
:1010100002F5491B04FA02F52844151EA2F101024B
:10102000F1DC30BD2DE9F05F0546002092469B467D
:1010300088460646814640241BE0284641464746EE
:10104000224600F0F6F953465A46C01A914110D391
:1010500011461846224600F0DDF92D1A67EB01080B
:101060004F4622460120002100F0D4F917EB000979
:101070004E41201EA4F10104DFDC484631462A46D9
:101080004346BDE8F09F2DE9FE4F804681EA03000C
:10109000C00F0C46009021F0004123F00045B8EB52
:1010A0000200A94105D24046214690461C460B4607
:1010B000024623F00040104304D14046214603B0CD
:1010C000BDE8F08F270DC7F30A00C3F30A51029061
:1010D000401A0190402866DAC3F3130040F4801BE5
:1010E0000098924620B10023D2EB030A63EB0B0B6E
:1010F00001985946C0F14002504600F08BF906466F
:101100000D4650465946019A00F0A3F910EB08002D
:101110006141002487EA115284EAE7731A433BD005
:10112000009A3AB3019A012A4FEA075210DC001BD9
:1011300061EB02014FF0004202EA0752CDE90042A2
:10114000001C41F5801132462B4600F0A1F9B6E7AC
:10115000001B61EB0201001C41F5801300185B418C
:101160002018A2F5001747EB030140EAD570B61925
:101170006D4111E06D084FEA360645EAC0754FEA49
:101180000752001B61EB0201001C41F58011490868
:101190004FEA30000019514132462B4603B0BDE8FA
:1011A000F04F00F068B90098012240000023D0EB16
:1011B000020263EBE073009821464FEAE074B8EB5B
:1011C000000061EB0401E9E783F000435BE781F095
:1011D000004158E72DE9FE4F81EA030404F0004482
:1011E00021F0004100944FF0000B23F0004350EA3F
:1011F000010402D052EA030404D10020014603B0E6
:10120000BDE8F08FC3F30A54C1F30A552C44A4F28D
:10121000F3340194A0FB0254C1F3130141F4801193
:10122000C3F3130343F4801301FB024400FB034E9A
:10123000840A970A44EA815447EA8357A4FB076863
:1012400002958D0A05FB07854FEA932C04FB0C548D
:101250002705029D4FEA065847EA1637B5EB080501
:101260006EEB070C870E920E47EA811742EA831253
:10127000A7FB0201B6EB0B0164EB00042B0D43EA64
:101280000C335E1844EB1C50DA465146E7FB020172
:10129000C5F313044FEA0B3343EA14534FEA043205
:1012A000019C43EA0603A4F10C040294009CCDE9DE
:1012B00000B400F0EDF8A2E72DE9F04D81EA030457
:1012C00004F0004B21F0004514464FF0000A23F0D3
:1012D000004150EA050220D054EA01021DD0C5F3B6
:1012E0000A570246C5F31303C1F31300C1F30A56AC
:1012F00040F4801543F48013A7EB0608101BD64674
:1013000008F2FD3873EB050002D308F1010801E093
:1013100092185B41B8F1000F03DA00200146BDE8E6
:10132000F08D00204FF48011064684460EE0171B16
:1013300073EB050705D3121B63EB050306434CEA69
:10134000010C49084FEA300092185B4150EA01074E
:10135000EDD152EA030012D082EA040083EA0501CB
:10136000084303D100224FF0004308E0101BAB41BB
:1013700002D20122002302E06FF0010253101AEBA7
:1013800006004CEB085110EB0A0041EB0B01BDE8E5
:10139000F04D00F070B8C1F30A52C1F3130140F2EE
:1013A000FF3341F480119A4202DA0020014670476F
:1013B00040F233439A42A2F2334202DC524200F03E
:1013C00038B800F027B8000030B5002904DB4FF032
:1013D0000044404264EB0101002B04DB4FF0004469
:1013E000524264EB0303994208BF904230BD0000B3
:1013F000064C074D06E0E06840F0010394E8070062
:1014000098471034AC42F6D3FEF7C2FEEC49000810
:101410000C4A0008202A04DB203A00FA02F10020DE
:1014200070479140C2F1200320FA03F31943904022
:101430007047202A04DB203A21FA02F0002170478D
:1014400021FA02F3D040C2F120029140084319462C
:101450007047202A06DBCB17203A41FA02F043EA14
:10146000E07306E041FA02F3D040C2F1200291405D
:1014700008431946704710B5002B08DA401C41F1AB
:10148000000192185B411A4301D120F0010010BD08
:101490002DE9F04D92469B4611B1B1FA81F202E07E
:1014A000B0FA80F220329046FFF7B4FF04460F46B0
:1014B00040EA0A0041EA0B0153465A46084303D169
:1014C00020463946BDE8F08D114653EA010015D09B
:1014D000C8F140025046FFF7ACFF05460E465046A5
:1014E00059464246FFF796FF084301D0012000E02D
:1014F0000020054346EAE0762C4337430A984FEA3A
:101500004453A0EB08004FEAD4240A304FF0000205
:1015100044EA47544FEAD72502D500200146D1E7D7
:10152000010510196941DDE9084500196941BDE867
:10153000F04DA0E770B501EB020410F8015B15F067
:10154000070301D110F8013B2A1106D110F8012B35
:1015500003E010F8016B01F8016B5B1EF9D12B075A
:1015600005D40023521E0FD401F8013BFAE710F80E
:10157000013B02F10202A1EB030303E013F8015B5C
:1015800001F8015B521EF9D5A142D6D3002070BDEF
:1015900000BFFEE7014609B90B487047012901D198
:1015A0000A48FAE7022901D10948F6E7032901D1DF
:1015B0000020F2E7042901D10020EEE7052901D13E
:1015C0000448EAE70020E8E77C090020A411002095
:1015D000CC190020F421002008B525208DF800004A
:1015E00000208DF8020001208DF80300684600F00D
:1015F00045FE26208DF8000001208DF802008DF8B0
:101600000300684600F03AFE27208DF80000022013
:101610008DF8020001208DF80300684600F02EFED0
:1016200047208DF8000005208DF8020001208DF87C
:101630000300684600F022FE08BD000010B52DED45
:10164000028B2C4890ED000ADFED2B0A30EE600A89
:1016500080ED000A01222949FEF7B2FD2748006803
:10166000FFF7B7FC41EC100BB0EE408AF0EE608A59
:1016700053EC182B22A001F097FC26480068401E6E
:1016800024490860012224492248FEF7A3FE22488B
:10169000016822A001F088FC25480088401E00B2A5
:1016A00023490880012223492148FEF74FFE2148A3
:1016B000B0F9001020A001F077FC24480078401C0D
:1016C00040B222490870084690F9001020A001F0AD
:1016D0006BFC012222491D48FEF7C4FD204890F909
:1016E000001020A001F060FC23A001F05DFCBDEC27
:1016F000028B10BD0C000020A4709D3F1000002044
:1017000061726D5F6162735F663332203D202566D2
:101710000D0A0000140000201800002061726D5FA7
:101720006162735F713331203D2025640D0A000032
:101730001C0000201E00002061726D5F6162735FFB
:10174000713135203D2025640D0A00002000002065
:101750007053726333203D2025640D0A00000000A1
:101760002100002061726D5F6162735F7137203DFF
:101770002025640D0A0000002A2A2A2A2A2A2A2A59
:101780002A2A2A2A2A2A2A2A2A2A2A2A2A2A2A2AB9
:101790002A2A2A2A2A2A2A2A2A2A2A0D0A00000064
:1017A00010B52DED028B2B4890ED000AF7EE000AE4
:1017B00030EE600A80ED000A0123274A2749FEF730
:1017C0007DFE25480068FFF704FC41EC100BB0EEED
:1017D000408AF0EE608A53EC182B21A001F0E4FB64
:1017E00024480068401E234908600123224A2349F7
:1017F0002048FEF745FF2048016821A001F0D4FBF6
:1018000024480088401E00B2224908800123224A51
:1018100022492048FEF70CFF1F48B0F9001020A015
:1018200001F0C2FB23480078401E40B221490870F5
:101830000123214A21491F48FEF7A9FE1E4890F9BD
:1018400000101FA001F0B0FB22A001F0ADFBBDEC29
:10185000028B10BD240000202C0000202800002056
:1018600061726D5F6164645F663332203D2025667E
:101870000D0A000030000020380000203400002055
:1018800061726D5F6164645F713331203D20256456
:101890000D0A00003C000020400000203E00002017
:1018A00061726D5F6164645F713135203D20256434
:1018B0000D0A0000420000204400002043000020E8
:1018C00061726D5F6164645F7137203D2025640D36
:1018D0000A0000002A2A2A2A2A2A2A2A2A2A2A2A06
:1018E0002A2A2A2A2A2A2A2A2A2A2A2A2A2A2A2A58
:1018F0002A2A2A2A2A2A2A0D0A00000010B52DEDCC
:10190000028B2B4890ED000ADFED2A0A30EE600AC8
:1019100080ED000A284B05222849FEF7EFFE2648F5
:101920000068FFF756FB41EC100BB0EE408AF0EE7A
:10193000608A53EC182B22A001F036FB2648006881
:10194000A0F57F40FF3824490860244B0522244934
:101950002148FEF7A3FF21480CC822A001F024FB78
:1019600027480088401E00B225490880254B0522E3
:1019700025492348FEF76EFF22480CC823A001F03A
:1019800013FB29480078401E40B227490870274BB6
:10199000052227492448FEF733FF2448016825A083
:1019A00001F002FB29A001F0FFFABDEC028B10BD93
:1019B00048000020CDCC8C3F700000205C0000204F
:1019C00061726D5F646F745F70726F645F663332F3
:1019D000203D2025660D0A0074000020A000002094
:1019E0008800002061726D5F646F745F70726F6455
:1019F0005F713331203D20256C6C640D0A000000BE
:101A0000A8000020C0000020B200002061726D5FBD
:101A1000646F745F70726F645F713135203D202593
:101A20006C6C640D0A000000C8000020D400002087
:101A3000CD00002061726D5F646F745F70726F64BF
:101A40005F7137203D2025640D0A00002A2A2A2ACA
:101A50002A2A2A2A2A2A2A2A2A2A2A2A2A2A2A2AE6
:101A60002A2A2A2A2A2A2A2A2A2A2A2A2A2A2A0DF3
:101A70000A00000010B52DED028B2D4890ED000AF4
:101A8000DFED2C0A30EE200A80ED000A05232A4AF9
:101A90002A49FEF7B5FF284890ED000A10EE101A0B
:101AA0000846FFF796FA41EC100BB0EE408AF0EED4
:101AB000608A53EC182B22A001F076FA25480068C2
:101AC000401C244908600523234A24492148FFF784
:101AD000F9F82148016822A001F066FA254800883B
:101AE000401C00B2234908800523234A234921488A
:101AF000FFF774F82048B0F9001021A001F054FA63
:101B000024480078401C40B2224908700523224A2C
:101B100022492048FEF7DEFF1F4890F9001020A060
:101B200001F042FA23A001F03FFABDEC028B10BD98
:101B3000D8000020CDCC8C3FA8010020EC00002074
:101B400061726D5F6D756C745F663332203D202568
:101B5000660D0A0000010020BC01002014010020D5
:101B600061726D5F6D756C745F713331203D20253E
:101B7000640D0A0028010020D0010020320100205D
:101B800061726D5F6D756C745F713135203D20251C
:101B9000640D0A003C0100204601002041010020A4
:101BA00061726D5F6D756C745F7137203D202564C7
:101BB0000D0A00002A2A2A2A2A2A2A2A2A2A2A2A16
:101BC0002A2A2A2A2A2A2A2A2A2A2A2A2A2A2A2A75
:101BD0002A2A2A2A2A2A2A0D0A0000007047000011
:101BE00000B58BB00121042000F0A2FC01210846C1
:101BF00000F0BEFC08A800F0A9FF40F23F100990D9
:101C00005420ADF820000020ADF82800ADF82200E7
:101C100008A9404800F058FF6020ADF80C000120F2
:101C2000ADF80E009F2005900220ADF8180003A922
:101C3000384800F0CBFE5021364800F02BFF8021C1
:101C4000344800F01EFF0121084600F081FC08A87E
:101C500000F07CFF092009905420ADF820000020FE
:101C6000ADF82800ADF8220008A94FF0804000F040
:101C70002BFF6020ADF80C000120ADF80E00052010
:101C800005900020ADF8180003A94FF0804000F047
:101C90009DFE00214FF0804000F0EAFE05218807FC
:101CA00000F001FF01211B4800F057FE01211948F7
:101CB00000F05FFE0121880700F04FFE0121880738
:101CC00000F057FE0121084600F032FC40F20220ED
:101CD000019002208DF8080003208DF809000020F3
:101CE0008DF80A0001208DF80B0001A90A4800F0C8
:101CF00015F801221146084800F058F80122092180
:101D0000054800F053F80121024800F026FE0BB010
:101D100000BD00000000014000000240F0B50A468E
:101D200000210023002400BF3DE0012505FA01F356
:101D3000156805EA03049C4234D105684F00032668
:101D4000BE40B543056015794E00B5400668354381
:101D500005601579012D02D01579022D16D18568FF
:101D60004F000326BE40B543856055794E00B5400F
:101D7000866835438560456801268E40B5434560D9
:101D8000456896798E40B6B235434560C5684F00C8
:101D90000326BE40B543C560D5794E00B540C66840
:101DA0003543C560491C1029BFD3F0BDF0B50023F1
:101DB00000244D07ED0E02FA05F3CE1000F12005C8
:101DC00055F826504E07F70E0F26BE40B543CF10EC
:101DD00000F1200646F82750CE1000F1200555F8F6
:101DE000265045EA0304CE1000F1200545F82640B0
:101DF000F0BD000008A100200AE00A5C114B9A80A7
:101E000000BF104A128812F0400FFAD0421CD0B224
:101E10002A28F2D300BFFEE70D0A456E74657220D2
:101E2000486172644661756C745F48616E646C658C
:101E3000722C2053797374656D2048616C742E0D7B
:101E40000A0000000010014000B587B001210846DB
:101E500000F06EFB0121102000F08AFB072209210F
:101E6000AB48FFF7A3FF07220A21A948FFF79EFF0F
:101E700000208DF81A0001208DF81B0002208DF83B
:101E800018000002059002208DF8190005A9A0484D
:101E9000FFF744FF02208DF818004002059005A9C5
:101EA0009B48FFF73BFF4FF4E13001900020ADF875
:101EB0000800ADF80A00ADF80C00ADF810000C20D9
:101EC000ADF80E0001A9934800F0CEFE012240F2C9
:101ED0002551904800F0A3FE01218E4800F069FED4
:101EE00040218C4800F05CFE0121084600F020FBF8
:101EF0000121480400F02CFB072203218448FFF74E
:101F000055FF00208DF81A0001208DF81B000220DB
:101F10008DF818008DF818000820059002208DF823
:101F2000190005A97A48FFF7F9FE4FF41650019001
:101F30000020ADF80800ADF80A00ADF80C00ADF8CF
:101F400010000420ADF80E0001A9734800F08CFECB
:101F5000012240F22551704800F061FE01216E48D7
:101F600000F027FE40216C4800F01AFE01210220FB
:101F700000F0DEFA01208DF8180000208DF81A001C
:101F80008DF81B0003208DF819000420059005A989
:101F90006248FFF7C3FE0121022000F0C9FA0121C7
:101FA000880400F0D5FA07220A215C48FFF7FEFEFC
:101FB00007220B215948FFF7F9FE00208DF81A007F
:101FC00001208DF81B0002208DF8180040020590BA
:101FD00002208DF8190005A95048FFF79FFE022046
:101FE0008DF818008002059005A94C48FFF796FE71
:101FF0004FF4165001900020ADF80800ADF80A002B
:10200000ADF80C00ADF810000C20ADF80E0001A9E1
:10201000434800F029FE012240F22551404800F0DB
:10202000FEFD01213E4800F0C4FD40213C4800F087
:10203000B7FD0121442000F07BFA0121202000F0AF
:1020400097FA08220E213748FFF7B0FE0822072131
:102050003548FFF7ABFE082211463248FFF7A6FECF
:1020600008220F212F48FFF7A1FE00208DF81A004B
:1020700001208DF81B0002208DF818004003059008
:1020800002208DF8190005A92648FFF747FE022017
:102090008DF818008020059005A92348FFF73EFE23
:1020A00002208DF81800C001059005A91D48FFF712
:1020B00035FE02208DF818008003059005A9194807
:1020C000FFF72CFE4FF4E13001900020ADF808003E
:1020D000ADF80A00ADF80C004FF44070ADF81000F8
:1020E0000C20ADF80E0001A9104800F0BDFD012242
:1020F00040F225510D4800F092FD01210B4800F0FF
:1021000058FD4021094800F04BFD07B000BD00001C
:102110000000024000100140004400400004024062
:10212000004800400018024000080240001401402E
:102130000448006910F4807F01D10120704700201D
:10214000FCE700000020024010B5FFF7F1FF20B1CE
:1021500000F006F808B1012010BD0020FCE70000E7
:102160000448006810F4005F01D10120704700208E
:10217000FCE70000100802400448006910F4006FFA
:1021800001D1012070470020FCE700000020024040
:102190000448006810F0040F01D1012070470020AE
:1021A000FCE70000101C02400448006810F0080F13
:1021B00001D1012070470020FCE70000101C024004
:1021C0000448006810F4006F01D10120704700201E
:1021D000FCE70000101402400448006810F0800F73
:1021E00001D1012070470020FCE7000010180240D8
:1021F0000448006810F4004F01D10120704700200E
:10220000FCE70000101C024010B5FFF791FF20B161
:10221000FFF7A6FF08B1012010BD0020FCE7000079
:1022200070B504460D48D0F808010D49B1FBF0F532
:102230000C4A2946042001F03DFE084890F8800031
:1022400080280ADA054890F8801090F88000401C39
:10225000024A82F880001046445470BD1C2A0020B7
:10226000C00E16026922000801200149087070475B
:102270007101002000BFFEE77047000070B500212B
:1022800000230F22C47824B3174C246804F4E064BC
:10229000C4F5E064C4F30721C1F10404E3B20A41C8
:1022A00044789C40E1B28478144021430C07210E0D
:1022B0000E4C05786155047804F01F050124AC40EC
:1022C00005786D114FF0E02606EB8505C5F8004155
:1022D00009E0047804F01F040125A540044C0678A9
:1022E000761144F8265070BD0CED00E000E400E0EB
:1022F00080E100E07047000070B51D480468001DD3
:102300000568001D066823462A46314619A000F0DC
:102310004BFE25A000F048FE24A000F045FE33A1AE
:102320003CA000F041FE40A140A000F03DFE44A1D1
:1023300046A000F039FE00230522012148A000F04C
:1023400033FE55A000F030FE55A000F02DFE5AA03F
:1023500000F02AFE5DA000F027FE63A000F024FE3E
:1023600069A000F021FE11A000F01EFE70BD00006B
:10237000107AFF1F0D0A435055203A2053544D3315
:102380003246343037494754362C204C5146503170
:1023900037362C20554944203D20253038582025FB
:1023A00030385820253038580A0D00002A2A2A2AA9
:1023B0002A2A2A2A2A2A2A2A2A2A2A2A2A2A2A2A7D
:1023C0002A2A2A2A2A2A2A2A2A2A2A2A2A2A2A2A6D
:1023D0002A2A2A2A2A2A2A2A2A2A2A2A2A2A2A2A5D
:1023E0002A2A2A2A2A2A2A2A2A0A0D0056352D396B
:1023F00030385F42617369634D61746846756E631E
:1024000074696F6E73B5C4CAB9D3C3A3A8D2BBA392
:10241000A90000002A20C0FDB3CCC3FBB3C6202016
:10242000203A2025730D0A00322E30002A20C0FDEC
:10243000B3CCB0E6B1BE2020203A2025730D0A00AF
:10244000323031352D30342D323400002A20B7A2FD
:10245000B2BCC8D5C6DA2020203A2025730D0A0068
:102460002A20B9CCBCFEBFE2B0E6B1BE203A20566D
:1024700025642E25642E2564202853544D3332467E
:102480003478785F5374645065726970685F447221
:1024900069766572290D0A002A200D0A00000000E5
:1024A0002A205151202020203A203132393537342A
:1024B00034363330200D0A002A20CDFACDFA202000
:1024C0003A2061726D666C790D0A00002A20456D14
:1024D00061696C203A2061726D666C794071712E71
:1024E000636F6D200D0A00002A20CCD4B1A6B5EA96
:1024F0003A2061726D666C792E74616F62616F2E25
:10250000636F6D0D0A0000002A20436F70797269B5
:10251000676874207777772E61726D666C792E63A9
:102520006F6D20B0B2B8BBC0B3B5E7D7D30D0A000A
:1025300029B1064A12680243044B1A6004E0034AB8
:1025400012688243014B1A60704700003038024025
:1025500029B1064A12680243044B1A6004E0034A98
:1025600012688243014B1A607047000040380240F5
:1025700029B1064A12680243044B1A6004E0034A78
:1025800012688243014B1A607047000044380240D1
:10259000F0B5002100220024022500260223324F3C
:1025A0003F6807F00C0121B1042905D0082937D173
:1025B00005E02E4F076036E02D4F076033E02A4FCD
:1025C0003F1F3F68C7F38056274F3F1F3F6807F004
:1025D0003F036EB1264FB7FBF3F7DFF88CC0ACF1C9
:1025E000040CDCF800C0CCF3881C07FB0CF40CE0F6
:1025F0001E4FB7FBF3F7DFF870C0ACF1040CDCF84A
:1026000000C0CCF3881C07FB0CF4174F3F1F3F683A
:10261000C7F301477F1C7D00B4FBF5F7076002E0BC
:10262000124F076000BF00BF0F4F3F6807F0F00177
:102630000909104F7A5C0768D74047600A4F3F6826
:1026400007F4E051890A0B4F7A5C4768D7408760EE
:10265000054F3F6807F46041490B064F7A5C4768B5
:10266000D740C760F0BD0000083802400024F400E5
:1026700000127A00720100201CB501210220FFF730
:1026800057FF01208DF8040000208DF806008DF81A
:10269000070003208DF805000420009069460248D9
:1026A000FFF73CFB1CBD00000004024010B50446CF
:1026B0002046FFF7B5FD10BD042001490880704792
:1026C0001804024004200149088070471A0402409F
:1026D000704700000CB5002001900090344800685D
:1026E00040F480303249086000BF3148006800F48F
:1026F000003000900198401C0190009818B9019892
:10270000B0F5A04FF1D12A48006810F4003F02D084
:102710000120009001E0002000900098012845D1A0
:1027200023484030006840F0805021494031086023
:102730002048006840F440401E4908601C480830AA
:1027400000681B49083108600846006840F40040F2
:1027500008600846006840F4A05008601648091F49
:102760000860081F006840F08070091F086000BF03
:102770000F48006810F0007FFAD040F205700F4952
:1027800008600B480830006820F003000849083151
:1027900008600846006840F00200086000BF044876
:1027A0000830006800F00C000828F8D10CBD0000CB
:1027B000003802400070004008544007003C0240CE
:1027C00010B500F001F810BD10B51B48006840B10D
:1027D00019480068401E1849086002D101201749B5
:1027E0000870002408E004EB4401154A02EB810064
:1027F00001F0FDFA601CC4B2042CF4DB114800683F
:10280000401C10490860084600686FF0004188428B
:1028100002D100200B49086001F0E8FA0A4800786C
:10282000401CC0B2084908700A2803DB0020087069
:1028300001F0D8FA10BD0000500100205401002022
:102840004C090020580100205C01002010B51548FB
:10285000006840F47000134908601348006840F0B5
:1028600001001149086000200F49083108600E4836
:1028700000680E4908400C4908600D48091D0860B1
:10288000081F006820F48020091F08600020064906
:102890000C310860FFF71EFF4FF0006001498039DE
:1028A000086010BD88ED00E000380240FFFFF6FE32
:1028B0001030002410B50221214800F06CF858B106
:1028C00002211F4800F046F8002202211C4800F0B7
:1028D00073F81C48006880470421194800F05BF831
:1028E00058B10421164800F035F80022042114489C
:1028F00000F062F81448006880470821104800F092
:102900004AF858B108210E4800F024F800220821A6
:102910000B4800F051F80D48006880471021084826
:1029200000F039F858B11021054800F013F80022E2
:102930001021034800F040F805480068804710BDAA
:10294000000C0040600100206401002068010020AC
:102950006C010020CA430282704721B1028842F014
:102960000102028004E002884FF6FE731A400280E2
:10297000704731B1B0F8442042F40042A0F844203E
:1029800005E0B0F84420C2F30E02A0F844207047DE
:102990000146486A704730B50246002000230024F3
:1029A000158A05EA0103958905EA010413B10CB102
:1029B000012000E0002030BD1AB183890B438381E0
:1029C00002E083898B4383817047000070B5002447
:1029D00000220023058C4FF6EF7635400584028CEB
:1029E0008388048B48F6FF752C404FF6FF452C403A
:1029F0000D884FF6FF7606EA05252C434FF6DF7566
:102A00002A408D8906EA05152A434D8806EA0515F0
:102A10002A43154DA84202D0144DA8421DD14FF6AD
:102A20007F752A40CD894FF6FF7606EA05152A43C1
:102A30004FF6BF752A408D8806EA05152A434FF6E2
:102A4000FF352B404FF2FF752B400D8A06EA8505B6
:102A50002B434D8A06EA85052B43838004838D68CA
:102A60008563028470BD0000000001400004014045
:102A70000A46002101894FF68F73194011430181E5
:102A8000704702894FF67F731A40028102890A4318
:102A90000281704782884FF68F731A408280828845
:102AA0000A438280704702894FF6F8731A40028108
:102AB00002890A430281704741637047816370470E
:102AC000C16370470164704700220288184B984226
:102AD0000ED0184B98420BD0B0F1804F08D0164B57
:102AE000984205D0154B984202D0154B984204D11C
:102AF0004FF68F731A404B881A43124B984207D0F7
:102B0000114B984204D04FF6FF431A400B891A43E9
:102B100002804B68C3620B880385054B984202D044
:102B2000044B984201D18B7A03860123838270473C
:102B30000000014000040140000400400008004083
:102B4000000C004000100040001400404FF0FF3126
:102B50004160002101800181418081727047000045
:102B600010B5024800F0F3F810BD00007C09002009
:102B700010B5024800F0EBF810BD0000A4110020D1
:102B800010B5024800F0E3F810BD0000CC19002099
:102B900010B5024800F0DBF810BD0000F421002061
:102BA00001F40072B2F5007F00D100BFCA43028079
:102BB000704721B1828942F40052828104E0828907
:102BC0004DF6FF731A408281704770B502460024AB
:102BD000002300250020A1F510666A3E00D100BF49
:102BE000C1F3421501F01F03012606FA03F3012D7C
:102BF00002D19689334006E0022D02D1168A334075
:102C000001E0968A33400C12012606FA04F4168875
:102C1000344013B10CB1012000E0002070BDF0B5CC
:102C200003460024002600250020A1F510676A3F16
:102C300000D100BF1846C1F3421401F01F0601275E
:102C400007FA06F5012C01D10C3004E0022C01D169
:102C5000103000E014301AB107682F43076002E01B
:102C60000768AF430760F0BD2DE9FF4705460E46F4
:102C70000024A14600BFA046B08900B100BF2C8A45
:102C800024F44054F08804432C82AC8941F20C6057
:102C90008443B08831890843718908430443AC8177
:102CA000AC8A24F44074B0890443AC826846FFF7D0
:102CB0006FFC2048854202D01F48854202D1DDF8D2
:102CC0000C9001E0DDF80890A88910F4004F08D0BE
:102CD00009EBC90000EB091031684900B0FBF1F7BE
:102CE00007E009EBC90000EB091031688900B0FB6F
:102CF000F1F76420B7FBF0F004012009642101FB27
:102D00001078A88910F4004F08D0322000EBC800DA
:102D1000B0FBF1F000F00700044308E0322000EBC4
:102D200008106421B0FBF1F000F00F0004432C8187
:102D3000BDE8FF870010014000140140014688886B
:102D4000C0F308007047C1F308028280704770B575
:102D5000044640F225512068FFF737FFE0B12068B4
:102D6000FFF7ECFFC5B2E18AA0684554E08A401C39
:102D700080B2E082E189884201DB0020E082608B42
:102D8000E189884202DA608B401C6083606A10B17E
:102D90002846616A884700BF40F227712068FFF724
:102DA00014FF08B3A08A60B9002240F2277120689E
:102DB000FFF735FF012240F226612068FFF72FFF61
:102DC00037E0638A6268D15C2068FFF7BCFF608AE5
:102DD000401C80B26082A189884201DB00206082B1
:102DE000A08A401EA08224E040F226612068FFF7FE
:102DF000ECFEF0B1A08A50B9002240F226612068B2
:102E0000FFF70DFF206AA0B1206A804711E0638AB6
:102E10006268D15C2068FFF796FF608A401C80B230
:102E20006082A189884201DB00206082A08A401E66
:102E3000A08270BD2DE9F04104460E4617460025DC
:102E400027E00CE0012000F0D1F8B4F81480002055
:102E500000F0CCF8A089404500DD01E000BFF1E7BB
:102E600000BF705D228A61688854012000F0BEF8BE
:102E7000208A401C80B22082A189884201DB002088
:102E80002082A08A401CA082002000F0AFF8681CBD
:102E900085B2BD42D5DB012240F227712068FFF7E1
:102EA000BEFEBDE8F08100002B482C4908602C488C
:102EB00048602C4888604FF480608881C881002079
:102EC00008824882C882088348838882C861086271
:102ED000486225482549086025484860254888609B
:102EE00001208881C002C881002008824882C882EF
:102EF000088348838882C861086248621E481F4967
:102F000008601F4848601F4888604FF480608881CF
:102F1000C881002008824882C8820883488388824A
:102F20001948C861194808621948486219481A497D
:102F300008601A4848601A4888604FF480608881A9
:102F4000C881002008824882C8820883488388821A
:102F5000C861086248627047001001407C09002087
:102F6000A4090020A40D002000440040A41100206A
:102F700070010020CC11002000480040CC19002036
:102F8000F4190020F41D0020B9260008C526000809
:102F9000AD26000800140140F42100201C2200206E
:102FA0001C26002000BFFEE70FB4054B10B503A997
:102FB000044A029800F0CCF810BC5DF814FB000045
:102FC000BB3F00089801002002E008C8121F08C19A
:102FD000002AFAD170477047002001E001C1121F9A
:102FE000002AFBD1704780F31088704780F3108867
:102FF000704700002DE9FF5FDDE90220010DDDF8DB
:1030000038B0024310D10F9801244CA2012808D0F7
:10301000002100980F9BC0E90021C0E90243BDE8F0
:10302000FF9F6FEA0B01F4E7A1F2FF3144F6105065
:1030300041430D140F9801280ED0A5EB0B00401C46
:103040004FF000043E4EDFF8FC90B0F1000AA046BD
:1030500005DACAF1000717E0CBF10000F0E70746F8
:1030600012E0F80707D02246334640464946FEF7AD
:10307000B1F8804689462246334610461946FEF787
:10308000A9F804460E467F10002FEAD1DDE90201BF
:10309000BAF1000F42464B4602DAFEF79BF801E018
:1030A000FEF70AF904460E460022274BFEF78CF97C
:1030B00003D84FF0FF30014607E00022234B2046A3
:1030C0003146FDF7E0FFFEF766F9102409E0002C19
:1030D0000ADB0A220023FDF7A5FF019B30321A55B7
:1030E000641E50EA0102F2D1641C019AC4F111037A
:1030F00014440F9A012A09D00122084301D15B45EB
:103100000FDD4FF0000205F101050DE0084303D18A
:10311000A3EB0B056D1E09E000204FF0110B0F9083
:1031200088E701DA00226D1E002A83D000980F99EB
:10313000C0E90231C0E9004571E70000300000003D
:10314000000024400000F03F0000F0430000E03F9A
:103150002DE9FF4F95B09B4689460646002512E2B1
:10316000252878D10024761CF94A274601210594A8
:103170003378203B01FA03F0104202D00443761C5E
:10318000F6E730782A2811D06FF02F033078A0F1BD
:103190003002092A16D8059A44F0020402EB820292
:1031A00003EB42021044761C0590EFE759F8042B1C
:1031B0000592002A03DA504244F40054059044F08A
:1031C0000204761C30782E2816D116F8010F44F030
:1031D00004042A280DD06FF02F023078A0F13003BC
:1031E000092B09D807EB870302EB4303C718761CAA
:1031F000F3E759F8047B761C30786C280FD006DC96
:103200004C2817D068280DD06A2814D104E07428FF
:1032100010D07A280FD10DE044F400140AE044F4F1
:10322000801401E044F440147278824202D1761C8A
:1032300004F58014761C307866280BD013DC5828EF
:1032400077D009DC002875D04528F6D04628F4D080
:1032500047281AD19FE118E0632835D0642879D037
:10326000652812D197E1702873D008DC6728F1D067
:1032700069286FD06E280DD06F2806D1B5E073286D
:103280002CD0752875D0782874D05A461799904755
:103290006D1C76E1C4F30250022809D003280DD03A
:1032A000D9F8001004280DD00D6009F1040968E177
:1032B000D9F80010EA17C1E90052F6E7D9F8001072
:1032C0000D80F2E70D70F0E719F8041B8DF800107F
:1032D00000208DF80100EA46012003E059F804AB14
:1032E0004FF0FF3061074FF0000102D40DE008F10C
:1032F00001018846B9420FDA8045F8DB1AF8081058
:103300000029F4D108E008F1010188468142FADB86
:103310001AF808100029F6D105985B46A0EB0807BB
:1033200021463846179A00F09EFA284400EB08051B
:1033300007E04DE02BE10DE01AF8010B5A46179912
:103340009047B8F10108F7D25B4621463846179AF4
:1033500014E142E00A220092C4F302524FF0000A44
:10336000022A08D059F804CB032A4FEAEC710AD09C
:103370000DE029E02AE009F1070121F00702F2E857
:1033800002C1914609E00FFA8CFC4FEAEC71042A65
:1033900003D14FFA8CFC4FEAEC71002907DA0A4698
:1033A0000021DCF1000C61EB02012D2202E022057C
:1033B00004D52B228DF80420012203E0E20701D07E
:1033C0002022F7E7904653E00A2102E010220DE0A8
:1033D00010214FF0000A00910BE010224FF0000A7C
:1033E00044F004040827009203E008224FF0000A8A
:1033F0000092C4F30252022A05D059F804CB0021EE
:10340000032A08D009E009F1070121F00702F2E8D8
:1034100002C1914605E01FFA8CFC042A01D10CF090
:10342000FF0C4FF00008220722D5702827D0009B00
:1034300083F0100353EA0A0309D15CEA010206D0C3
:1034400030228DF804208DF8050002229046009B62
:1034500083F0080353EA0A030AD15CEA010201D1AE
:10346000620705D530228DF804204FF001087F1E39
:10347000582809D037A003900EA8029013E04022EC
:103480008DF804200122E1E737A0F4E753466046B7
:10349000009AFDF7C7FD84460398825C0298A0F16C
:1034A0000100029002705CEA0100EFD1029806A9C7
:1034B000A1EB000000F1200A600702D524F480345B
:1034C00000E00127574502DDA7EB0A0000E00020DD
:1034D00000EB0A01009005984144A0EB0100059023
:1034E000E00306D45B462146179A059800F0BBF925
:1034F0000544002706E001A85A46C05D1799904789
:103500006D1C7F1C4745F6DBE0030CD55B4621466E
:10351000179A059800F0A7F9054404E030205A46B0
:10352000179990476D1C0099481E00900029F5DC02
:1035300008E0029802995A460078491C02911799AE
:1035400090476D1CBAF10001AAF1010AF1DC6BE1B0
:103550000928010030313233343536373839616269
:10356000636465660000000030313233343536372D
:1035700038394142434445460000000000F060F9FC
:10358000054406F10106307800287FF4E9AD19B052
:103590002846BDE8F08F620700D4062709F107022C
:1035A00022F0070CFCE80223E14603F000485FEA42
:1035B000080C02D00FF27C2C0DE05FEA045C02D50F
:1035C0000FF2742C07E05FEAC47C02D00FF26C2C7F
:1035D00001E0AFF2700C4FF0FF3823F00043CDF85C
:1035E00050C065280CD006DC452809D046281DD0DF
:1035F00047283ED13EE0662818D0672839D139E007
:103600000021112F01DB112000E0781CCDE9000121
:1036100006A90EA8FFF7EEFCDDE90F010E9A039153
:103620000021009207F1010A04914EE04FF00040A2
:103630000097CDE9011006A90EA8FFF7DBFCDDE934
:103640000F0203920E9B11990022DDF80CA000934B
:10365000049219B907F1010100EB010AB7EB0A0066
:1036600004D4C0F1FF3007F1010A0490AAEB07006F
:10367000019046E0012F00DA01270021112F01DD22
:10368000112000E03846CDE9000106A90EA8FFF799
:10369000B1FCDDE90F010E9A039100210491009223
:1036A000BA4621070CD40399514500DA8A46BAF18B
:1036B000010F05DD009AAAF10101515C302908D003
:1036C000B84202DA10F1040F06DA0121CDE9011047
:1036D00017E0AAF10101E9E7002805DC049901449B
:1036E0000491AAEB000102E0411C514500DD8A462D
:1036F0000499A0EB010000F1010001904FF000409F
:103700000290200704D40198504501DBCDF80480D5
:1037100000208DF84F0002980DF14F07B0F1004FD7
:1037200025D02B200E9002984FF0020800280CDACA
:10373000404202902D200E9007E00A210298FDF7EA
:103740005BFC3031029007F8011DB8F10001A8F1CF
:103750000108F2DC02980028EFD1791E0E9808705B
:10376000307800F0200040F0450007F8020D12A864
:10377000A0EB070000F107081498007800B10120C1
:1037800000EB0A01019801EBE07105984144A0EBC0
:103790000100A0F101000590E00306D45B4621463C
:1037A000179A059800F05FF805441498007820B146
:1037B0005A461799904705F10105E00323D55B466A
:1037C0002146179A059800F04EF805441BE004982E
:1037D000002807DBDDE90301884203DD0098405C37
:1037E000179901E0179930205A46904704986D1CAC
:1037F000401C04900198401E019004D12E205A468E
:10380000179990476D1CBAF10001AAF1010ADEDC9C
:1038100005E017F8010B5A46179990476D1CB8F14F
:103820000001A8F10108F4DC5B462146179A0598CF
:10383000A4E600002D0000002B0000002000000086
:103840002DE9F041044600251E461746880405D49C
:1038500006E039462020B04705F10105641EF8D581
:103860002846BDE8F0812DE9F041044600251E46BA
:103870009046C80301D5302700E02027880405D5ED
:1038800006E041463846B04705F10105641EF8D50B
:103890002846BDE8F081000010B52DED028B1848D8
:1038A000007840B9012016490870164B164A0821C5
:1038B0001648FDF771FBC823154A16491348FDF752
:1038C000C5FA9FED158A72B6002413E0104800EB8C
:1038D000840090ED000A60EE080A9FED101A9FED3B
:1038E000100A00EE810ABCEEC00A10EE100A0D4963
:1038F0000880641CC82CE9D362B6BDEC028B10BDF5
:10390000000000201C080020184100089C01002035
:10391000FC040020DC010020217A092C00401C4618
:1039200000409C464E0100200146042901DB002096
:10393000704701EB4100084A02EB80004078012803
:1039400008D1002001EB4102034B03EB82025070CF
:103950000120EDE70020EBE74C09002070B505469B
:10396000304800EB05142068804700283ED02079BD
:10397000052802DA0520207152E020790A2803DAAE
:103980002079401C20714BE0A07A38B90120A07248
:1039900005EB4501491CC8B200F014FA2089002843
:1039A0003EDDE088218988420DDAE088401C80B243
:1039B000E0802189884233D105EB4501C91CC8B29A
:1039C00000F000FA2CE0E07A002829DD207B401C82
:1039D000C0B22073E17A884222DB0020207305EB1D
:1039E0004501491CC8B200F0EDF919E0207905281D
:1039F00002DD0520207110E0207918B12079401EE9
:103A000020710AE0A07A012807D10020A07205EBFE
:103A10004501891CC8B200F0D5F90020E080207370
:103A200070BD00009C0800200B48807A0A4AD27AB8
:103A3000904201D1002070470748807A064A115C05
:103A40001046807A401CC0B290720A2801DB002028
:103A500090720846EFE700003C090020704710B55F
:103A600000F050F900F005F800F002F900F0C2F89B
:103A700010BD10B500F054F800F002F810BD0000C1
:103A80001CB501214FF4F270FEF752FD00208DF8B5
:103A900004008DF806008DF8070002208DF805005F
:103AA000C001009069461948FEF738F94FF40050FC
:103AB000009069461648FEF731F94FF40060009017
:103AC00069461248FEF72AF9042000906946114819
:103AD000FEF724F90820009069460E48FEF71EF90B
:103AE0004FF40060009069460B48FEF717F98020FC
:103AF000009069460948FEF711F94FF40040009024
:103B000069460448FEF70AF91CBD00000020024087
:103B100000080240001C024000140240001802404D
:103B20000021284A9172D1721173002018E064219B
:103B3000254A02EB001211810221234A02EB0012F6
:103B400011710021204A02EB001291721E4A02EB11
:103B50000012D1721C4A02EB00121173411CC8B250
:103B60000A28E4DB642218490A87052281F83B20F1
:103B70006422A1F84820052281F84B206422A1F894
:103B80005820052281F85B206422A1F868200522D4
:103B900081F86B200D490C4A11600D4911610D49E6
:103BA00011620D4911630D4911640D4911650D49EB
:103BB00011660D4911670D49C2F880100C49C2F811
:103BC000901070473C0900209C080020312100081B
:103BD000612100087921000891210008A92100082D
:103BE000C1210008D9210008F1210008092200089C
:103BF000492100081CB501214FF49270FEF798FC92
:103C0000012000F095F8022000F092F8032000F067
:103C10008FF8042000F08CF801208DF804000020BB
:103C20008DF806008DF8070003208DF805004FF48D
:103C30008060009069460B48FEF770F88020009085
:103C400069460948FEF76AF84FF4807000906946AB
:103C50000548FEF763F80420009069460348FEF724
:103C60005DF81CBD00200240001402400008024024
:103C700070B5002016E0002100EB40021D4B03EB65
:103C80008202516000EB400203EB8202916000EB84
:103C9000400203EB8202517000EB400203F8221055
:103CA000411CC8B20428E6DB134909684FF47A7353
:103CB000B1FBF3F2511EB1F1807F00D319E0511E28
:103CC0004FF0E023596159170F23002906DA1C0130
:103CD0000A4D01F00F06361FAC5502E01C01084DDD
:103CE0006C5400BF00214FF0E02399610721196156
:103CF00000BF70BD4C0900208401002018ED00E0D9
:103D000000E400E010B5FFF7CFF8FEF79DF8FEF7EE
:103D1000B3FCFDF761FC10BD10B5002404E02046A3
:103D2000FFF71CFE601CC4B20A2CF8DB10BD0000BB
:103D3000411EC8B220B94FF480610A4A118310E0D5
:103D4000012803D18021084A11800AE0022803D10A
:103D5000C101054A118004E0032802D10421034A6D
:103D600011807047002002401814024018080240D9
:103D7000012806D11049496981F480610E4A5161D8
:103D800019E0022806D10D49096881F080010B4A2B
:103D9000116010E0032806D10849096881F4807198
:103DA000064A116007E0042805D10549096881F039
:103DB0000401034A116070470020024014140240BD
:103DC000140802400649C97A054A50541146C97A76
:103DD000491CC9B2D1720A2901DB0021D172704796
:103DE0003C09002010B5FFF797FF10BD70474168F0
:103DF00051B14168491E416006D1012141700178ED
:103E0000012901D1816841607047000070B5044606
:103E10000D46042C06DB124A12A11DA0FFF7C4F8C0
:103E200000BFFEE70120FFF7DEF804EB4400204965
:103E300001EB8000456004EB440001EB80008560ED
:103E4000002004EB44011A4A02EB81014870012072
:103E500004EB440102F821000020FFF7C4F870BD14
:103E6000C74100082E2E5C2E2E5C557365725C6275
:103E700073705F73746D3332663478785C73726319
:103E80005C6273705F74696D65722E630000000080
:103E90004572726F723A2066696C652025732C201A
:103EA00066756E6374696F6E20257328290D0A008C
:103EB0004C0900202DE9F04104460E461546052E1A
:103EC00000D3761F2848FEF763FD074607EB060878
:103ED000012C0FD12548056041462348FEF7ECFD33
:103EE00002212148FEF736FD012202211E48FEF77D
:103EF00063FD37E0022C0FD11D48056041461A488A
:103F0000FEF7DCFD04211848FEF724FD0122042100
:103F10001548FEF751FD25E0032C0FD1154805602B
:103F200041461148FEF7CCFD08210F48FEF712FD6F
:103F3000012208210C48FEF73FFD13E0042C0FD1AD
:103F40000D48056041460848FEF7BCFD10210648B3
:103F5000FEF700FD012210210348FEF72DFD01E0D0
:103F6000BDE8F08100BFFBE7000C004060010020CD
:103F700064010020680100206C0100202DE9F0415F
:103F800005460E4617462846FDF704FB04460CB9C5
:103F9000BDE8F081E06908B1E06980473A46314602
:103FA0002046FEF747FF00BFF2E713B504460122A3
:103FB00001A92046FFF7E2FF1CBD70B504460D467F
:103FC000E1B20020FFF7F1FF204670BD2DED028B1E
:103FD000FFF745FDFEF790F94FF4FA710020FFF767
:103FE00015FFFDF7FDFD82E0414890ED000A0068F5
:103FF000401C3F49B8EE400ADFED3E0A20EE200AA1
:10400000DFED3D0A80EE201AB0EE418AB0EE480A9C
:104010000860FCF7E1FEF0EE408A354890ED000ABA
:104020000068401C3249B8EE400ADFED340A20EE49
:10403000200ADFED310A80EE201AB0EE418AB0EEA0
:10404000480A0860FCF7C8FEF7EE000A40EE808AD6
:104050009FED2B0A38EE800A2A482B49096800EBAD
:10406000810080ED000A27482749096800EB81009C
:10407000D0ED000A9FED251A9FED250A00EE810A7A
:10408000BCEEC00A10EE100A224908801E480068E3
:10409000401C1D49086008460068C82803D9002054
:1040A0000860FFF7F9FBFFF7D9FC0020FFF73CFCA5
:1040B00010B10420FFF75CFEFFF7B6FC0446B4B174
:1040C000012C06D0042C07D0072C08D00A2C0CD1C8
:1040D00008E0FDF7B3FA09E0FDF762FB06E0FDF743
:1040E0000DFC03E0FDF7C6FC00E000BF00BF7BE76E
:1040F00008000020DA0FC9400000164462149D44F5
:1041000000000000DC0100200400002000401C46EC
:1041100000409C464C0100200000803F0000000051
:10412000000080BFEAF2FB3FB72E79BF0000803F5E
:1041300000000000000080BF3BF2FF3F8AE47FBF29
:104140000000803F00000000000080BF3ED8FF3F1D
:1041500090B07FBF0000803F00000000000080BFE3
:1041600038E9F53F440E6DBF0000803F00000000BD
:10417000000080BF17C3FF3F44867FBF0000803F21
:1041800000000000000080BF437EF13F322B64BF7F
:104190000000803F00000000000080BFDDB6FF3F50
:1041A000CF6D7FBF0000803F00000000000080BF97
:1041B000662CEF3F177F5FBF6273705F537461724D
:1041C0007454696D6572006273705F5374617274C8
:1041D0004175746F54696D6572006273705F5374DA
:1041E0006F7054696D65720000000000920E493CCA
:1041F000B10AC93C2BC3163D2EFB483D752B7B3DB8
:1042000004A9963D80B6AF3D36BDC83D2FBCE13D0B
:1042100073B2FA3D87CF093E8340163EB5AB223ECE
:10422000A2102F3ECF6E3B3EC2C5473E0115543E05
:10423000135C603E7F9A6C3ECCCF783EC07D823E60
:10424000938E883E229A8E3E32A0943E86A09A3E5D
:10425000E59AA03E128FA63ED47CAC3EEF63B23E00
:104260002A44B83E491DBE3E15EFC33E53B9C93E70
:10427000CA7BCF3E4136D53E80E8DA3E4F92E03EE3
:104280007533E63EBBCBEB3EEA5AF13ECBE0F63E61
:10429000275DFC3EE4E7003F3D9C033F824B063F29
:1042A0009BF5083F6B9A0B3FDA390E3FCDD3103F99
:1042B0002A68133FD9F6153FC07F183FC6021B3F3F
:1042C000D17F1D3FCBF61F3F9967223F25D2243F68
:1042D0005636273F1594293F4AEB2B3FDE3B2E3FB6
:1042E000BB85303FC9C8323FF304353F233A373FDF
:1042F0004268393F3B8F3B3FF9AE3D3F67C73F3F89
:1043000070D8413F01E2433F03E4453F65DE473F4C
:1043100012D1493FF8BB4B3F029F4D3F207A4F3FA0
:104320003D4D513F4918533F31DB543FE595563FD2
:104330005348583F6AF2593F1A945B3F532D5D3FF3
:1043400005BE5E3F2146603F97C5613F5A3C633FD3
:1043500059AA643F880F663FD86B673F3CBF683FF0
:10436000A7096A3F0C4B6B3F5E836C3F93B26D3F76
:104370009ED86E3F73F56F3F0809713F5213723F2D
:104380004714733FDD0B743F0BFA743FC6DE753F75
:1043900007BA763FC58B773FF853783F9812793F3D
:1043A0009DC7793F02737A3FBE147B3FCDAC7B3F04
:1043B000283B7C3FC9BF7C3FAC3A7D3FCCAB7D3FC7
:1043C00023137E3FB0707E3F6DC47E3F580E7F3F0B
:1043D0006D4E7F3FAB847F3F0FB17F3F97D37F3FD1
:1043E00043EC7F3F11FB7F3F0000803F11FB7F3F8D
:1043F00043EC7F3F97D37F3F0FB17F3FAB847F3F3D
:104400006D4E7F3F580E7F3F6DC47E3FB0707E3F44
:1044100023137E3FCCAB7D3FAC3A7D3FC9BF7C3F91
:10442000283B7C3FCDAC7B3FBE147B3F02737A3F81
:104430009DC7793F9812793FF853783FC58B773FF6
:1044400007BA763FC6DE753F0BFA743FDD0B743F4B
:104450004714733F5213723F0809713F73F56F3F62
:104460009ED86E3F93B26D3F5E836C3F0C4B6B3FAB
:10447000A7096A3F3CBF683FD86B673F880F663F1C
:1044800059AA643F5A3C633F97C5613F2146603F4C
:1044900005BE5E3F532D5D3F1A945B3F6AF2593F64
:1044A0005348583FE595563F31DB543F4918533F39
:1044B0003D4D513F207A4F3F029F4D3FF8BB4B3F50
:1044C00012D1493F65DE473F03E4453F01E2433FE8
:1044D00070D8413F67C73F3FF9AE3D3F3B8F3B3F01
:1044E0004268393F233A373FF304353FC9C8323F6A
:1044F000BB85303FDE3B2E3F4AEB2B3F1594293FD7
:104500005636273F25D2243F9967223FCBF61F3FDF
:10451000D17F1D3FC6021B3FC07F183FD9F6153F14
:104520002A68133FCDD3103FDA390E3F6B9A0B3F09
:104530009BF5083F824B063F3D9C033FE4E7003F6D
:10454000275DFC3ECBE0F63EEA5AF13EBBCBEB3EAC
:104550007533E63E4F92E03E80E8DA3E4136D53E86
:10456000CA7BCF3E53B9C93E15EFC33E491DBE3E7F
:104570002A44B83EEF63B23ED47CAC3E128FA63ED6
:10458000E59AA03E86A09A3E32A0943E229A8E3EA4
:10459000938E883EC07D823ECCCF783E7F9A6C3E23
:1045A000135C603E0115543EC2C5473ECF6E3B3E94
:1045B000A2102F3EB5AB223E8340163E87CF093E68
:1045C00073B2FA3D2FBCE13D36BDC83D80B6AF3D6C
:1045D00004A9963D752B7B3D2EFB483D2BC3163D14
:1045E000B10AC93C920E493C00000000920E49BC41
:1045F000B10AC9BC2BC316BD2EFB48BD752B7BBDB4
:1046000004A996BD80B6AFBD36BDC8BD2FBCE1BD07
:1046100073B2FABD87CF09BE834016BEB5AB22BECA
:10462000A2102FBECF6E3BBEC2C547BE011554BE01
:10463000135C60BE7F9A6CBECCCF78BEC07D82BE5C
:10464000938E88BE229A8EBE32A094BE86A09ABE59
:10465000E59AA0BE128FA6BED47CACBEEF63B2BEFC
:104660002A44B8BE491DBEBE15EFC3BE53B9C9BE6C
:10467000CA7BCFBE4136D5BE80E8DABE4F92E0BEDF
:104680007533E6BEBBCBEBBEEA5AF1BECBE0F6BE5D
:10469000275DFCBEE4E700BF3D9C03BF824B06BF25
:1046A0009BF508BF6B9A0BBFDA390EBFCDD310BF95
:1046B0002A6813BFD9F615BFC07F18BFC6021BBF3B
:1046C000D17F1DBFCBF61FBF996722BF25D224BF64
:1046D000563627BF159429BF4AEB2BBFDE3B2EBFB2
:1046E000BB8530BFC9C832BFF30435BF233A37BFDB
:1046F000426839BF3B8F3BBFF9AE3DBF67C73FBF85
:1047000070D841BF01E243BF03E445BF65DE47BF48
:1047100012D149BFF8BB4BBF029F4DBF207A4FBF9C
:104720003D4D51BF491853BF31DB54BFE59556BFCE
:10473000534858BF6AF259BF1A945BBF532D5DBFEF
:1047400005BE5EBF214660BF97C561BF5A3C63BFCF
:1047500059AA64BF880F66BFD86B67BF3CBF68BFEC
:10476000A7096ABF0C4B6BBF5E836CBF93B26DBF72
:104770009ED86EBF73F56FBF080971BF521372BF29
:10478000471473BFDD0B74BF0BFA74BFC6DE75BF71
:1047900007BA76BFC58B77BFF85378BF981279BF39
:1047A0009DC779BF02737ABFBE147BBFCDAC7BBF00
:1047B000283B7CBFC9BF7CBFAC3A7DBFCCAB7DBFC3
:1047C00023137EBFB0707EBF6DC47EBF580E7FBF07
:1047D0006D4E7FBFAB847FBF0FB17FBF97D37FBFCD
:1047E00043EC7FBF11FB7FBF000080BF11FB7FBF89
:1047F00043EC7FBF97D37FBF0FB17FBFAB847FBF39
:104800006D4E7FBF580E7FBF6DC47EBFB0707EBF40
:1048100023137EBFCCAB7DBFAC3A7DBFC9BF7CBF8D
:10482000283B7CBFCDAC7BBFBE147BBF02737ABF7D
:104830009DC779BF981279BFF85378BFC58B77BFF2
:1048400007BA76BFC6DE75BF0BFA74BFDD0B74BF47
:10485000471473BF521372BF080971BF73F56FBF5E
:104860009ED86EBF93B26DBF5E836CBF0C4B6BBFA7
:10487000A7096ABF3CBF68BFD86B67BF880F66BF18
:1048800059AA64BF5A3C63BF97C561BF214660BF48
:1048900005BE5EBF532D5DBF1A945BBF6AF259BF60
:1048A000534858BFE59556BF31DB54BF491853BF35
:1048B0003D4D51BF207A4FBF029F4DBFF8BB4BBF4C
:1048C00012D149BF65DE47BF03E445BF01E243BFE4
:1048D00070D841BF67C73FBFF9AE3DBF3B8F3BBFFD
:1048E000426839BF233A37BFF30435BFC9C832BF66
:1048F000BB8530BFDE3B2EBF4AEB2BBF159429BFD3
:10490000563627BF25D224BF996722BFCBF61FBFDB
:10491000D17F1DBFC6021BBFC07F18BFD9F615BF10
:104920002A6813BFCDD310BFDA390EBF6B9A0BBF05
:104930009BF508BF824B06BF3D9C03BFE4E700BF69
:10494000275DFCBECBE0F6BEEA5AF1BEBBCBEBBEA8
:104950007533E6BE4F92E0BE80E8DABE4136D5BE82
:10496000CA7BCFBE53B9C9BE15EFC3BE491DBEBE7B
:104970002A44B8BEEF63B2BED47CACBE128FA6BED2
:10498000E59AA0BE86A09ABE32A094BE229A8EBEA0
:10499000938E88BEC07D82BECCCF78BE7F9A6CBE1F
:1049A000135C60BE011554BEC2C547BECF6E3BBE90
:1049B000A2102FBEB5AB22BE834016BE87CF09BE64
:1049C00073B2FABD2FBCE1BD36BDC8BD80B6AFBD68
:1049D00004A996BD752B7BBD2EFB48BD2BC316BD10
:1049E000B10AC9BC920E49BC000000800C4A000804
:1049F000000000209C01000034150008504A000807
:104A00009C010020142E0000D82F0008012002294C
:104A10007F0B24803F042136F0FFFF7F01091E0435
:104A2000C10A110102B9207901092C900922884993
:104A3000040910022A706FAA7F7401282D01020355
:104A400004043506070809AC7A030A1A591611003E
:040000050800018965
:00000001FF
